:020000040800F2
:10000000580A002005010008790200087102000862
:10001000750200084D010008870D0008000000006F
:10002000000000000000000000000000A50600081D
:1000300051010008000000004D050008B907000844
:100040001F0100081F0100081F0100081F01000810
:100050001F0100081F0100081F0100081F01000800
:100060001F0100081F0100081F0100081F010008F0
:100070001F0100081F0100081F0100081F010008E0
:100080001F0100081F0100081F0100081F010008D0
:100090001F0100081F0100081F0100081F010008C0
:1000A0001F0100081F0100081F0100081F010008B0
:1000B0001F010008710800081F0100081F01000847
:1000C0001F0100081F0100081F0100081F01000890
:1000D0001F0100083D0A0008810A0008C50A00083F
:1000E0001F0100081F0100081F010008DFF810D0E1
:1000F00000F01AF8004800471D0F0008AFF3008019
:10010000580A00200648804706480047FEE7FEE7F9
:10011000FEE7FEE7FEE7FEE7FEE7FEE7FEE7FEE7B7
:1001200011080008ED000008064C074D06E0E068E5
:1001300040F0010394E8070098471034AC42F6D32E
:10014000FFF7D8FFD0110008F011000800BFFEE74C
:1001500070472DE9F04102460025002600200023CB
:100160000024002791F803C00CF00F0591F803C09C
:100170000CF0100CBCF1000F03D091F802C04CEA57
:10018000050591F800C0BCF1000F31D014680020C3
:100190002BE04FF0010C0CFA00F3B1F800C00CEAB0
:1001A00003069E4220D183004FF00F0C0CFA03F798
:1001B000BC4305FA03FC4CEA040491F803C0BCF10B
:1001C000280F06D14FF0010C0CFA00FCC2F814C045
:1001D0000AE091F803C0BCF1480F05D14FF0010CC3
:1001E0000CFA00FCC2F810C0401C0828D1D31460DF
:1001F000B1F800C0BCF1FF0F34DD546800202EE0E0
:1002000000F1080C4FF0010808FA0CF3B1F800C037
:100210000CEA03069E4221D183004FF00F0C0CFA2A
:1002200003F7BC4305FA03FC4CEA040491F803C04D
:10023000BCF1280F05D100F1080C08FA0CF8C2F83F
:10024000148091F803C0BCF1480F07D100F1080CED
:100250004FF0010808FA0CF8C2F81080401C08287A
:10026000CED35460BDE8F0814161704701617047B1
:1002700000BFFEE700BFFEE77047000070B5002139
:1002800000230F22C47804B3154C246804F4E064FE
:10029000C4F5E064210AC1F10403CA40447804FAB9
:1002A00003F184781440214309010E4C0678A155CE
:1002B000047804F01F050124AC4005786D11AD00F1
:1002C00005F1E025C5F8004109E0047804F01F05B8
:1002D0000124AC40044D0678761145F8264070BDE7
:1002E0000CED00E000E400E080E100E002490143A1
:1002F000024A1160704700000000FA050CED00E0B2
:1003000070B5002419E004F1B001C8B2002100F07A
:10031000EBF80021084600F0E7F80021102000F07B
:10032000E3F8002505E00121002000F0DDF8681C5D
:10033000C5B2802DF7DB601CC4B2082CE3DB70BDB6
:1003400008B50121042000F023F9A020ADF8000039
:1003500010208DF8030003208DF8020069465448F0
:10036000FFF7F7FEA0215248FFF780FF0121082088
:1003700000F00EF90320ADF8000010208DF8030006
:1003800003208DF8020069464A48FFF7E2FE032188
:100390004848FFF76BFF01214648FFF767FF6420DD
:1003A00000F07EFD01214348FFF75EFFC82000F00A
:1003B00077FD01213F48FFF759FF0021AE2000F0F3
:1003C00093F80021084600F08FF80021102000F07B
:1003D0008BF80021402000F087F80021812000F0F8
:1003E00083F80021CF2000F07FF80021A12000F049
:1003F0007BF80021C82000F077F80021A62000F04B
:1004000073F80021A82000F06FF800213F2000F0D1
:100410006BF80021D32000F067F80021084600F0B7
:1004200063F80021D52000F05FF80021802000F063
:100430005BF80021D92000F057F80021F12000F0EE
:1004400053F80021DA2000F04FF80021122000F0CC
:100450004BF80021DB2000F047F80021402000F09D
:1004600043F80021202000F03FF80021022000F096
:100470003BF800218D2000F037F80021142000F017
:1004800033F80021A42000F02FF80021A62000F06E
:100490002BF80021AF2000F027F80021AF2000F05A
:1004A00023F8FFF72DFF0021084600F005F808BDEE
:1004B00000080140000C014070B504460D4605F1EE
:1004C000B001C8B2002100F00FF8102141EA141069
:1004D000002100F009F804F00F0141F001000021B3
:1004E00000F002F870BD000070B504460E4626B15B
:1004F00002211448FFF7BAFE03E002211148FFF77A
:10050000B3FE002517E020210F48FFF7ADFE04F0F1
:10051000800020B180210C48FFF7A8FE03E0802175
:100520000948FFF7A1FE20210748FFF79FFE60065C
:10053000040E681CC5B2082DE5DB02210148FFF757
:1005400095FE70BD000C014000080140704700009E
:1005500029B1064AD2690243044BDA6104E0034A36
:10056000D2698243014BDA617047000000100240FB
:1005700029B1064A12690243044B1A6104E0034A96
:1005800012698243014B1A6170470000001002405B
:1005900029B1064A92690243044B9A6104E0034A76
:1005A00092698243014B9A6170470000001002403B
:1005B00029B1064AD2680243044BDA6004E0034AD8
:1005C000D2688243014BDA6070470000001002409D
:1005D00030B500210022002400232D4D6D6805F068
:1005E0000C0121B1042905D0082923D105E0294DAA
:1005F000056022E0274D05601FE0254D6D6805F47C
:100600007012234D6D6805F48034022505EB92428B
:100610001CB9214D554305600BE01D4D6D6805F477
:1006200000351DB11C4D5543056002E0194D554381
:10063000056002E0174D056000BF00BF144D6D68F6
:1006400005F0F0010909154D6B5C0568DD4045605A
:100650000F4D6D6805F4E061090A104D6B5C45684B
:10066000DD4085600A4D6D6805F46051C90A0B4D87
:100670006B5C4568DD40C560054D6D6805F4404123
:10068000890B074D6B5CC568B5FBF3F5056130BDA3
:100690000010024000127A0000093D001400002002
:1006A00024000020704710B500F002F810BD0000D3
:1006B0000CB50020019000903348006840F4803071
:1006C0003149086000BF3048006800F400300090F5
:1006D0000198401C0190009818B90198B0F5A06FDE
:1006E000F1D12948006800F4003010B101200090D9
:1006F00001E0002000900098012843D123480068C1
:1007000040F01000214908600846006820F003000E
:1007100008600846006840F0020008601A48406817
:10072000194948600846406848600846406840F4F7
:10073000806048600846406820F47C1048600846A5
:10074000406840F4E81048600846006840F0807057
:10075000086000BF0C48006800F000700028F9D065
:100760000948406820F0030007494860084640688F
:1007700040F00200486000BF0348406800F00C00F1
:100780000828F9D10CBD00000010024000200240F2
:10079000042808D14FF0E021096941F004014FF02D
:1007A000E022116107E04FF0E021096921F0040126
:1007B0004FF0E022116170477047000070B50546A8
:1007C0000420FFF7E5FF0F4800680F49B0FBF1F088
:1007D0000E4908700B4800680B49B0FBF1F44FF468
:1007E0007A7044434FF0E020006940F002004FF07F
:1007F000E021086108464461006940F00100086199
:1008000070BD00000000002040420F0028000020C2
:1008100010B51348006840F001001149086008460F
:100820004068104908400E494860084600680E4973
:1008300008400B4908600846006820F480200860E2
:100840000846406820F4FE0048604FF41F008860AE
:10085000FFF729FF4FF000600449086010BD000059
:10086000001002400000FFF8FFFFF6FE08ED00E078
:1008700010B50121044800F055F818B101210248D3
:1008800000F041F810BD0000000400407FB50446B0
:100890000D4601210220FFF75BFE184800F05CF8CE
:1008A000ADF80850ADF804400020ADF80A008DF80E
:1008B0000C00ADF8060001A9104800F053F8012122
:1008C0000E4800F01DF8012211460C4800F03BF8DC
:1008D0004FF4A060FFF70AFD1D208DF800000120F5
:1008E0008DF801008DF802008DF803006846FFF7CF
:1008F000C5FC0121014800F009F87FBD000400405B
:10090000CA4302827047CA430282704721B10288FB
:1009100042F00102028004E002884FF6FE731A40A2
:100920000280704730B50246002000230024158A5B
:1009300005EA0103958905EA010413B10CB1012010
:1009400000E0002030BD1AB183890B43838102E0AF
:1009500083898B438381704701894FF6F872114078
:1009600001817047002202881D4B98420ED01D4B1A
:1009700098420BD0B0F1804F08D01B4B984205D065
:100980001A4B984202D01A4B984204D14FF68F73FB
:100990001A404B881A43174B984207D0164B98427F
:1009A00004D04FF6FF431A40CB881A4302808B884D
:1009B00083850B8803850A4B98420BD0094B9842DC
:1009C00008D00E4B984205D00D4B984202D00D4BEB
:1009D000984201D10B7A038601238382704700007D
:1009E000002C014000340140000400400008004099
:1009F000000C004000100040001400400040014086
:100A000000440140004801400B49D1F80412B1F5FF
:100A1000007F04D30021084AC2F804120AE0064904
:100A2000D1F80422D1F80412491C034BC3F8041274
:100A300019468854704700003400002010B500BFEC
:100A400040F225510C4800F0DDF830B10A4800F0C2
:100A500095F9C4B22046FFF7D7FF40F2244106487B
:100A600000F0D0F838B1044800F088F9C4B2012091
:100A7000024981F8080210BD00380140340000200E
:100A800010B500BF40F225510C4800F0BBF830B162
:100A90000A4800F073F9C4B2204600F01FFB40F290
:100AA0002441064800F0AEF838B1044800F066F979
:100AB000C4B20120024981F8080210BD0044004080
:100AC0004002002010B500BF40F225510C4800F054
:100AD00099F830B10A4800F051F9C4B2204600F04C
:100AE00013F840F22441064800F08CF838B104486D
:100AF00000F044F9C4B20120024981F8080210BD97
:100B0000004800404C0400200B49D1F80412B1F514
:100B1000007F04D30021084AC2F804120AE0064903
:100B2000D1F80422D1F80412491C034BC3F8041273
:100B300019468854704700004C04002001F40072EC
:100B4000B2F5007F00D100BFCA430280704721B1D7
:100B5000828942F40052828104E082894DF6FF735B
:100B60001A4082817047000010B504462048844234
:100B700009D101218803FFF71BFD00214FF48040BC
:100B8000FFF716FD32E01B48844209D101214804D9
:100B9000FFF7EEFC00214FF40030FFF7E9FC25E001
:100BA0001548844209D101218804FFF7E1FC0021A6
:100BB0004FF48020FFF7DCFC18E01048844209D194
:100BC0000121C804FFF7D4FC00214FF40020FFF7F7
:100BD000CFFC0BE00A48844208D101210805FFF749
:100BE000C7FC00214FF48010FFF7C2FC10BD0000CD
:100BF000003801400044004000480040004C0040E4
:100C00000050004070B5024600240023002500205B
:100C100040F66A16B14200D100BFC1F3421501F09F
:100C20001F03012606FA03F3012D02D196893340F2
:100C300006E0022D02D1168A334001E0968A334045
:100C40000C12012606FA04F41688344013B10CB1D4
:100C5000012000E0002070BDF0B50346002400260E
:100C60000025002040F66A17B94200D100BF18469F
:100C7000C1F3421401F01F06012707FA06F5012C03
:100C800001D10C3004E0022C01D1103000E014300E
:100C90001AB107682F43076002E00768AF43076097
:100CA000F0BD00002DE9F04786B005460E46002451
:100CB000A24600BFA1460027B08900B100BF2F4661
:100CC0002C8A4CF6FF700440F08804432C82AC89D7
:100CD0004EF6F3100440B088318908437189084307
:100CE0000443AC81AC8A4FF6FF400440B089044312
:100CF000AC8201A8FFF76CFC1F48874202D1DDF8E7
:100D000010A001E0DDF80CA0A88900F4004040B17B
:100D10000AEBCA0000EB0A1031684900B0FBF1F899
:100D200007E00AEBCA0000EB0A1031688900B0FB4B
:100D3000F1F86420B8FBF0F004012009642101FB04
:100D40001089A88900F4004040B1322000EBC900AE
:100D5000B0FBF1F000F00700044308E0322000EBA4
:100D600009106421B0FBF1F000F00F0004432C8166
:100D700006B0BDE8F08700000038014001468888D1
:100D8000C0F30800704700BFFEE700000FB4054B3A
:100D900010B503A9044A029800F017F810BC5DF8DA
:100DA00014FB0000010F00082C00002002E008C81E
:100DB000121F08C1002AFAD170477047002001E0D5
:100DC00001C1121F002AFBD170472DE9F84F994647
:100DD000924688460546002706E025280AD0514657
:100DE0004A4690476D1C7F1C28780028F5D138466C
:100DF000BDE8F88F002315F8011F18462E2915D1DC
:100E000015F8011F04232A290DD06FF02F0229782D
:100E1000A1F13004092C09D800EB800002EB40005E
:100E200008446D1CF3E758F8040B6D1C2A78002A5F
:100E3000DDD0632A07D0732A0FD0104651464A46A8
:100E400090477F1C2AE018F8042B8DF80020002121
:100E50008DF801106E46012103E058F8046B4FF045
:100E6000FF315A074FF0000401D409E0641C8442AA
:100E70000BDA8C42FADB325D002AF7D105E0641C04
:100E80008C42FCDB305D0028F9D1274404E016F8E1
:100E9000010B51464A469047641EF8D26D1CA3E7E9
:100EA00030B50446002504E04FF47A7000F004F8F1
:100EB0006D1CA542F8D330BD70B5034600224FF03B
:100EC000E02675690D4E367803FB06F44FF0E026F8
:100ED000B16910E04FF0E026B06988420BD088423B
:100EE00002D20E1A324402E02E1A0E443244014657
:100EF000A24200D300E0EDE700BF70BD2800002053
:100F000000BF054A128802F04002002AF9D0C2B29E
:100F1000014B1B1D1A807047003801404FF4A06040
:100F2000FFF7E4F94820FFF749FC4FF4E13000F007
:100F30001DF80AA0FFF72AFF4FF4E13000F074F823
:100F40004FF4E13000F0E4F8FFF7FAF940F2E7314E
:100F500041F61F40FFF79AFC00BFFEE75553415290
:100F60005431204F4B210D0A0000000010B586B00F
:100F70000446012144F20400FFF70AFB2848FFF76A
:100F8000F3FD4FF40070ADF8140003208DF8160047
:100F900018208DF8170005A92248FFF7DAF84FF45A
:100FA0008060ADF8140048208DF8170005A91D4891
:100FB000FFF7CFF801940020ADF80800ADF80A0063
:100FC000ADF80C00ADF810000C20ADF80E0001A932
:100FD0001348FFF767FE01211148FFF7B8FD012212
:100FE00040F225510E48FFF737FE012240F224411E
:100FF0000B48FFF731FE40210948FFF79FFD2520F0
:101000008DF8000003208DF801008DF8020001200A
:101010008DF803006846FFF731F906B010BD0000F7
:10102000003801400008014010B586B00446012197
:101030000420FFF7ADFA01214804FFF789FA25489B
:10104000FFF792FD0420ADF8140003208DF8160080
:1010500018208DF8170005A91F48FFF77AF8082017
:10106000ADF8140004208DF8170005A91A48FFF701
:1010700070F801940020ADF80800ADF80A00ADF852
:101080000C00ADF810000C20ADF80E0001A91148BD
:10109000FFF708FE01210F48FFF759FD012240F23A
:1010A00025510C48FFF7D8FD012240F224410948A0
:1010B000FFF7D2FD26208DF8000000208DF80100FA
:1010C00001208DF802008DF803006846FFF7D6F87E
:1010D00006B010BD00440040000801400B49D1F8A3
:1010E0000412B1F5007F04D30021084AC2F80412AB
:1010F0000AE00649D1F80422D1F80412491C034B36
:10110000C3F80412194688547047000040020020BA
:1011100010B586B0044601210820FFF739FA0121F5
:101120008804FFF715FA2848FFF71EFD4FF480608A
:10113000ADF8140003208DF8160018208DF8170064
:1011400005A92248FFF705F84FF40060ADF8140038
:1011500004208DF8170005A91C48FEF7FAFF01943A
:101160000020ADF80800ADF80A00ADF80C00ADF8AD
:1011700010000C20ADF80E0001A91348FFF792FDF6
:1011800001211148FFF7E3FC012240F225510E48EE
:10119000FFF762FD012240F224410B48FFF75CFD9E
:1011A00040210948FFF7CAFC27208DF800000020E5
:1011B0008DF801008DF8020001208DF803006846CB
:1011C000FFF75CF806B010BD00480040000C01407D
:1011D000F01100080000002034000000AC0D0008F1
:1011E0002412000834000020240A0000BC0D00086E
:1011F00000A24A04000000000000000001020304F5
:1012000006070809000000000102030401020304AC
:10121000060708090204060800000000000000009C
:0412200000000000CA
:04000005080000ED02
:00000001FF
