:020000040800F2
:100000002009002001010008390F00088D0D0008AB
:10001000350F00080D040008EF1A0008000000006A
:100020000000000000000000000000005D14000857
:100030005509000800000000291200088116000878
:100040001B0100081B0100081B0100081B01000820
:100050001B0100081B0100081B0100081B01000810
:100060001B0100081B0100081B0100081B01000800
:100070001B0100081B0100081B0100081B010008F0
:100080001B0100081B0100081B0100081B010008E0
:100090001B0100081B0100081B0100081B010008D0
:1000A0001B0100081B0100081B0100081B010008C0
:1000B0001B0100081B0100081B0100081B010008B0
:1000C0001B0100081B0100081B0100081B010008A0
:1000D0001B010008F5170008391800081B0100086B
:1000E0001B0100081B0100081B010008DFF80CD0F1
:1000F00000F07CF800480047452000082009002057
:100100000648804706480047FEE7FEE7FEE7FEE7B1
:10011000FEE7FEE7FEE7FEE7FEE7FEE7D91600088A
:10012000ED000008D2B201E000F8012B491EFBD21D
:1001300070470022F6E710B513460A4604461946F2
:10014000FFF7F0FF204610BD30B505462A460B46A6
:1001500012F8010B13F8014B08B1A042F8D01CB102
:10016000002802D06D1CF1E7284630BD30B50546A9
:100170000020034600E05B1C934205D2EC5CC85CA7
:10018000201A01D1002CF6D130BD2DE9F05F0546D3
:10019000002092469B4688460646814640241BE046
:1001A000284641464746224600F041F853465A4603
:1001B000C01A914110D311461846224600F028F883
:1001C0002D1A67EB01084F4622460120002100F05E
:1001D0001FF817EB00094E41201EA4F10104DFDCDB
:1001E000484631462A464346BDE8F09F064C074D37
:1001F00006E0E06840F0010394E8070098471034F7
:10020000AC42F6D3FFF776FF644700088447000846
:10021000202A04DB203A00FA02F1002070479140C6
:10022000C2F1200320FA03F3194390407047202ABB
:1002300004DB203A21FA02F00021704721FA02F390
:10024000D040C2F12002914008431946704721B1C5
:10025000826842F00102826003E0826822F00102BB
:100260008260704721B1826842F48072826003E04C
:10027000826822F4807282607047014600208A689A
:1002800002F004020AB1012000E00020704701469C
:1002900000208A6802F008020AB1012000E0002074
:1002A0007047000030B502460020002350680F4C14
:1002B00020400D790C6844EA052420435060906882
:1002C0000B4C2040D1E902542C434D7944EA4504BB
:1002D00020439060D06A20F470000C7C641EE4B26D
:1002E000234340EA0350D06230BD0000FFFEF0FF20
:1002F000FDF7F1FFF0B504460D4600200021092D61
:1003000011DDE068A5F10A0606EB4607072606FAA6
:1003100007F18843A5F10A0606EB460603FA06F143
:100320000843E0600CE0206905EB4507072606FA64
:1003300007F1884305EB450603FA06F108432061FF
:10034000072A0FDA606B561E06EB86071F2606FA91
:1003500007F18843561E06EB860605FA06F10843A8
:10036000606322E00D2A0FDA206BD61F06EB8607AA
:100370001F2606FA07F18843D61F06EB860605FA04
:1003800006F10843206310E0E06AA2F10D0606EBD7
:1003900086071F2606FA07F18843A2F10D0606EB31
:1003A000860605FA06F10843E062F0BD816841F077
:1003B00008018160704721B1826842F4A002826026
:1003C00003E0826822F4A00282607047816841F0F5
:1003D000040181607047000010B50948007870B1D1
:1003E00008480088B0F5966F06DA0748007818B11B
:1003F000012001F01FF802E0002001F01BF810BD01
:10040000280000202C0000202E00002000BFFEE766
:1004100008B50121084600F045FF0121124800F00F
:10042000CFFB0121082000F03DFF2020ADF80000A7
:1004300010208DF8030003208DF8020069460B4858
:1004400000F032FB1020ADF800008DF8030003200F
:100450008DF802006946054800F026FB0A2001F0ED
:10046000B3FD01F0E9F808BD00023000000C0140C6
:1004700010B500F0C3F810BD10B50446204601F0D9
:10048000FDF910BD08B50121042000F00BFFB020DC
:10049000ADF8000010208DF8030003208DF8020055
:1004A0006946544800F000FBB021524800F0DBFBE5
:1004B0000121082000F0F6FE0120ADF80000102018
:1004C0008DF8030003208DF8020069464A4800F0C9
:1004D000EBFA0121484800F0C6FB1021454800F026
:1004E000C2FB642001F070FD1021424800F0B9FB0E
:1004F000C82001F069FD10213E4800F0B4FB002146
:10050000AE2000F05FFE0021084600F05BFE0021F7
:10051000102000F057FE0021402000F053FE002183
:10052000812000F04FFE0021CF2000F04BFE002183
:10053000A12000F047FE0021C82000F043FE00216A
:10054000A62000F03FFE0021A82000F03BFE002185
:100550003F2000F037FE0021D32000F033FE0021C1
:10056000084600F02FFE0021D52000F02BFE0021D0
:10057000802000F027FE0021D92000F023FE00217A
:10058000F12000F01FFE0021DA2000F01BFE002108
:10059000122000F017FE0021DB2000F013FE0021E6
:1005A000402000F00FFE0021202000F00BFE002173
:1005B000022000F007FE00218D2000F003FE002144
:1005C000142000F0FFFD0021A42000F0FBFD00211D
:1005D000A62000F0F7FD0021AF2000F0F3FD002180
:1005E000AF2000F0EFFD00F0EBFC0021084600F02A
:1005F00007FD08BD00080140000C014010B50020B7
:100600000549C1F8040281F808024FF4007102485C
:10061000FFF78FFD10BD00001403002008B5012175
:10062000042000F03FFE4FF48050ADF80000102091
:100630008DF8030003208DF802006946014800F0A0
:1006400033FA08BD0008014010B5FFF7E7FF4FF48B
:100650008051024800F007FB10BD00000008014077
:1006600008B54FF48050ADF8000048208DF8030025
:100670006946024800F018FA08BD00000008014071
:1006800008B54FF48050ADF8000010208DF803003D
:1006900003208DF802006946014800F005FA08BD04
:1006A0000008014070B50025002427E000BF4FF48A
:1006B0008051144800F0CCFA0028F8D0282001F02E
:1006C0008FFC4FF480510F4800F0C2FA01280ED180
:1006D00000BF4FF480510B4800F0BAFA0128F8D05F
:1006E000C4F1070101208840C0B2054304E0C4F111
:1006F0000701012088408543601CC4B2082CD5DB6B
:10070000284670BD0008014010B50446FFF7B8FF49
:100710004FF48051264800F0A4FA122001F054FC56
:100720004FF48051224800F09EFA1E2001F058FC40
:10073000FFF796FF4FF480511D4800F089FA88BBFF
:1007400000BF4FF480511A4800F082FA0028F8D018
:1007500000BF4FF48051164800F07AFA0128F8D013
:10076000FFF7A0FF2070FFF79DFF6070FFF79AFF73
:10077000A070FFF797FFE070FFF794FF2071FFF77D
:100780007FFF4FF480510A4800F06DFA20786178BD
:100790000844A1780844E17808442179884202D1CC
:1007A000012010BD01E00020FBE70020F9E7000078
:1007B0000008014021B1026842F00102026004E039
:1007C00002684FF6FE731A400260704701684FF6E8
:1007D000FE72114001600021016041608160C160D2
:1007E0004B49884208D14A490839496841F00F010C
:1007F000474A083A51608AE045491431884208D195
:1008000043490839496841F0F001414A083A5160CA
:100810007DE03F492831884208D13D49083949687F
:1008200041F470613A4A083A516070E038493C310D
:10083000884208D136490839496841F47041344A40
:10084000083A516063E032495031884208D130495A
:100850000839496841F470212D4A083A516056E040
:100860002B496431884208D129490839496841F443
:100870007001274A083A516049E025497831884299
:1008800008D123490839496841F07061204A083A83
:1008900051603CE01F49884206D1011F096841F0C0
:1008A0000F01021F116032E01A491431884208D149
:1008B0001849091F096841F0F001164A121F11601A
:1008C00025E014492831884208D11249091F0968D6
:1008D00041F470610F4A121F116018E00D493C315C
:1008E000884208D10B49091F096841F47041094A3F
:1008F000121F11600BE007495031884207D10549AA
:10090000091F096841F47021024A121F11607047E3
:10091000080002400804024010B50022026847F6B1
:10092000F0739A430C6A8B6823430C6923434C6928
:1009300023438C692343CC6923434C6A23438C6A49
:1009400023431A430260CB6843600B6883604B68A3
:10095000C36010BD704700001CB526A200210846E8
:1009600000F0F8FB27A20221002000F0F3FB2A4848
:10097000407829490978CDE900102748C378827862
:1009800026A12A4801F0C6F8284A0221002000F0DA
:10099000E1FB1CA20421002000F0DCFB24480388BA
:1009A0002448028824A1214801F0B4F81F4A0421F8
:1009B000002000F0CFFB13A20621002000F0CAFBAC
:1009C0002048007808B120A000E021A00090214834
:1009D000007808B120A000E020A00346204802785B
:1009E00020A1124801F096F8104A0621002000F0DC
:1009F000B1FB1CBD43495459204E4F444520412072
:100A00002020200020202020202020202020202006
:100A100020202020000000003C000020543A2564E3
:100A20002E256420483A25642E256400E800002025
:100A30002C0000202A000020533A2575204C3A252E
:100A400075000000280000204155544F00000000B0
:100A50004D414E00290000204F4E00004F464600F9
:100A60002E000020503A257520523A257320257318
:100A70000000000008B50121082000F013FC8020D0
:100A8000ADF8000010208DF8030003208DF802005F
:100A90006946044800F008F88020024910310860D7
:100AA00008BD0000000C01402DE9F0410246002580
:100AB0000026002000230024002791F803C00CF03A
:100AC0000F0591F803C00CF0100CBCF1000F03D01F
:100AD00091F802C04CEA050591F800C0BCF1000F86
:100AE00031D0146800202BE04FF0010C0CFA00F319
:100AF000B1F800C00CEA03069E4220D183004FF0FB
:100B00000F0C0CFA03F7BC4305FA03FC4CEA04048F
:100B100091F803C0BCF1280F06D14FF0010C0CFA7C
:100B200000FCC2F814C00AE091F803C0BCF1480F01
:100B300005D14FF0010C0CFA00FCC2F810C0401CAB
:100B40000828D1D31460B1F800C0BCF1FF0F34DD28
:100B5000546800202EE000F1080C4FF0010808FA5C
:100B60000CF3B1F800C00CEA03069E4221D18300C9
:100B70004FF00F0C0CFA03F7BC4305FA03FC4CEAE8
:100B8000040491F803C0BCF1280F05D100F1080C52
:100B900008FA0CF8C2F8148091F803C0BCF1480FB1
:100BA00007D100F1080C4FF0010808FA0CF8C2F860
:100BB0001080401C0828CED35460BDE8F0810000AE
:100BC000F0B50A46002300240021002500F000466D
:100BD000B6F1004F02D11D4EF16901E01B4E716864
:100BE000C0F3034583B200F44016B6F5401F08D1A8
:100BF00021F07061154E766826F07066134F7E60A6
:100C000012E000F48016B6F5801F06D1032606FA1E
:100C100005F4A14341F0706106E0460D360103FA88
:100C200006F6B14341F0706122B1460D360103FA78
:100C300006F6314300F00046B6F1004F02D1034EF4
:100C4000F16101E0014E7160F0BD00000000014063
:100C50000246002093680B400BB1012000E0002009
:100C600070474161704701617047000010B504464C
:100C7000022227A12046FFF779FA10B90020254962
:100C8000086025A12046FFF75FFA00B110BD24A13E
:100C90002046FFF759FA40B1012024490870FFF7B8
:100CA0009BFB23A000F0DCFB2FE024A12046FFF7F4
:100CB0004BFA30B100201D49087023A000F0D0FB92
:100CC00023E024A12046FFF73FFA48B1002017494E
:100CD0000870012000F0AEFB21A000F0C1FB14E081
:100CE00022A12046FFF730FA40B100200F490870DA
:100CF00000F0A0FB20A000F0B3FB06E021A12046FD
:100D0000FFF722FA08B100F0DBFB00BFBEE70000EE
:100D1000422C00003000002050494E4700000000E7
:100D20004D4F44453D4155544F00000028000020E0
:100D30004D4F44455F4155544F0000004D4F4445D1
:100D40003D4D414E55414C004D4F44455F4D414E48
:100D500055414C004C494748543D4F4E000000005F
:100D60004C494748545F4F4E000000004C494748EB
:100D7000543D4F46460000004C494748545F4F469B
:100D800046000000535441545553000000BFFEE795
:100D900008B50121042000F085FA04208DF8030035
:100DA00003208DF802000120ADF8000069460248DA
:100DB000FFF77AFE08BD00000008014008B50121D8
:100DC000082000F06FFA4FF48070ADF8000010209A
:100DD0008DF8030003208DF8020069460448FFF7F0
:100DE00063FE4FF4807002491031086008BD0000B6
:100DF000000C014000B591B00121084600F022FA34
:100E00003848FFF7E3FC3848069038480790002040
:100E100008900220099000200A9080200B9040004A
:100E20000C9080000D9020200E9000020F9000206A
:100E3000109006A92B48FFF76FFD01212948FFF705
:100E4000B9FC0121480200F02DFA00200190012098
:100E50008DF808008DF809004FF460200390002001
:100E6000049002208DF8140001A91F484C38FFF7A8
:100E700019FA4FF4404000F0D9F905230122114638
:100E800019484C38FFF736FA052302220621164886
:100E90004C38FFF72FFA012113484C38FFF7E2F9DD
:100EA000012111484C38FFF7D2F90F484C38FFF7B1
:100EB0007DFA00BF0C484C38FFF7E9F90028F9D15A
:100EC00009484C38FFF782FA00BF07484C38FFF753
:100ED000D4F90028F9D1012103484C38FFF76BFA07
:100EE00011B000BD080002404C2401404200002027
:100EF00008B50121042000F0D5F94220ADF800002A
:100F000000208DF8030069460148FFF7CDFD08BDBC
:100F10000008014010B5FFF7EBFFFFF76BFF10BDB6
:100F200010B5FFF735FFFFF749FFFFF7A3FD00F00E
:100F300067FA10BD00BFFEE77047000070B50021E2
:100F400000230F22C47804B3154C246804F4E06431
:100F5000C4F5E064210AC1F10403CA40447804FAEC
:100F600003F184781440214309010E4C0678A15501
:100F7000047804F01F050124AC4005786D11AD0024
:100F800005F1E025C5F8004109E0047804F01F05EB
:100F90000124AC40044D0678761145F8264070BD1A
:100FA0000CED00E000E400E080E100E002490143D4
:100FB000024A1160704700000000FA050CED00E0E5
:100FC00070B5002419E004F1B001C8B2002100F0AE
:100FD000F9F80021084600F0F5F80021102000F093
:100FE000F1F8002505E00121002000F0EBF8681C75
:100FF000C5B2802DF7DB601CC4B2082CE3DB70BDEA
:1010000070B504460D4605F1B001C8B2002100F0EC
:10101000D9F8102141EA1410002100F0D3F804F0AF
:101020000F0141F00100002100F0CCF870BD00007C
:101030002DE9F04781460F4616464FF0D50A0024A9
:1010400049E004EB0410264911F810003178884279
:101050003ED104EB0410224901EB40004078717846
:10106000884235D14FF0000839464846FFF7C8FF9F
:1010700000250FE004EB0411194A02EB4101891C21
:10108000485D012100F09EF808F1010000F0FF0822
:10109000681CC5B2102DEDDB781CC1B24846FFF7C5
:1010A000AFFF002511E004EB04110D4A02EB4101F2
:1010B000891C05F11002885C012100F083F808F119
:1010C000010000F0FF08681CC5B2102DEBDB00BF6B
:1010D00000BF601C84B25445B3DBBDE8F08700005C
:1010E000182B00082DE9F04107460E4690460025D2
:1010F0000024A8F12000C5B27F2F02DD0027B01C1C
:10110000C6B231463846FFF77BFF002408E004EB07
:1011100005110F4A505C012100F054F8601CC4B264
:10112000082CF4DB701CC1B23846FFF769FF0024BD
:1011300009E004EB05110831054A505C012100F07B
:1011400041F8601CC4B2082CF3DBBDE8F08100005C
:10115000282500082DE9F04105460F4616460024D3
:10116000A04629E0B8F1000F15D1305D802802DDDE
:101170004FF0010820E0325D39462846FFF7B2FF04
:1011800005F10800C5B2782D02DD0025B81CC7B2F4
:10119000601CC4B210E04FF00008321939462846EE
:1011A000FFF746FF05F11000C5B2722D02DD0025E4
:1011B000B81CC7B2A01CC4B2305D0028D2D1BDE8B3
:1011C000F081000070B504460E4626B10121144896
:1011D000FFF749FD03E001211148FFF742FD00251B
:1011E00017E020210F48FFF73CFD04F0800020B1FC
:1011F00080210C48FFF737FD03E080210948FFF705
:1012000030FD20210748FFF72EFD6006040E681C04
:10121000C5B2082DE5DB01210148FFF724FD70BDB3
:10122000000C01400008014070470000014600200A
:10123000034A506820F44040084350607047000063
:101240000010024029B1064A52690243044B5A6118
:1012500004E0034A52698243014B5A61704700001F
:101260000010024029B1064AD2690243044BDA61F8
:1012700004E0034AD2698243014BDA6170470000FF
:101280000010024029B1064A12690243044B1A6158
:1012900004E0034A12698243014B1A61704700005F
:1012A0000010024029B1064A92690243044B9A6138
:1012B00004E0034A92698243014B9A61704700003F
:1012C0000010024029B1064AD2680243044BDA609A
:1012D00004E0034AD2688243014BDA6070470000A1
:1012E0000010024030B500210022002400232D4DC3
:1012F0006D6805F00C0121B1042905D0082923D11E
:1013000005E0294D056022E0274D05601FE0254DD1
:101310006D6805F47012234D6D6805F48034022564
:1013200005EB92421CB9214D554305600BE01D4D64
:101330006D6805F400351DB11C4D5543056002E094
:10134000194D5543056002E0174D056000BF00BF11
:10135000144D6D6805F0F0010909154D6B5C0568C9
:10136000DD4045600F4D6D6805F4E061090A104DE0
:101370006B5C4568DD4085600A4D6D6805F4605121
:10138000C90A0B4D6B5C4568DD40C560054D6D6855
:1013900005F44041890B074D6B5CC568B5FBF3F55F
:1013A000056130BD0010024000127A0000093D00C6
:1013B000140000202400002010B50B4800880B49C1
:1013C0000880094840880A49088001210948FFF738
:1013D0003FFC094908700948FFF796F9FEF7FCFF42
:1013E000FFF7BAFA10BD0000420000202A000020DA
:1013F0002C000020000801402E0000203C000020AE
:1014000008B501210820FFF74DFF0420ADF80000CA
:1014100014208DF8030003208DF80200694604486B
:10142000FFF742FB042002491031086008BD0000AC
:10143000000C014030B10421064A11600121064A26
:10144000117006E00421034A121F11600021024AB4
:1014500011707047140C01402900002070470000F3
:1014600038B504460848007808B108A000E009A093
:1014700000900A480378224609A1104800F04AFB70
:101480000E48FEF7F9FF38BD280000204155544FA3
:10149000000000004D414E55414C00002900002045
:1014A000412C41434B3D25732C52454C41593D2520
:1014B000752C4D4F44453D25730D0A004800002012
:1014C00000B587B00E4800780E4909780E4A128898
:1014D0000E4B1B88CDE90232CDE904100C48407850
:1014E0000B490978CDE900100948C378827809A131
:1014F000164800F00FFB1548FEF7BEFF07B000BD11
:10150000290000202E0000202C0000202A000020AE
:101510003C000020412C543D25642E25642C483D80
:1015200025642E25642C534D4F4B453D25752C4C81
:10153000494748543D25752C5049523D25752C523C
:10154000454C41593D25750D0A000000480000201A
:1015500010B500F001F810BD0CB50020019000900E
:101560003348006840F480303149086000BF30489B
:10157000006800F4003000900198401C0190009831
:1015800018B90198B0F5A06FF1D12948006800F4AE
:10159000003010B10120009001E000200090009880
:1015A000012843D12348006840F010002149086019
:1015B0000846006820F0030008600846006840F014
:1015C000020008601A4840681949486008464068A7
:1015D00048600846406840F48060486008464068BB
:1015E00020F47C1048600846406840F4E8104860E9
:1015F0000846006840F08070086000BF0C48006832
:1016000000F000700028F9D00948406820F003007D
:10161000074948600846406840F00200486000BF43
:101620000348406800F00C000828F9D10CBD000008
:10163000001002400020024010B50A2000F0C4FC57
:1016400020210448FFF70DFB10210248FFF709FB9A
:1016500010BD0000000C0140042808D14FF0E0212B
:10166000096941F004014FF0E022116107E04FF0F9
:10167000E021096921F004014FF0E0221161704777
:101680007047000070B505460420FFF7E5FF0F48DE
:1016900000680F49B0FBF1F00E4908700B48006874
:1016A0000B49B0FBF1F44FF47A7044434FF0E02063
:1016B000006940F002004FF0E021086108464461F3
:1016C000006940F00100086170BD000000000020CA
:1016D00040420F003400002010B51348006840F06D
:1016E00001001149086008464068104908400E4949
:1016F0004860084600680E4908400B4908600846E3
:10170000006820F4802008600846406820F4FE004D
:1017100048604FF41F008860FFF71AFF4FF0006029
:101720000449086010BD0000001002400000FFF8EE
:10173000FFFFF6FE08ED00E0F0B503460C4600257D
:10174000262000F01F070126BE401B4F4FEA501C09
:1017500047F82C6000BF194890F80802E8B1174814
:10176000D0F80402C8B11548B0F8040282B2A2420F
:1017700001DB601E82B2002104E01048405C585436
:10178000481C81B29142F8DB0020985401250B4E91
:10179000C6F8040286F808023070262000F01F0701
:1017A0000126BE404709BF0007F1E027C7F80061E6
:1017B00000BF2846F0BD000080E100E014030020D7
:1017C0000B49D1F80412B1F5007F04D30021084A77
:1017D000C2F804120AE00649D1F80422D1F8041232
:1017E000491C034BC3F80412194688547047000083
:1017F0000801002010B500BF40F225510C4800F050
:10180000B5F830B10A4800F06DF9C4B22046FFF7D0
:10181000D7FF40F22441064800F0A8F838B1044848
:1018200000F060F9C4B20120024981F8080210BD3D
:10183000003801400801002010B500BF40F22551DA
:101840000C4800F093F830B10A4800F04BF9C4B2EC
:10185000204600F03BFD40F22441064800F086F8A7
:1018600038B1044800F03EF9C4B20120024981F8C1
:10187000080210BD00440040140300200BE000BF2C
:101880000749098801F040010029F9D00178044A8C
:10189000121D1180401C01780029F0D17047000012
:1018A0000044004001F40072B2F5007F00D100BF97
:1018B000CA430280704721B1828942F4005282817A
:1018C00004E082894DF6FF731A4082817047000060
:1018D00010B504462048844209D101218803FFF74E
:1018E000F1FC00214FF48040FFF7ECFC32E01B4894
:1018F000844209D101214804FFF7C4FC00214FF4C0
:101900000030FFF7BFFC25E01548844209D10121D2
:101910008804FFF7B7FC00214FF48020FFF7B2FCEA
:1019200018E01048844209D10121C804FFF7AAFC3D
:1019300000214FF40020FFF7A5FC0BE00A48844289
:1019400008D101210805FFF79DFC00214FF480100C
:10195000FFF798FC10BD0000003801400044004033
:1019600000480040004C00400050004070B5024666
:10197000002400230025002040F66A16B14200D161
:1019800000BFC1F3421501F01F03012606FA03F35D
:10199000012D02D19689334006E0022D02D1168A2C
:1019A000334001E0968A33400C12012606FA04F413
:1019B0001688344013B10CB1012000E0002070BD46
:1019C000F0B50346002400260025002040F66A17E3
:1019D000B94200D100BF1846C1F3421401F01F06FE
:1019E000012707FA06F5012C01D10C3004E0022C86
:1019F00001D1103000E014301AB107682F4307609E
:101A000002E00768AF430760F0BD00002DE9F04732
:101A100086B005460E460024A24600BFA146002718
:101A2000B08900B100BF2F462C8A4CF6FF700440ED
:101A3000F08804432C82AC894EF6F3100440B08841
:101A400031890843718908430443AC81AC8A4FF65D
:101A5000FF400440B0890443AC8201A8FFF742FC78
:101A60001F48874202D1DDF810A001E0DDF80CA08C
:101A7000A88900F4004040B10AEBCA0000EB0A104C
:101A800031684900B0FBF1F807E00AEBCA0000EB4F
:101A90000A1031688900B0FBF1F86420B8FBF0F05F
:101AA00004012009642101FB1089A88900F4004089
:101AB00040B1322000EBC900B0FBF1F000F00700AC
:101AC000044308E0322000EB09106421B0FBF1F080
:101AD00000F00F0004432C8106B0BDE8F087000041
:101AE0000038014001468888C0F30800704700BFF5
:101AF000FEE700000FB4054B10B503A9044A029895
:101B000000F02CF810BC5DF814FB00002920000840
:101B1000380000200FB4084B10B504A902AA03989E
:101B200000F01CF8044602A9002000F048FA204604
:101B300010BC5DF814FB0000BF1F000802E008C8DD
:101B4000121F08C1002AFAD170477047002001E037
:101B500001C1121F002AFBD1704700002DE9FF4F81
:101B60008DB00F460546002606E025280BD0DDE99E
:101B70000F1290476D1C761C28780028F5D111B003
:101B80003046BDE8F08F0024A246A1460122EC4970
:101B900000E0044315F8013F203B02FA03F008423D
:101BA000F7D128782A2810D06FF02F022878A0F1DA
:101BB0003001092914D80AEB8A0102EB410144F0F3
:101BC000020400EB010A6D1CF0E701CF5FEA000A96
:101BD00003D544F40054CAF1000A44F002046D1C19
:101BE00028782E2817D115F8010F44F004042A286C
:101BF0000ED06FF02F022878A0F1300109290AD801
:101C000009EB890102EB410100EB01096D1CF2E7D0
:101C100057F8049B6D1C28786C280FD006DC4C28E4
:101C200017D068280DD06A2814D104E0742810D089
:101C30007A280FD10DE044F400140AE044F4801433
:101C400001E044F440146978814202D104F5801423
:101C50006D1C6D1C2A786E2A1FD00CDC632A31D0D3
:101C600004DC002A8BD0582A11D1A3E0642A68D062
:101C7000692A0CD165E0732A2ED004DC6F2A73D058
:101C8000702A04D19BE0752A6FD0782A6ED0104656
:101C9000DDE90F129047761C50E1C4F30250022890
:101CA00006D0032809D0042801CF09D0066045E1F9
:101CB00001CFF117C0E9006140E101CF06803DE1AD
:101CC00006703BE117F8040B8DF8000000208DF83A
:101CD0000100EB46012003E057F804BB4FF0FF3052
:101CE00061074FF0000102D40DE008F101018846C0
:101CF00049450FDA8045F8DB1BF808100029F4D1BC
:101D000008E008F1010188468142FADB1BF808105F
:101D10000029F6D1DDE90F23AAEB08008146214610
:101D200000F036F9304400EB080604E0DDE90F125C
:101D30001BF8010B9047B8F10108F7D2214648463D
:101D4000F7E00A21C4F302534FF0000B0891022B75
:101D500004D001CFC117032B09D00AE0FF1D27F0E3
:101D60000707F7E8020108E032E01FE020E000B2D8
:101D7000C117042B01D140B2C117031E71F100033A
:101D800007DA4FF0000CD0EB0C006CEB01012D23B7
:101D900002E0230504D52B238DF82430012303E032
:101DA000E30701D02023F7E7984658E00A2110E026
:101DB00010210EE010204FF0000B08900CE01021D5
:101DC0004FF0000B44F004044FF00809089103E0C1
:101DD00008214FF0000B0891C4F30253022B04D0EA
:101DE00001CF0021032B06D006E0FF1D27F00707D7
:101DF000F7E8020103E080B2042B00D1C0B24FF03B
:101E0000000823072BD5702A07D0DDF820C08CF0FE
:101E1000100C5CEA0B0C05D00EE040238DF824304A
:101E2000012308E050EA010306D030238DF8243066
:101E30008DF8252002239846DDF820C08CF0080C90
:101E40005CEA0B0C0BD150EA010301D1630706D504
:101E500030238DF824304FF00108A9F10109582AE8
:101E600004D038A20B9208AA0A920BE03AA2F9E732
:101E70005B46089AFEF789F90B9B9B5C0A9A521EF7
:101E80000A92137050EA0102F2D10A98ADEB0000F9
:101E900000F1200B600702D524F4803401E04FF0FC
:101EA0000109D94502DDA9EB0B0000E0002000EBA1
:101EB0000B0141440890AAEB010AE00306D4DDE9D6
:101EC0000F232146504600F063F806444FF0000906
:101ED00008E009A911F80900DDE90F12904709F19E
:101EE0000109761CC145F4DBE0030CD5DDE90F23C5
:101EF0002146504600F04CF8064404E0DDE90F129C
:101F000030209047761C0899481E08900029F5DC7F
:101F100008E00A980A990078491C0A91DDE90F1235
:101F20009047761CBBF10001ABF1010BF1DC2146BF
:101F30005046DDE90F2300F019F806446D1C1BE63E
:101F4000092801003031323334353637383961628F
:101F50006364656600000000303132333435363753
:101F60003839414243444546000000002DE9F04124
:101F7000044600251E461746880404D405E0394669
:101F80002020B0476D1C641EF9D52846BDE8F081BD
:101F90002DE9F041044600251E469046C80301D5B0
:101FA000302700E02027880404D505E04146384664
:101FB000B0476D1C641EF9D52846BDE8F0810A685B
:101FC000531C0B601070704730B50446002504E0C8
:101FD0004FF47A7000F004F86D1CA542F8D330BDC0
:101FE00070B5034600224FF0E02675690D4E367835
:101FF00003FB06F44FF0E026B16910E04FF0E02655
:10200000B06988420BD0884202D20E1A324402E0F4
:102010002E1A0E4432440146A24200D300E0EDE7FE
:1020200000BF70BD3400002000BF054A128802F0D6
:102030004002002AF9D0C2B2014B1B1D1A80704722
:1020400000380140A0B000244FF4A060FEF7AEFFBE
:102050004820FFF717FB4FF4E13000F07FF84FF412
:10206000165000F0D9F8FEF70DFAFEF7A9FFFEF7BB
:10207000CFF9FFF7E1FAFEF7FBF96420FFF7A4FFC1
:10208000FEF7E2FA4FF47A70FFF79EFFFEF742FF89
:10209000FEF746FF0020FFF7CDF9FEF75DFC1BA021
:1020A000FFF728FD1EA0FFF725FD2DE080216846E3
:1020B000FFF742FB20B16846FEF7D8FDFEF74CFC67
:1020C000B4F5FA6F04D3FFF777F9FFF7F9F90024B5
:1020D0001420FFF779FF14341E480068B0F5FA5F4A
:1020E00004D21C48006814301A4908601948006876
:1020F000B0F5FA5F08D31848007828B901201649CE
:1021000008700020FFF796F9D0E7000043495459C2
:10211000204E4F444520412052454144590D0A006C
:1021200044485431313D5041313220534D4F4B459D
:102130003D504131204C494748543D504136205094
:1021400049523D5041302052454C41593D50423258
:102150000D0A0000300000202800002010B586B0D5
:102160000446012144F20400FFF79CF82848FFF7D9
:10217000AFFB4FF40070ADF8140003208DF816008B
:1021800018208DF8170005A92248FEF78DFC4FF4A2
:102190008060ADF8140048208DF8170005A91D488F
:1021A000FEF782FC01940020ADF80800ADF80A00AB
:1021B000ADF80C00ADF810000C20ADF80E0001A930
:1021C0001348FFF723FC01211148FFF774FB01229C
:1021D00040F225510E48FFF7F3FB012240F2244163
:1021E0000B48FFF7EDFB40210948FFF75BFB25207B
:1021F0008DF8000003208DF801008DF80200012009
:102200008DF803006846FEF799FE06B010BD000089
:10221000003801400008014010B586B00446012195
:102220000420FFF73FF801214804FFF71BF8254879
:10223000FFF74EFB0420ADF8140003208DF81600C4
:1022400018208DF8170005A91F48FEF72DFC08205F
:10225000ADF8140004208DF8170005A91A48FEF700
:1022600023FC01940020ADF80800ADF80A00ADF899
:102270000C00ADF810000C20ADF80E0001A91148BB
:10228000FFF7C4FB01210F48FFF715FB012240F2C5
:1022900025510C48FFF794FB012240F224410948E4
:1022A000FFF78EFB26208DF8000000208DF801003E
:1022B00001208DF802008DF803006846FEF73EFE0F
:1022C00006B010BD00440040000801400B49D1F8A1
:1022D0000412B1F5007F04D30021084AC2F80412A9
:1022E0000AE00649D1F80422D1F80412491C034B34
:1022F000C3F80412194688547047000014030020E4
:102300000000000000000000002F00000000070097
:10231000070000147F147F1400242A7F2A12006211
:1023200064081323003649552250000005030000BD
:1023300000001C224100000041221C000014083E45
:1023400008140008083E0808000000A0600000080B
:10235000080808080000606000000020100804025F
:10236000003E5149453E0000427F4000004261511D
:102370004946002141454B31001814127F100027B7
:1023800045454539003C4A4949300001710905037A
:1023900000364949493600064949291E00003636AB
:1023A000000000005636000000081422410000140E
:1023B00014141414000041221408000201510906EB
:1023C00000324959513E007C1211127C007F49496C
:1023D0004936003E41414122007F4141221C007F9D
:1023E00049494941007F09090901003E4149497AAB
:1023F000007F0808087F0000417F41000020404125
:102400003F01007F08142241007F40404040007F90
:10241000020C027F007F0408107F003E4141413ED4
:10242000007F09090906003E4151215E007F09191C
:1024300029460046494949310001017F0101003F19
:102440004040403F001F2040201F003F4038403F99
:1024500000631408146300070870080700615149FD
:10246000454300007F41410000552A552A55000090
:1024700041417F000004020102040040404040400E
:10248000000001020400002054545478007F4844A6
:10249000443800384444442000384444487F0038DD
:1024A0005454541800087E0901020018A4A4A47C06
:1024B000007F080404780000447D400000408084D0
:1024C0007D00007F102844000000417F4000007C18
:1024D00004180478007C0804047800384444443824
:1024E00000FC242424180018242418FC007C080470
:1024F000040800485454542000043F444020003C49
:102500004040207C001C2040201C003C4030403CCF
:10251000004428102844001CA0A0A07C004464545F
:102520004C441414141414140000000000000000A3
:102530000000000000000000000000F800000000A3
:10254000000000333000000000100C06100C0600E4
:10255000000000000000000040C07840C07840004B
:10256000043F04043F040400007088FC08300000AD
:10257000001820FF211E0000F008F000E018000005
:1025800000211C031E211E0000F0088870000000BE
:102590001E2123241927211010160E000000000010
:1025A0000000000000000000000000E0180402002D
:1025B000000000071820400000020418E00000009E
:1025C0000040201807000000404080F0804040009C
:1025D0000202010F01020200000000F000000000F2
:1025E0000101011F010101000000000000000000C6
:1025F00080B070000000000000000000000000003B
:1026000000010101010101010000000000000000C3
:10261000003030000000000000000000806018045E
:10262000006018060100000000E010080810E0003B
:10263000000F102020100F00001010F80000000004
:102640000020203F2020000000700808088870004B
:1026500000302824222130000030088888483000CB
:102660000018202020110E000000C02010F80000EB
:1026700000070424243F240000F808888808080084
:102680000019212020110E0000E010888818000099
:10269000000F112020110E0000380808C83808006B
:1026A0000000003F000000000070880808887000EB
:1026B000001C222121221C0000E010080810E0006C
:1026C0000000312222110F00000000C0C0000000F5
:1026D000000000303000000000000080000000001A
:1026E0000000806000000000000080402010080012
:1026F00000010204081020004040404040404000DB
:1027000004040404040404000008102040800000B5
:102710000020100804020100007048080808F000BA
:102720000000003036010000C030C828E810E0008A
:102730000718272423140B000000C038E000000015
:10274000203C23020227382008F88888887000007F
:10275000203F202020110E00C03008080808380053
:10276000071820202010080008F808080810E000CA
:10277000203F202020100F0008F88888E80810006B
:10278000203F20202320180008F88888E80810003F
:10279000203F200003000000C03008080838000077
:1027A00007182020221E020008F808000008F80878
:1027B000203F210101213F20000808F808080000FF
:1027C0000020203F2020000000000808F808080032
:1027D000C08080807F00000008F888C028180800AA
:1027E000203F20012638200008F8080000000000E3
:1027F000203F20202020300008F8F800F8F80800DA
:10280000203F003F003F200008F830C00008F808D3
:10281000203F200007183F00E01008080810E000E3
:102820000F10202020100F0008F808080808F000FA
:10283000203F210101010000E01008080810E0001D
:102840000F18242438504F0008F8888888887000B2
:10285000203F2000030C3020007088080808380052
:102860000038202121221C00180808F80808180048
:102870000000203F2000000008F808000008F808C9
:10288000001F202020201F000878880000C838087A
:10289000000007380E010000F80800F80008F800F2
:1028A000033C0700073C030008186880806818088C
:1028B00020302C03032C30200838C800C83808000A
:1028C0000000203F2000000010080808C838080059
:1028D0002038262120201800000000FE02020200FD
:1028E0000000007F40404000000C30C000000000AD
:1028F000000000010638C00000020202FE000000D5
:10290000004040407F00000000000402020204007A
:1029100000000000000000000000000000000000B7
:10292000808080808080808000020204000000009F
:102930000000000000000000000080808080000097
:102940000019242222223F2008F800808000000085
:10295000003F112020110E00000000808080000048
:10296000000E112020201100000000808088F80057
:10297000000E112020103F20000080808080000089
:10298000001F222222221300008080F088888818ED
:102990000020203F202000000000808080808000F8
:1029A000006B94949493600008F80080808000008D
:1029B000203F210000203F20008098980000000068
:1029C0000020203F20200000000000809898000098
:1029D00000C08080807F000008F8000080808000B8
:1029E000203F24022D302000000808F800000000DD
:1029F0000020203F20200000808080808080800098
:102A0000203F20003F20003F808000808080000029
:102A1000203F210000203F200000808080800000B7
:102A2000001F202020201F008080008080000000E8
:102A300080FFA12020110E00000000808080800017
:102A4000000E112020A0FF80808080008080800008
:102A500020203F2120000100000080808080800035
:102A60000033242424241900008080E080800000AA
:102A70000000001F202000008080000000808000F7
:102A8000001F202020103F20808080000080808058
:102A900000010E30080601008080008000808080E8
:102AA0000F300C030C300F0000808000808080000D
:102AB0000020312E0E312000808080000080808038
:102AC00080818E70180601000080808080808000E8
:102AD0000021302C2221300000000000807C020206
:102AE00000000000003F404000000000FF00000028
:102AF00000000000FF0000000002027C80000000D7
:102B00000040403F000000000006010102020404F2
:102B10000000000000000000BDDA044444445F44AB
:102B2000C44444445F44C4040400000000000000A6
:102B3000FF000008100807000000B5E30000C040D7
:102B400040407F48484848C8080800008040370493
:102B5000041464041464040710E00000CEC2106082
:102B6000028C0000FE9292929292FE0000000404F9
:102B70007E01407E42427E427E42427E4000B6C896
:102B80000000FC242424FC252624FC242424040006
:102B900040308F80844C55252525554C8080800001
:102BA000CAAA1060028C00FE929292929292FE004B
:102BB000000004047E014448507F40407F50484458
:102BC0004000B6C80000FC242424FC252624FC2454
:102BD0002424040040308F80844C55252525554CF5
:102BE00080808000CCE5008060F807101010D0FFD6
:102BF000D01010100000010000FF1008040B08FFA7
:102C0000080B04081000CEC21060028C0000FE9277
:102C100092929292FE00000004047E01407E4242A5
:102C20007E427E42427E4000B7E70000FE02122252
:102C3000C202C23202FE0000000080601F002010AD
:102C40000C030C30000F3040F800CBD9404042CC90
:102C50000004F49494FF9494F40400000040201FB6
:102C600020484442415F414244484000CFF200F8CE
:102C700008080CCA494848C8080808F8000000FFBE
:102C80000000001F0808081F0040807F0000B6AB4E
:102C90000008884828180FE80808080808080000F5
:102CA000002011090541817F010105091120000063
:102CB000CEF70202E22222FE222222FE2222E2029B
:102CC00002000000FF484443404040434444FF00AA
:102CD0000000C4CF04E4242464A4243F24A4642476
:102CE00024E4040000FF00080909097F09090948D4
:102CF000807F0000B1B10020202020FF000000FFF5
:102D00004020100800002060201010FF0000003F4D
:102D1000404040407800B9E24040424458C0407FC3
:102D200040C05048464040008080402018070000C6
:102D3000003F404040407800C7BF02E222223E00F0
:102D4000809E9292F292929E8000004382423E4088
:102D5000474444447F444454E700B5E70000F88802
:102D6000888888FF88888888F800000000001F088D
:102D70000808087F888888889F80F000D1B9000003
:102D8000FE0282828282FA828282828202008060D5
:102D90001F40404040407F40404458404000C1F701
:102DA0001060028C004464544D46445464C40400D2
:102DB00004047E0180403E0000FE00007E80E000B2
:102DC000B9A6080808F80808081010FF101010F03D
:102DD00000001030101F088848300E014080403F2E
:102DE0000000C2CA0014A4442434AD6624940444F0
:102DF000A414000008090808090909FD09090B08BD
:102E000008090800CDC100004040404040FF40405C
:102E1000404040000000404040404040407F404033
:102E2000404040404000C8C01010FF100082BAEA85
:102E3000BA83BAEABA82000008180F04484A2AFF87
:102E40008A4A1A2F5A8A8800BFAA80828282FE820A
:102E500082828282FE8282828000008040300F0067
:102E600000000000FF0000000000B9D800001011B1
:102E7000161010F010101413100000008181414151
:102E800021110D030D11214141818100D7D4000092
:102E900000F8888C8A89888888F800000000000083
:102EA00000FF44444444444444FF00000000B6AFE3
:102EB0004044C4444444401010FF101010F000007F
:102EC000103C131014B840300E014080403F000009
:102ED000C4A31010D0FF9014E4AFA4A4A4AFE404E2
:102EE0000000040300FF00894B2A1A0E1A2A4B889F
:102EF0008000CABD101090909090901010FF10109C
:102F000011161000002060203F10101000030C105C
:102F10002040F800B7E70000FE021222C202C232CF
:102F200002FE0000000080601F0020100C030C3027
:102F3000000F3040F800C9C80000FC2424242526D6
:102F400024242424243C000040300F211549817F93
:102F500000211549817F0000CBAE00202020A06019
:102F600000FF60804020180000002010080601408B
:102F7000807F0001020408101000B1C342422212F7
:102F8000FA969292929292F2020202004044241423
:102F90000C44807F0408102824424000D7C71060EA
:102FA000028C00F8080808FF080808F8000004046C
:102FB0007E0120632121213F212129336000B6C8F1
:102FC0000000FC242424FC252624FC2424240400C2
:102FD00040308F80844C55252525554C80808000BD
:102FE000BEE0003E22E2223E00FE2222222222E217
:102FF0000200203F201F1111007F444444444447F5
:103000004000C0EB040404F484D4A5A6A4D484F442
:103010000404040000FE0202123A1613121A32428D
:10302000827E0000D3D004040484E43C27242424BA
:1030300024E40404040004020100FF090909094909
:10304000897F00000000C8CB000000000000C03FE6
:10305000C000000000000000804020100C030000B1
:1030600000030C1020408000CEDE0040424242C2ED
:103070007E42C242424240400000804020100C0389
:1030800000003F40404040700000C8CB00000000FE
:103090000000C03FC0000000000000008040201081
:1030A0000C03000000030C1020408000CCE50080E1
:1030B00060F807101010D0FFD010101000000100B1
:1030C00000FF1008040B08FF080B04081000BAECFE
:1030D0002030AC63201800040404FC040404000045
:1030E000226722121212404040407F404040400080
:1030F000CDE200C0301F1010F00000FF2040800023
:103100000000814021120C03000000FF00000003BA
:103110000000D7B400083000FF20202020FF20202E
:10312000222C200004040201FF8040300E0106180A
:1031300020408000CCAC000484844424548F1424A8
:10314000448484040000413900003C4040424C402B
:10315000407004093100C2FA1060028C0024242F50
:10316000E42424E42F24240004047E0100FF110938
:103170000719090749917F00CEB480808888888824
:1031800088FF8888888888808000202010080402B2
:1031900001FF0102040810202000CDB01090FF9024
:1031A00010E2222A2AF22A2622E000000601FF006D
:1031B00001FF0909097F0949897F0000B8C7000498
:1031C0002424252624FC242625242404000081818F
:1031D000F98989F9898989F98989F9818100D6D89C
:1031E000101014D4545454FC525252D312101000E4
:1031F000404050575555557F555555575040400004
:10320000C1BF202020BEAAAAAAAAAAAAAABE20207C
:103210002000008080AFAAAAAAFFAAAAAAAF808035
:103220000000BEAE00101010FF1010101010FF10A4
:1032300010100000028242320F0202020202FF025C
:1032400002020200D7DB2030AC6330000C242425BE
:10325000262424240C00226722121220110D418101
:103260007F0105093100BACF404020205048444337
:103270004448502020404000000000FE42424242AC
:10328000424242FE00000000C7E38060F80700FCF5
:10329000404002F21AD612F202000000FF00001FA6
:1032A0000804804F300F204F8000D0B12010282418
:1032B000E32428100022CC00FF00000020114D81E3
:1032C0007F01051900020202FF010100BDC72010A5
:1032D000E824272424E424342C20E000000080602B
:1032E0001F090909097F090949897F000000CBAE40
:1032F00000202020A06000FF608040201800000017
:10330000201008060140807F000102040810100010
:10331000CEBB008060F80710901011161010D0106E
:103320000000010000FF4040415E4040704E4140BF
:103330004000BCD70000FE22222222FE22222222AE
:10334000FE00000000000702020202FF0202020269
:1033500007000000CDE9807000FF10180C24242520
:10336000262424140C0080601807089041310F01B6
:10337000013F41417100CEAC2030AC63205820F8B1
:103380004F4849FA4848080022672212121200FFEB
:103390002222223F22222000D0DE4020F807F0A087
:1033A000904C5724A4544C8080000000FF001F80E4
:1033B00092524929241208000000D5FD000202C2E1
:1033C000020202FE82828282820200004040407F2E
:1033D0004040407F4040404040404000B3A3201860
:1033E00008EAACA8A8AFA8A8ACEA08281800000012
:1033F0003E02020202FF020212221E000000E3D07F
:1034000000F80122A0A2A222FE22AA3202FE00009F
:1034100000FF0010130A4B20170C133880FF000028
:10342000D6B5008060F80704E4A4A4BFA4A4E40413
:103430000000010000FF40407F4A4A4A4A4A7F405C
:103440004000B7E400F808FF08F880904C57A454F7
:103450004C8480002063211F113910101515FF15B1
:1034600015101000C3F900FC0404FC0000FC041655
:10347000650484FC0000000F04040F0010131212F6
:10348000125292423E00D1CC807000FF1008FE42E2
:103490004242FA424242FE00806018070810FF5084
:1034A000484641424C40FF00CEED100C055555D525
:1034B000057F0555555505140C001010108AA96B91
:1034C000352525ABE90810101000BFC9000202F233
:1034D000121212F2020202FE020202000000000FAB
:1034E0000404040F0040807F00000000C8BC80700E
:1034F00000FF10289827C43C907F90121400806031
:1035000018070898640328C621C01126C800C6F809
:1035100020104C4754545454545454D404040000C0
:1035200000000000000000000000000F3040F0002C
:10353000CFDF2030AC632018809090FF90494A483C
:103540004000226722121212404020130C14224124
:10355000F800C2B7003E22E2223E001088572454F1
:103560008C000000407E403F22220001FE42424289
:10357000FE010100B9CA101010FF10105020D8171A
:103580001010F0101000007F2121217F80402116B3
:10359000081621408000D5CF00FE0222DA0610D2A4
:1035A000565A535A56D2100000FF08100807101739
:1035B0001515FD1515171000BCEC1010D0FF90501C
:1035C00020504C434C5020404000040300FF004179
:1035D0004458414E605847404000B2E21060028CAF
:1035E00000FE02F202FE00F800FF000004047E016B
:1035F0008047300F10270047807F0000C5A810606B
:10360000028C201808C838CF080828980000040445
:103610007E01040201FF4021060A11204000A1E6BC
:10362000060909E6F80C040202020202041E000068
:10363000000000071F3020404040404020100000A4
:10364000B4B0100CC4544C64D54644444C54C41417
:103650000C000000FF404462554955434040FF00C4
:103660000000BBA7000000F80808090E08080808B9
:10367000F80000000080601F01010101010101014B
:1036800003000000D3EA02E22222222222FE2222AA
:10369000222222E2020000FF00000912007F00093E
:1036A0001240807F0000B5CE1060028C00E424AC94
:1036B000B5E6B4AC24E4000004047E0100FF001E63
:1036C0001213125E807F0000B9E24040424458C0AD
:1036D000407F40C05048464040008080402018074E
:1036E0000000003F404040407800D5D500FE4242F7
:1036F00042FE0042A29E82A2C2BE0000806F080865
:1037000028CF00002FC8080828CF0000C7BF02E25A
:1037100022223E00809E9292F292929E800000436E
:1037200082423E40474444447F444454E700B6C884
:103730000000FC242424FC252624FC24242404004A
:1037400040308F80844C55252525554C8080800045
:10375000D1CC807000FF1008FE424242FA42424241
:10376000FE00806018070810FF50484641424C4058
:10377000FF00CEED100C055555D5057F0555555567
:1037800005140C001010108AA96B352525ABE9082B
:1037900010101000C5A81060028C201808C838CF7F
:1037A00008082898000004047E01040201FF40215B
:1037B000060A11204000B6FE0000080808080808A4
:1037C0000808080808000000101010101010101051
:1037D0001010101010101000D1F50824236AAA2A26
:1037E000AA6A2A2A2AEA020200001011151515FFFA
:1037F00015151511100F3040F800BBAF008060F8B0
:1038000007000000FF40201008040000010000FF36
:10381000000402013F40404040407800CCBC04E43A
:103820005C44C400809EF0909F90909E8000013F79
:1038300010107F201806914C300F30488400B9CA10
:10384000101010FF10105020D8171010F01010009A
:10385000007F2121217F8040211608162140800011
:10386000D5CF00FE0222DA0610D2565A535A56D24B
:10387000100000FF0810080710171515FD15151783
:103880001000D7B400083000FF20202020FF2020A7
:10389000222C200004040201FF8040300E01061893
:1038A00020408000CCAC000484844424548F142431
:1038B000448484040000413900003C4040424C40B4
:1038C000407004093100D5FD000202C2020202FE6E
:1038D00082828282820200004040407F4040407FDE
:1038E0004040404040404000B3A3201808EAACA844
:1038F000A8AFA8A8ACEA0828180000003E020202FF
:1039000002FF020212221E000000B8A98060F80720
:1039100000FC04C434858684F48484000000FF40E5
:10392000300F01FF00024C807F000000D1F60080C4
:1039300060F80700FC040200FC0404FC0000010025
:1039400000FF00001F080400FF0408070000BAE1A0
:103950001010D0FF901020A4BFA4E4A4BFA42000A6
:10396000040300FF0003804F2A0A0F0A2A4F800039
:10397000B9F61060028C002494CCA596C48C142453
:10398000000004047E01201008FC42240815224097
:103990004000BABD80FC96E584FC0008C8494AC8CE
:1039A00008080000807F024C807F80601F00003F7D
:1039B00040407800CFF200F808080CCA494848C8CF
:1039C000080808F8000000FF0000001F0808081F92
:1039D0000040807F0000BDC72010E824272424E495
:1039E00024342C20E000000080601F090909097FB1
:1039F000090949897F000000BDD3101010FF105045
:103A0000445465C64464544440000444827F0182A7
:103A1000824A562322524E820200CADC80642C3431
:103A200024242C322222322E23A2600080804143A3
:103A3000252911111129254340808000D5FD000260
:103A400002C2020202FE82828282820200004040A2
:103A5000407F4040407F4040404040404000C8B729
:103A60000484E45C44C42010E82724E4342CE000FF
:103A700002017F10103F80601F09093F49897F00C4
:103A8000B4ED4030EF246448487F4848487F4848B8
:103A9000400001017F211100FF4949494949FF00C8
:103AA0000000CEF34042CC0000809E92929292920F
:103AB0009E80000000007F2094844424140F14246E
:103AC00044848400C1B1100C4424140405C60404C9
:103AD000142444140C0000003F01010101FF010106
:103AE00011211F000000B2BC080888C8A8988FE800
:103AF00088888888880808000201003F000000FFCD
:103B0000000010201F000000B7C000FE0222DA06ED
:103B10000808F8898E888888080000FF0810088740
:103B200040300F004080403F0000B5C6807000FF6D
:103B3000201004040404FC0404040400806018073A
:103B40000830000040807F0000000000C5DD1060EC
:103B5000028C4020F8272424E40404FC0000040420
:103B60007E0100003F424242434448477000D5DA9C
:103B70004042CC0000FC4444F4454644F444440034
:103B800080403F508CA398808BB28AB28388B0006B
:103B9000CAD500FC0000FF004020D8171010F0101C
:103BA0001000000F0402FF0080402116081621407B
:103BB0008000C8CB000000000000C03FC000000033
:103BC00000000000804020100C03000000030C10D7
:103BD00020408000D4B10000C05E52525252525276
:103BE000525EC000000080808F404020100E1010F8
:103BF00020204F800000B7E400F808FF08F880900C
:103C00004C57A4544C8480002063211F113910109C
:103C10001515FF1515101000C3F900FC0404FC0075
:103C200000FC0416650484FC0000000F04040F006F
:103C300010131212125292423E00B3E4040484C4E0
:103C4000A49C85868484A4C48404040000808040ED
:103C5000300F0000007F808081F00000B5E7000099
:103C6000F888888888FF88888888F8000000000025
:103C70001F080808087F888888889F80F000B9DCC2
:103C8000886423A2A6AAA2BAA4A3A2262AA262009A
:103C9000000000FF4A4A4A4A4A4A4BF80000000026
:103CA000C0ED048484FC848400FE9292FE9292FE15
:103CB00000002060201F1010404444447F444444CE
:103CC0004000CFB5000022322AA6A262211109814C
:103CD00001000000004222130B42827E02020A12FF
:103CE00023460000CDB32030AC63300088C8A899CB
:103CF0008E88A8C8880022672212128040300F00E8
:103D0000003F40407100D0DE4020F807F0A0904C0A
:103D10005724A4544C8080000000FF001F80925262
:103D20004929241208000000B8C40484848484FC57
:103D30004030CC0B0808F8080800007F201010085D
:103D400080402116081621408000C3DC108C4404FA
:103D5000E40495A64424148444940C0002027A419D
:103D60004143427E42424243F8000000C2EB0484D9
:103D7000E45C44C40002F2828282FE808000020180
:103D80007F10103F00080808084888403F00D1E92C
:103D900002FA8282FE804020504C434C502040006A
:103DA00008184884443F404458414E6058474000FA
:103DB000D6A4404042CC000004C40404FC04040423
:103DC00004000000003F1048407F40407F414141D7
:103DD0004000BBF00000C038000000FF00004020A1
:103DE0001800000080814020100C0300030C1020FC
:103DF00040808000D1E6807000FF10082090888706
:103E00004404948C800080601807083000FF44440C
:103E100040404444FF00C9CF000000000000FF40C4
:103E200040404040400000004040404040407F4013
:103E30004040404040404000D2BB80808080808035
:103E400080808080808080808000000000000000F2
:103E500000000000000000000000B4CE00020C8052
:103E6000608040300FC808082818000002027E0158
:103E7000804020180601061820408000CDA840424E
:103E8000CC0000E2222A2AF22A2622E0000080400A
:103E90003F4080FF898989BF89A9C9BF8000BBB025
:103EA000404042CC000020242424FE222322200073
:103EB0000000007F201000FE4242434242FE00000C
:103EC000CEB480808888888888FF888888888880A1
:103ED000800020201008040201FF010204081020C5
:103EE0002000BDE12030AC632018084848487F48D6
:103EF0004848080022672212121200FE4242424243
:103F000042FE0000CAF80404E424242424FF2424EC
:103F10002424E404040040402722120A06FF060A73
:103F2000122227404000B7A700F88142E09A82FAA7
:103F3000424A524202FE000000FF00007F002013B0
:103F40000C142378807F0000C3C500F80106000030
:103F500002020202020202FE000000FF0000000056
:103F6000000000000040807F0000D4B6404042CCFA
:103F7000002022E22222E222222000000080403F94
:103F800040A0988780809FA0A0BC8000B3CC242450
:103F9000A4FE2322003E22222222223E0000080606
:103FA00001FF0106404949497F4949494100BFD8BD
:103FB000101010FF9020984828090E2848A81800D3
:103FC0000242817F0040404242427E4242424000E3
:103FD000D6C640504E4848FF48484840F80000FFC9
:103FE000000000003E0202FF12221E000F40807FF0
:103FF0000000CFB5000022322AA6A2622111098159
:1040000001000000004222130B42827E02020A12CB
:1040100023460000CDB32030AC63300088C8A89997
:104020008E88A8C8880022672212128040300F00B4
:10403000003F40407100C1A6001010101010FF108A
:1040400010101010F0000000008040201806010041
:10405000204080403F000000B6A8100C4444444477
:1040600045C64444444444140C008040201E204073
:10407000407F4444444444404000CAB100FC84842E
:1040800084FC001010101010FF101000003F1010E2
:10409000103F0000010640807F000000B3A4808034
:1040A0008080FF8080A090888482808080000000D3
:1040B0000000FF4021120408102020404000D7DCFF
:1040C000000000F112141010101412F10000000092
:1040D00040300003394141455941417300083000E7
:1040E000BBA8040404846F040404E4048F4424047F
:1040F0000400040201FF001008043F41404040401A
:104100007800B7D100023AAA6A3F2A2A2AFF2AAACF
:104110002EE000000002819E4242221A2222425ECC
:1041200081000000D3E080804020504844C34448D0
:104130005020408080000040221A0242827F02020A
:10414000020A12600000B6EE008C44B526A4640C8E
:1041500002F21AD612F202001008FC4A494AFC0880
:10416000804F300F102FC000B9A4000404040404D1
:1041700004FC040404040404000020202020202067
:10418000203F2020202020202000D6C7109453322A
:104190001E325210007E4242427E0000000000FFAC
:1041A00049494949494949FF00000000C4DC08CC9D
:1041B0004A49484ACC18007F88888482E00000FF82
:1041C000121252927F00007E88888482E000B3E958
:1041D000101010FF109000F01010FF1010F00000F1
:1041E0000444827F010000FF42427F4242FF000000
:1041F000D7A21060028C0008080809FA080808080D
:10420000000004047E0140404141417F4141414161
:104210004000BEC620C20C8002F21212FE12FE1234
:1042200012F2020004047E0100FF4A49484848494E
:1042300049FF0000BCDD0044249C87A4C4BC80BCB2
:10424000A424243C0000002020202E2828282828F0
:104250000F4888780000BEAB4458C0FF504C004463
:1042600054547F5454544400080601FF01060000D2
:10427000FF151555957F0000D4DA080888C8380C5A
:104280000B0808E8080808080800020100FF404180
:104290004141417F414141414000D6D00000F010F2
:1042A000101010FF10101010F000000000000F049C
:1042B000040404FF040404040F000000CDAC00005B
:1042C000FE02129292929292921202FE000000005E
:1042D000FF00001F080808081F40807F0000D1A7CA
:1042E0004030119690909196909098141350300011
:1042F000040404040444847E060504040404040045
:10430000CAE9000008080808FF080808F9020400C4
:104310000000010101010101FF0101012141211FF3
:104320000000BCAE08A4A3F2A6AA020A24F3222627
:10433000FA22020022120AFF0A320201FD555555E7
:1043400055FD0100C8EB000000000001E21CE00088
:10435000000000000000804020100C03000000035B
:104360000C3040808000BFE20000FC2424A4643DA7
:10437000A62424242424040040300F101312121207
:10438000FF12121212101000B3F600007C404040E1
:1043900040FF40404040FC000000007C4040404066
:1043A000407F4040404040FC0000BDE8008060F895
:1043B0004748487F4848487F48484000010000FF80
:1043C0000000FF4949494949FF000000CAFD9052D9
:1043D0003410FF10345280708F0808F80800829A59
:1043E000566322528E008040330C33408000C1BFA0
:1043F000202020BEAAAAAAAAAAAAAABE20202000DB
:10440000008080AFAAAAAAFFAAAAAAAF8080000053
:10441000CBF52038E730008CC4342425A66424244E
:104420002C00222712120100FF0000FF494949FF1A
:104430000000CAE6102824E324285042424AD26AE7
:104440004640C00001F9494F49F9010040807F0012
:1044500000010000D5C502E222223E8080FF80A03C
:10446000908886808000004382423E0000FF402109
:10447000060810204000D0C40000800000E00204C4
:104480001800000040800000100C0300003F404076
:104490004040407800010E00BEAD2030AC632018D3
:1044A00080824222121A26428000226722121212B1
:1044B000404242427E4242424000CEB32030AC6392
:1044C000201800084848FF48484808002267221280
:1044D000121200020202FF0212221E00C3BA8070F2
:1044E00000FF20100404FF242424FF040400806043
:1044F000180708304424150DFF0D15244400B1A8F9
:10450000101010FF109000FE82828292A29E000086
:104510000444827F010000FF80432C102C43800064
:10452000BEAF12EAAFAAEA0FFA02888C5724548C65
:1045300084000202EAAAAAABAAABAAAAAAAAEA0221
:104540000200B8DF04040404F49495969494F404EF
:104550000404040000FE02027A4A4A4A4A4A7A02E5
:1045600082FE0000B5CD008060F80700FC848484E2
:10457000FE8283828000010000FF0000FF402000D7
:10458000418E3040F800C6AB8060F80700FC242460
:1045900025262424243C00000000FF403C03FF09A2
:1045A0007F097F0989FF0000B3A3201808EAACA89F
:1045B000A8AFA8A8ACEA0828180000003E02020232
:1045C00002FF020212221E000000B3AC404848481D
:1045D000FF484842A29E82A2C2BE000080601F2007
:1045E0007F4444404F484848484F4000BAC5808007
:1045F00080BEA2A2A2A2A2A2A2BE808080000000D1
:104600000006050404044484443C00000000BEADE0
:104610002030AC63201880824222121A2642800089
:10462000226722121212404242427E42424240001F
:10463000CEB32030AC63201800084848FF484848F3
:10464000080022672212121200020202FF02122246
:104650001E00B2BD4040407C404040FF44444444C2
:1046600044404000809088464040202F10100804AD
:1046700002000000CAFD90523410FF1034528070C6
:104680008F0808F80800829A566322528E008040F4
:10469000330C33408000B4B44020D04C4344C810A5
:1046A0002000F80000FF000000003F404448474061
:1046B00070000F40807F0000CBBC0000FE92929201
:1046C00092FE92929292FE000000403801003C401F
:1046D00040424C40407005083000CDA84042CC001C
:1046E00000E2222A2AF22A2622E0000080403F40EF
:1046F00080FF898989BF89A9C9BF8000D0C5008092
:1047000060F8070004242425262424240400010042
:1047100000FF000000F94949494949F90000B7A2E2
:104720000000181610D0B897909090929410000046
:104730000020108C8380414628102844438080004C
:10474000B0E51010D0FF901000FC24E4242223E2F6
:104750000000040300FF0083601F804126182641EB
:10476000800000008447000800000020480000008E
:104770003C1B0008CC47000848000020D808000077
:104780004C1B000800A24A040000000000000000CA
:1047900001020304060708090000000001020304E7
:1047A00001020304060708090204060801000000CC
:1047B00000000000000000000000000000000000F9
:0C47C000000000000000000000000000ED
:04000005080000ED02
:00000001FF
