:020000040000FA
:030000000200E318
:03001300021B8647
:03003300021AB8F6
:03003B00021BE2C3
:03006B00021998DF
:03007B00021A283E
:10008300021B4800000080FB120113B900030200A9
:10009300CDE4900301789479038002F0A3D8FCD9CE
:1000A300FA900594AA82AB8390011678AF790B80FE
:1000B30015E493A3AC82AD838A828B83F0A3AA82D7
:1000C300AB838C828D83D8E9D9E77582FC7583363F
:1000D30074001200F575828675830074001200F5B2
:1000E30075D00075813F751001751103759F00026E
:1000F300008BC09FF59FE473D09F22D083D082C032
:100103009FE493C0E0740193C0E0740293F59F22CF
:100113007901222D2DCBABCFF2CEDECFDFB5E3B508
:10012300C62D2D00B1BEBBFAB5D8D6B73A253034AB
:1001330078006B657931BFD8D6C64431006B6579D9
:1001430032BFD8D6C64432006B657931D1A1D4F120
:10015300C4A3BFE931006B657932D1A1D4F1C4A343
:10016300BFE93200FF0000000000000000000000B3
:100173000000000000C20100202000CBAB00CFF242
:1001830000CEDE00CFDF00B5E300B5C600D1A1008D
:10019300D4F100C4A300BFE900B1BE00BBFA00B5AF
:1001A300D800D6B700BFD800D6C600CEC200B6C8A6
:1001B30000A3BA00CAAA00B9E200D5D500B4F3007F
:1001C300D0A100D3DA00B1A800BEAF000000000048
:1001D300000000000000000000000000000000F824
:1001E30000000000000000333000000000100C0687
:1001F300100C0600000000000000000040C0784022
:10020300C0784000043F04043F040400007088FCED
:1002130008300000001820FF211E0000F008F00045
:10022300E018000000211C031E211E0000F00888B6
:10023300700000001E2123241927211010160E0020
:10024300000000000000000000000000000000E0CB
:1002530018040200000000071820400000020418E0
:10026300E00000000040201807000000404080F03C
:10027300804040000202010F01020200000000F072
:10028300000000000101011F010101000000000046
:100293000000000080B070000000000000000000BB
:1002A3000000000000010101010101010000000044
:1002B30000000000003030000000000000000000DB
:1002C30080601804006018060100000000E01008B8
:1002D3000810E000000F102020100F00001010F88D
:1002E300000000000020203F2020000000700808CC
:1002F300088870000030282422213000003008884C
:10030300884830000018202020110E000000C02073
:1003130010F8000000070424243F240000F8088894
:10032300880808000019212020110E0000E0108821
:1003330088180000000F112020110E000038080853
:10034300C83808000000003F000000000070880863
:1003530008887000001C222121221C0000E01008E4
:100363000810E0000000312222110F00000000C03D
:10037300C0000000000000303000000000000080DA
:1003830000000000000080600000000000008040CA
:1003930020100800000102040810200040404040E3
:1003A3004040400004040404040404000008102036
:1003B300408000000020100804020100007048087B
:1003C3000808F0000000003036010000C030C828E3
:1003D300E810E0000718272423140B000000C0389E
:1003E300E0000000203C23020227382008F8888818
:1003F30088700000203F202020110E00C030080824
:1004030008083800071820202010080008F80808FA
:100413000810E000203F202020100F0008F88888F3
:10042300E8081000203F20202320180008F88888BF
:10043300E8081000203F200003000000C030080837
:100443000838000007182020221E020008F80800C0
:100453000008F808203F210101213F20000808F887
:10046300080800000020203F2020000000000808AA
:10047300F8080800C08080807F00000008F888C06A
:1004830028180800203F20012638200008F808001B
:1004930000000000203F20202020300008F8F80052
:1004A300F8F80800203F003F003F200008F830C064
:1004B3000008F808203F200007183F00E010080854
:1004C3000810E0000F10202020100F0008F8080883
:1004D3000808F000203F210101010000E010080896
:1004E3000810E0000F18242438504F0008F88888BB
:1004F30088887000203F2000030C3020007088089B
:10050300080838000038202121221C00180808F8A8
:10051300080818000000203F2000000008F8080029
:100523000008F808001F202020201F0008788800FA
:1005330000C83808000007380E010000F80800F86A
:100543000008F800033C0700073C03000818688014
:100553008068180820302C03032C30200838C8008A
:10056300C83808000000203F2000000010080808D9
:10057300C83808002038262120201800000000FE7B
:10058300020202000000007F40404000000C30C027
:1005930000000000000000010638C0000002020253
:1005A300FE000000004040407F0000000000040205
:1005B3000202040000000000000000000000000030
:1005C3000000000080808080808080800002020420
:1005D3000000000000000000000000000000808018
:1005E300808000000019242222223F2008F8008086
:1005F30080000000003F112020110E000000008049
:1006030080800000000E11202020110000000080D7
:100613008088F800000E112020103F200000808009
:1006230080800000001F222222221300008080F01D
:10063300888888180020203F202000000000808048
:1006430080808000006B94949493600008F800808D
:1006530080800000203F210000203F2000809898E8
:10066300000000000020203F202000000000008048
:100673009898000000C08080807F000008F8000088
:1006830080808000203F24022D302000000808F8DD
:10069300000000000020203F202000008080808098
:1006A30080808000203F20003F20003F808000802A
:1006B30080800000203F210000203F200000808038
:1006C30080800000001F202020201F0080800080E9
:1006D3008000000080FFA12020110E000000008098
:1006E30080808000000E112020A0FF808080800089
:1006F3008080800020203F212000010000008080B6
:10070300808080000033242424241900008080E0AA
:10071300808000000000001F202000008080000077
:1007230000808000001F202020103F208080800058
:100733000080808000010E30080601008080008068
:10074300008080800F300C030C300F00008080008D
:10075300808080000020312E0E31200080808000B8
:100763000080808080818E70180601000080808068
:10077300808080000021302C222130000000000006
:10078300807C020200000000003F404000000000A7
:10079300FF00000000000000FF0000000002027CD8
:1007A300800000000040403F0000000000060101FF
:1007B300020204040000000000000000F90500002C
:1007C3000000000000000000000000000000000026
:1007D3000000000000000000000000000000FC0515
:1007E3000434C404C43C0004FC040404C43C0000FA
:1007F30040300C030C30804020130C132040800049
:10080300FF0500F808080CCA494848C8080808F852
:10081300000000FF0000001F0808081F0040807F41
:10082300000002060040424242C27E42C2424242AD
:1008330040400000804020100C0300003F40404037
:100843004070000005062030AC632018809090FFB4
:1008530090494A4840002267221212124040201356
:100863000C142241F80008060000C04040407F48B5
:10087300484848C80808000080403704041464044A
:100883001464040710E000000B06807000FF2010C2
:1008930004040404FC040404040080601807083002
:1008A300000040807F00000000000E06404042CC64
:1008B30000504EC8487FC848484000000040201FF1
:1008C30020504C4340404F50505C400011061010E4
:1008D300FF100082864A52A2524A868080004282DA
:1008E3007F010010121212FF1212121000001406E0
:1008F3001010D0FF9014E4AFA4A4A4AFE40400004C
:10090300040300FF00894B2A1A0E1A2A4B88800021
:100913001706202020FF2020080808FF080808F8F1
:1009230000001030100F884821110D030D112141D3
:1009330081001A060010101010D030FF30D01010B4
:100943001010000010080402090808FF0808090233
:10095300040810001D061010D0FF901000FE0202C4
:1009630002FE00000000040300FF0083601F00007C
:10097300003F404078002006202020FF202080F800
:100983008040FF2010F000001030100F0808003FD7
:1009930040405F42444378002306202020FF20206C
:1009A30000F80000FF40404000001030100F0848DE
:1009B300407F40407F40404040002606101010FF1B
:1009C3009020984828090E2848A818000242817FE1
:1009D3000040404242427E4242424000290640508B
:1009E3004E4848FF48484840F80000FF0000000018
:1009F3003E0202FF12221E000F40807F00002C06E1
:100A030010218670007E4A4A4A4A4A7E000000004E
:100A130002FE01407F41417F41417F41417F4000D0
:100A23002F060000FC042424FCA5A6A4FC242424F3
:100A3300040080601F808042462A12122A2642C088
:100A4300400032060000000000000000000000002B
:100A53000000000000003636000000000000000027
:100A6300000000003506106002CC00003E2AAA2ACE
:100A7300AA2A3E0000000808FE0140424C407F4085
:100A83007F484442400038064040424458C0407FBB
:100A930040C0504846404000808040201807000076
:100AA300003F4040404078003B0600FE424242FE89
:100AB3000042A29E82A2C2BE0000806F080828CF17
:100AC30000002FC8080828CF00003E062020202061
:100AD300202020FF20202020202020008080402074
:100AE300100C0300030C102040808000410600001E
:100AF30000E0000000FF0000002040800000080428
:100B030003000040807F0000000000010E00440647
:100B130040404242424242FE424242424240400040
:100B2300000000000040807F000000000000000083
:100B33004706101010FF109000FE82828292A29E40
:100B430000000444827F010000FF80432C102C43EB
:100B530080004A0612EAAFAAEA0FFA02888C5724E9
:100B6300548C84000202EAAAAAABAAABAAAAAAAA34
:100B7300EA020200490A00000030313233343536CC
:100B830037383941424344454600286E756C6C2022
:100B9300706F696E74657229003F3F3F00000080EB
:100BA3007F0000803FF9021550B743BA510000207F
:100BB3004100E7DB2E0000A0401000000008000009
:100BC300001200FECA35001200FEB331001200FE0F
:100BD3005A32001200FEBB32001200FED83300125C
:100BE30000FE6134001200FEFD34001200FE0D35DC
:100BF300001200FEB635001200FEF93B001200FEA3
:100C0300A93A001200FEBE3A001200FE483A001252
:100C130000FE7E3A001200FE3A3C001200FE3F3C0A
:100C2300001200FE982C001200FE612D001200FE3F
:100C33006F2D001200FE942D001200FEBB2D00123A
:100C430000FEE22D001200FE162E001200FE472EBB
:100C5300001200FEA62E001200FE3B2F001200FE23
:100C6300F730001200FE9E3B001200FEB03B001264
:100C730000FE053B001200FE2C3B001200FE433732
:100C8300001200FE7537001200FE8537001200FEC9
:100C93009B37001200FEB237001200FEC937001264
:100CA30000FEF537001200FE1938001200FE2A3844
:100CB300001200FE3338001200FE3C38001200FE22
:100CC3005138001200FE6638001200FE853800120B
:100CD30000FE9838001200FE9B38001200FE583BBD
:100CE300001200FECC3B001200FEA839001200FEE9
:100CF300D239001200FE1C3C001200FE491C0012F7
:100D030000FE672100E49366701308740193667014
:100D13000C08740293667005087403936622C00876
:100D2300C3E096F50808A3E096420808A3E09642BC
:100D33000808A3E0964208A2D265D033E508700103
:100D4300D3D00822C3E493960874019396087402DF
:100D53009396087403939622080808E630E7111265
:100D63001597120D73080808C64480C61818182270
:100D7300181818E9799EC608CAC608CBC608CCC697
:100D8300C370207996CACBCC7019798ECBCC7013F3
:100D93007986CC700EF9802ACA33CACB33CBCC33D5
:100DA300CC331930E7F2CCCBCA3350147004EA3099
:100DB300E00DE4CA3ACACB3BCBCC3CCC500209C3CE
:100DC300E913C6CC182313C6CB18C6CA18C6F92212
:100DD300120E1320F01430E72B74FFFCFBFA747F20
:100DE3008022E4FCFBFA7480801AB48008BC00F211
:100DF300BB00EF800F50EBF9E4C39AFAE49BFBE4EA
:100E03009CFCE499C6CC18C6CB18C6CA18C6F922EE
:100E1300E4C9C608CAC608CBC6D3330308CCC63355
:100E230092F0C3947F402E94184019C9B90704CA9D
:100E3300CBCC225025C309CA33CACB33CBCC33CC5A
:100E430033D9F422F4600DC9CCC313CB13CBCA132B
:100E5300CAD9F6CC22E4FCFBFA2214FCFBFA22E604
:100E6300C33318461846184622E7C33319471947B0
:100E7300194722181818E6084608700AE608C3330B
:100E83007005E633F4220822191919E70947097096
:100E93000AE709C3337005E733F4220922E608465B
:100EA30008C3134608336002E633F422E70947090F
:100EB300C3134709336002E733F422120EA06025FF
:100EC300120EAF6020120E627003020E6C08080847
:100ED300E76670101819E766700A1819E766700458
:100EE3001819E76622F422120EA0601C120EAF60DE
:100EF30017120E627007120E6C7001D322C0D0124B
:100F03000E6C7006D0D0B322C32233D0D05014302D
:100F1300E0F6C3E7960809E7960809E7960809E7A4
:100F230096B32220E0D5E6970809E6970809E697E5
:100F33000809E697B322120EA0601B120EAF6016CB
:100F4300120E627007120E6C600CB322C0D0120E28
:100F53006C7005D0D022C32233D0D0501330E0EBD5
:100F6300C3E7960809E7960809E7960809E7962272
:100F730020E0E4E6970809E6970809E6970809E6FA
:100F8300972200120EA0604F120EAF6012E754803A
:100F930066F6120E767011120E6C703B090909F495
:100FA300F618F618F618F622120E8B7015120E624A
:100FB30008080860EAE6447FF618768018E4F61815
:100FC300F622120E626016120E6C7012E4F608F628
:100FD30008F608E65480F609090918181822EAC029
:100FE300E0EBC0E0ECC0E0EDC0E0E687F0A4FBACD2
:100FF300F008E687F0A42CFCE435F0FA1809E6873C
:10100300F0A42C4B60027401CA35F0FCE433FB09F5
:10101300E687F0D2F7A42CCB35F0FC1908E687F06D
:10102300A42BCC35F0FBE433FD0819E687F0D2E7B7
:10103300A42C4ACB35F0CD3400FC09E687F0D2E787
:10104300A42DCC35F0FDE433FA0918E687F0D2F786
:10105300A42CCD35F0CA3400FC08E687F0D2E7D2E1
:10106300F7A42ACC35F07A7E20E70B0ACB33CBCD1D
:1010730033CDCC33CC33CB3350147004ED30E00E8E
:10108300D2F1E4CD3DCDCC3CCC3B5005DA05C2F1E9
:10109300EB547FC63308E63392F0FBE73309E733BB
:1010A300C39A502D2B70190C0D4C4D70151806E674
:1010B30008C333700D20F10AA2F013F6E418800B75
:1010C3004024E4F630F002768018F618F618F6801D
:1010D30024D33B14501074FFA2F013F6187680E467
:1010E30018F618F6800FA2F013F618E63303F61875
:1010F300ECF618EDF6D0E0FDD0E0FCD0E0FBD0E05C
:10110300FA22120EAF6046120EA0603DE968700825
:10111300F618F618F618F622748067F712113909D3
:101123000909748067F722120EA0601D120EAF70BA
:1011330005191919801A120E76701F120E8BC370BF
:1011430003E6673319191940071818182208080805
:1011530074FFF618F618F618F622120E8B601712A3
:101163000E6C702192F0120E627019501720F01459
:10117300080808090909E7F61819E7F61819E7F640
:101183001819E7F622120E6260E6E869701F080874
:10119300E62480F608E436F618547FB47F0CE65450
:1011A300806007F6E418F618F622181822E9C6CC70
:1011B30008C6CD08C6CE08C6CFC0E0E8C0E0EAC086
:1011C300E0EBC0E009E9F809E7FA09E7FBE6F918FB
:1011D300E6F8C3EC98ED99EE9AEBC2E7F5F0EFC2AF
:1011E300E795F0500E600CEBCFFBEACEFAE9CDF9B0
:1011F300E8CCF8EAA2E7D2E7FAEB33FB13F5F0EE1B
:10120300A2E7D2E7FEEF33FFC5F013A2E730E60112
:10121300B313C5F0C3C0E0C0F07F00C39BFB605BAA
:101223009418600C401AD0E023F9D0E0F8021308B8
:101233008AF0E9486003D2F0E4AFF0FAF9F8803BB2
:10124300EB30E40D89F0EA6003D2F0E4AFF0F9CAC1
:10125300F8EB30E30D88F0EF6002D2F0AFF0E4CAB0
:10126300C9F8EB54076014FBC3EA13FAE913F9E86E
:1012730013F8EF135002D2E0FFDBEDD0E0C0E03013
:10128300E739C3E49FFFF5F0EC98FC42F0ED99FDDC
:1012930042F0EE9AFE42F0D0E0F9D0E0F8E5F060DB
:1012A3007AE923F9EE20E742D8028067C3EF33FFE0
:1012B300EC33FCED33FDEE33FE80EAEC28FCED3934
:1012C300FDEE3AFED0E023F9D0E0F84002801BC3E4
:1012D300EE13FEED13FDEC13FCEF135002D2E0FF0F
:1012E30008B800067F7F74FF802EEF3350178CF011
:1012F30020F00260100CBC000C0DBD00080EBE00F7
:101303000408E860DFE933E813FFEE2313FE4F4DD3
:101313004C8008E95480FFE4FEFDFCEE33EF33F428
:101323007004FCFD7E80D0E0FBD0E0FAD0E0F8D082
:10133300E0CFC618CEC618CDC618CCC6F922120EF9
:10134300A0700418181822120EAF700D74FFF6184F
:1013530019F61819F61819F622E7548066F6120ED4
:1013630062700F120E6C70F014F608F608F608F6A9
:1013730080D1120E6C700CF608F608768008E644ED
:101383007F80EC120E8E700C120E7960BFE65480D3
:10139300F6E480BB120E79700519191980A5E86966
:1013A300700C763F18768018F618F6E8F922E6CD29
:1013B300C0E018ECC0E0E633CD33CDD313F6E71924
:1013C300FCE7191933CC33C3947F400ECD9D5024D1
:1013D30008E65480F6E418F6800FF4043D14501424
:1013E30008E6447FF6187680E418F618F6D0E0FC99
:1013F300D0E0FD22CCD313CCFD18E4C6CBC0E0185B
:10140300E4C6CAC0E00808ED08C633E613F618E4DC
:1014130033C675F003C3CA97CA09CB97CB199C404F
:10142300047D08802EBD00030214EA16B6FF0506EC
:1014330006081618C3CA33CACB33CB33CA27CA0923
:10144300CB37CB193CC37D08803E187D0820E75C71
:10145300C633C6CA33CACB33CB33DDF1D5F0EB3059
:10146300E77BCA97CA09CB974ACB199C406F4B704D
:1014730025E620E0218066187D08C3CA97CA09CBF8
:1014830097CB199CD3C633C6CA33CACB33CB33509D
:10149300C9DDE7D5F0E1D3E4C636C608C636C608CB
:1014A300C636C608C636C61818188031C3CA97CAC6
:1014B30009CB97CB199CB34097C633C6CA33CACB63
:1014C30033CB33DD34D5F02EC6A2E0C640C8CA27DD
:1014D300CA09CB37194A70BECB3CB480B90808E6B9
:1014E3003308E633601F181818D0E0FAD0E0FBD0B9
:1014F300E0FCD0E0FD22187D08CA27CA09CB37CB10
:10150300193CD3808013F618E4B67F11F618B6FFA2
:101513000EF618C60470D20808768080CAF618F64C
:1015230018F680C5E4CFC0E0E4CEC0E0E4CDC0E06F
:10153300E4CCC0E075F020C3E633F608E633F608E2
:10154300E633F608E633F6181818EC33FCED33FDF2
:10155300EE33FEEF33FFC3EC9709ED9709EE9709DE
:10156300EF97191919400FFFEC97FC09ED97FD0947
:10157300EE97FE191906D5F0BEECF709EDF709EE63
:10158300F709EFF7191919D0E0FCD0E0FDD0E0FE20
:10159300D0E0FF22181818E4C396F608E496F6087C
:1015A300E496F608E496F622E0F608A3E0F608A32C
:1015B300E0F608A3E0F622E6F008A3E6F008A3E6C7
:1015C300F008A3E6F022E0FAA3E0FBA3E0FCA3E02B
:1015D300FD22EAF0A3EBF0A3ECF0A3EDF022CAC0E6
:1015E300E0E6F0A308DAFAD0E0FA22CAC0E0E0A30A
:1015F300C582CCC582C583CDC583F0A3C582CCC5C6
:1016030082C583CDC583DAE6D0E0CA22C3E498F865
:10161300E499F91216508026C3E49AFAE49BFBE995
:1016230020E7E9121650E498F8E499F922C3E49804
:10163300F8E499F9121650E498F8E499F9C3E49A96
:10164300FAE49BFB22EB20E7CFE920E7E0B90010A7
:10165300BB0008E88AF084F8AAF022E4FBC8FA2267
:10166300EB70227B10C833C8C933C9335007C39A00
:10167300C3DBF280069A50012ADBEAC833F4C8C9F7
:1016830033F4C9FA2275F008E4C833C8C933C9333F
:10169300C99AC99B5004C92AC93BD5F0ECFBC8338E
:1016A300F4C8E4C9FA22700422600D18C6C333C615
:1016B30008C633C6D5E0F41822251010AF08F5107C
:1016C300400215118008F51040021511D2AF22C057
:1016D300D0251010AF08F510500205118008F51041
:1016E30050020511D2AFD0D0222510F58210AF08D9
:1016F300F510400215118008F51040021511D2AF04
:10170300851183222510F582E43511F58322E473D4
:101713002510C582C0E0E51134FFC583C0E0E510A4
:10172300C3958224F810AF08858311858210800841
:10173300858311858210D2AFCEF0A3E520F0A37884
:1017430008E608F0A3DEFAEFF0A3E58124FAF8E651
:1017530008F0A3E608F0A3E608F0A30808E608F0FB
:10176300A3E608F0A315811581D0E0FED0E0F815BB
:101773008115811581E8C0E0EEC0E02285118385E3
:101783001082E0A3FEE0A3F5207808E0A3F608DFCB
:10179300FAE0A3FFE0A3C0E0E0A3C0E0E0A3C0E061
:1017A300E0A3C0E0E0A3C0E010AF0885821085830A
:1017B300118008858210858311D2AFD083D0820235
:1017C30000FBC0D02510C582C0E0E51134FFC583FE
:1017D300C0E0E510C3958224F310AF08858311851B
:1017E30082108008858311858210D2AFC8F0A3E9E7
:1017F300F0A3EAF0A3EBF0A37908E709F0A3D8FA82
:10180300ECF0A3EDF0A3EEF0A3EFF0A3D0E0F0A390
:10181300D0E0F0A3D0E0F0A3E520F0A3E5F0F0A33F
:1018230022851183851082E0C0E0A3E0F9A3E0FAEA
:10183300A3E0FBA37808E0F608A3DFFAE0FCA3E04B
:10184300FDA3E0FEA3E0FFA3E0C0E0A3E0C0E0A3AC
:10185300E0F5D0A3E0F520A3E0A3F5F010AF0885F1
:1018630083118582108008858311858210D2AFD0C1
:1018730082D083D0E0F8D0E032740280027401C0D9
:10188300E0F4041216ECD0E01215E1227402800099
:10189300CCC0E0EDC0E0E510C39CCCAD1150011D00
:1018A30010AF068C108D1180068C108D11D2AF12E3
:1018B30015EED0E0FDD0E0FC22D083D082ECC0E076
:1018C300EDC0E0EEC0E0EFC0E0E493A3FCE493A33B
:1018D300FDE493A3FEE493A3FFEF4E4D4C6015127A
:1018E3001938EC24FFFCED34FFFDEE34FFFEEF343A
:1018F300FFFF80E5E493A3FCE493A3FDE493A3FE3D
:10190300E493A3FFEF4E4D4C6015121975EC24FFC1
:10191300FCED34FFFDEE34FFFEEF34FFFF80E5D036
:10192300E0FFD0E0FED0E0FDD0E0FCE493A3C0E014
:10193300E493C0E022C0E0C0F088F0120D47A8F0A5
:101943004007120D08A8F0701AA3A3A3A3120D4712
:10195300A8F0A3A3A3A34013D0F0D0E0D0E0D0E03D
:10196300021922A3A3A3A3A3A3A3A3A3A3D0F0D049
:10197300E022C0E0C0F088F0120D08A8F0A3A3A3F2
:10198300A3700BD0F0D0E0D0E0D0E0021922A3A3E3
:10199300D0F0D0E022C0E074F11217C5C2C5E589CA
:1019A300607E7E008074750801750900EE78081268
:1019B30016A9E508AF08E5895F605EEEF87900E8EF
:1019C30075F002A4C8AAF075F000A42AFA75F00213
:1019D300E9A42AF9746228F582740439F583E0F8DE
:1019E300A3E0F9E849602EEEF87900E875F002A467
:1019F300C8AAF075F000A42AFA75F002E9A42AF93E
:101A0300746228F582740439F583E0F8A3E0F58362
:101A13008882121711EFF452890EEEC394084086A0
:101A23007F02021824C0E074F11217C5C2EBE58AE5
:101A3300607E7E008074750801750900EE780812D7
:101A430016A9E508AF08E58A5F605EEEF87900E85D
:101A530075F002A4C8AAF075F000A42AFA75F00282
:101A6300E9A42AF9747228F582740439F583E0F83D
:101A7300A3E0F9E849602EEEF87900E875F002A4D6
:101A8300C8AAF075F000A42AFA75F002E9A42AF9AD
:101A9300747228F582740439F583E0F8A3E0F583C2
:101AA3008882121711EFF4528A0EEEC3940840860F
:101AB3007F02021824C0E074F11217C5C2E8E58B57
:101AC300607E7E008074750801750900EE78081247
:101AD30016A9E508AF08E58B5F605EEEF87900E8CC
:101AE30075F002A4C8AAF075F000A42AFA75F002F2
:101AF300E9A42AF9748228F582740439F583E0F89D
:101B0300A3E0F9E849602EEEF87900E875F002A445
:101B1300C8AAF075F000A42AFA75F002E9A42AF91C
:101B2300748228F582740439F583E0F8A3E0F58321
:101B33008882121711EFF4528B0EEEC39405408680
:101B43007F02021824C0E074F21217C5A2AFE43377
:101B5300FEC2AFE5E9A2E6502090048CE0F8A3E0D2
:101B6300F9E849600E90048CE0F8A3E0F5838882DD
:101B7300121711759B0053E9BFEEA2E092AF7F01EC
:101B8300021824C0E0C0D0E8C0E0E9C0E0C082C0D1
:101B930083E5C1C0E090050FE0F87900748E28F565
:101BA30082740439F583D0E0F090050EE0F89005D7
:101BB3000FE0687006E595900510F090050FE0249E
:101BC3000190050FF0C39480400690050F7400F058
:101BD300D083D082D0E0F9D0E0F8D0D0D0E032C0CA
:101BE300E0C0D0E8C0E0C008C009C082C08390054F
:101BF30091E0F8900592E068700B539AFB9005937F
:101C03007401F08031C2E9900591E0F50874012573
:101C130008900591F075090074112508F582740583
:101C23003509F583E0F5C1900591E0C39480400642
:101C33009005917400F0D083D082D009D008D0E011
:101C4300F8D0D0D0E03274F012171374FD1216BC22
:101C53007402121707E9F08A088B098C0A8D0B743A
:101C630015121707E0FEA3E0FF851082851183E4B8
:101C7300F0A3F08E828F83A3AA82AB8390101E7889
:101C83000C1215AB7808790C120EBE70188E828F69
:101C9300837469122128746EF0A37466F0A30A0A90
:101CA300AB830220C378087908120EBE60118E82BE
:101CB3008F83746E1221287461F0A3746E80DD909B
:101CC3001022780C1215AB7808790C120EEA500327
:101CD300021D739005F1780C1215AB7808790C127C
:101CE3000EBE6003021DC77417121707E0700302CC
:101CF3001E09851082851183C082C0837413121755
:101D030007122B66D083D082122101502C851082BA
:101D1300851183C3E094FCA3E094FFA2D265D03382
:101D230040177402121707E4122C3AF974131217AE
:101D330007C3E098F0A3E099F07413121707122178
:101D43001E7418121707E07003021E067417121789
:101D530007E4021E08901026780C1215AB78087958
:101D63000C121341851082851183E0240A122C770B
:101D730090102A780C1215AB7808790C120EEA40F1
:101D8300D490102E780C1215AB7808790C120EEA49
:101D93004003021CEA90102E780C1215AB780879D8
:101DA3000C121341122C6E80D8901026780C121549
:101DB300AB7808790C120F85851082851183E02496
:101DC300F6122121901032780C1215AB7808790C99
:101DD300120F3940D4901022780C1215AB78087981
:101DE3000C120F394003021CEA90102E780C1215C6
:101DF300AB7808790C120F85851082851183122127
:101E03001E80D27401F07402121707E060077A0093
:101E13007B00021F1512210D507D8E828F8374303B
:101E2300F0EAFEEBFF7413121707E0FCA3E0FDECEE
:101E33004D70087418121707E0600B8E828F83743D
:101E43002EF0A30EAF837A007B0080118E828F83E6
:101E53007430122149741312170712211EEA24FF4A
:101E63001AEB34FFFB8510828511831220F5500B8A
:101E73007413121707122B6A4970D18510828511CA
:101E83008374FFC39CF874FF9DF912210150030270
:101E93001FE37A01021E13851082851183122B66BC
:101EA300C3E498FAE499FB806985080C85090D85DC
:101EB3000A0E850B0F780C120DD3AC0CE50D339580
:101EC300E0F50EF50F780C120D5B7808790C121102
:101ED3000590102E780C1215AB7808790C120F852B
:101EE300EC122143EAF8EBF9E824010AE93400FB98
:101EF300E849701E7413121707122B6A497008748D
:101F030018121707E0600B8E828F83742EF0A30ED6
:101F1300AF8374131217071220F5508D9010367883
:101F23000C1215AB7808790C120EEA4003021FE37A
:101F33007C01EE24FFF8EF34FFF97415121707E064
:101F4300F508A3E0F50988828983E0642E6010E038
:101F53002CF0643A70077430F07C0180027C00E856
:101F6300FAE9FBEA24FF18EB34FFF9C3E5089AE525
:101F7300099B40D2ECA2E050677402121707E0609D
:101F830036EEF8EF800A1220E0E824FF18E934FF68
:101F9300F9C3E50898E5099950181220CDE0642E9D
:101FA30070E4E824FEF582E934FFF5831220DAF9C0
:101FB30080D7122C6E801E8E828F83A3AE82AF8356
:101FC300EEF8EF80061220CD1220DAF9C3E5089867
:101FD300E5099940F07415121707122B857431F037
:101FE3007417121707E07005801A1EAF83EE24FFE3
:101FF300F582EF34FFF583E0643060EEE0642E7029
:10200300031EAF837402121707E070030220BF128E
:102013002145A3A98312210D8E828F835014742D21
:10202300F00EE9FF851082851183122BAE12213643
:102033008006742BF00EE9FF7C007D00EE240AFE7F
:10204300EF3400FFEC24010CED3400FD1220E71205
:102053001648EA1221431220E7121648122150496A
:1020630070E2C3EC9402ED122B1740D8ECFAEDFBAF
:10207300C3E49CF8E49DF9EE28F582EF39F583E09B
:10208300C0E0C3E49AF8E49BF9EE28F8EF39F9E8E5
:102093002CF8E93DF9E824F5F582E934FFF583D01E
:1020A300E0F0EC24FF1CED34FFFDC3EC9401ED12D2
:1020B3002B1750BCEE24F6FEEF34FFFFEEFAEFFBD6
:1020C30074031216D27F0802177FE824FFFAE9345B
:1020D300FFFB8A828B83221220E018EB22E08882A6
:1020E3008983F022851082851183122BBB7A0A7BA8
:1020F3000022C3E09AA3E09BA2D265D03322C3E0BF
:1021030098A3E099A2D265D03322851082851183EA
:10211300C3A3E09400A2D265D03322E024FFF0A34E
:10212300E034FFF022F0EAFEEBFF8E828F8322A3DE
:10213300E03400F9851082851183E8F0A3E9F022E9
:1021430024308E828F83F0A3AE82AF8322851082E8
:1021530085118312215A22E8F0A3E9F085108285C4
:102163001183E02274F012171374B01216BC851099
:1021730082851183122C207418121707ECF0A3ED3B
:10218300F0740F121707E4F0A3802274601217078C
:10219300122B567404121707E0F97418121707125A
:1021A3002B85121711740F121707122B1FF0122B06
:1021B30099FA122C59121707EAF074256A6010E095
:1021C30070C9740F121707122B5674500220C512D0
:1021D3002B9964257019851082851183E0240108E9
:1021E3001221327460121707122B56792580AB74B3
:1021F3000E121707E4F0740D121707E4F0740C12B3
:102203001707E4F07405121707E4F0741E1217079A
:10221300A882A98374021217078015740512170781
:10222300E070077405121707EAF0851082851183A1
:10223300122156122B4D122BE0FA24E060DD24FD0F
:10224300601724F860DD24FE600624FD600F801112
:10225300740C121707E00480D0740D80F5740E809F
:10226300F1122BE0642A705B7462121707122BEBD6
:10227300FB8A828B83E0FCA3E0FD740A121707EC50
:10228300F0A3EDF0EA24020A0AEB3400FB746212B5
:102293001707122C18740A121707122113501F74F0
:1022A3000A121707122B56C3E49AFAE49BFB740A2B
:1022B300121707122C20740C121707E004F01221D6
:1022C30037804A740A121707E4F0A3802D740A12A8
:1022D3001707122B6A75F00AA4F8AAF075F00AE939
:1022E300A42AF9E50828F8E439F9E824D0F8E93410
:1022F300FFF9740A121707122C7E122C3AF5838801
:1023030082E0F50874D02508C3940A40C0740C1207
:102313001707E06007740E121707E4F0122B996495
:102323002E60030223B2851082851183E024010805
:10233300A3E03400F9122150122B8AE0642A702C96
:102343007462121707122B9FF8A3E0F9888289831E
:10235300E0FEA3E0FFE824020808E93400F9746210
:10236300121707122BD3122C7EF080477E007F00BA
:10237300851082851183122BA874D02508C3940A73
:102383005031EE75F00AA4FEA8F075F00AEFA42808
:10239300FFE5082EF8E43FF9E824D0FEE934FFFF17
:1023A300851082851183E02401F812213280C17ED9
:1023B300FF7FFF7A00851082851183122B488510D9
:1023C30082851183E0FBA3E0F5838B82E024B46074
:1023D3000824E4600524FC70040A122137122B99A7
:1023E300FB122C59121707EBF070030229BD24BB13
:1023F300700302288324FE700302286524EF700310
:102403000225AF24F570030224B41470030226548A
:1024130014700302288314700302288114700302CA
:10242300286524FE700302265424FB6024147003E1
:1024330002259F1470030225AF24FD70030224EDCF
:1024430024FE70030225AF24FD70030225AF022989
:10245300C97462121707122C1212170712213DEAD0
:10246300A2E0740F5033121707E0FCA3E0FD33958D
:10247300E0FE7406121707122BF3ECF0A3EDF0A3A2
:10248300EEF0A3F07462121707122BFA1217071259
:102493002BD3E8F0A3E90221B0121707122B6674BD
:1024A30006121707122BEBF5838A82E8F0A3E98063
:1024B300D27462121707122BF3E0C0E0741E1217D6
:1024C30007D0E0F07462121707122BFA12170712E3
:1024D3002BD312213D741F121707A882A9837412EC
:1024E300121707E8F0A3E90229E074621217071232
:1024F3002C1212170712213D7406121707122C1201
:10250300121707E02402FAA3E03400FB74621217E7
:1025130007122C18740212170712213DE849700C98
:102523007402121707740BF0A37410F0122B1550DA
:10253300047E107F277408121707E4F0A380087441
:1025430008121707122B1FF07402121707122B66BB
:1025530088828983A3AA82AB837402121707122C81
:102563002088828983E0600A7408121707122B6F90
:1025730040CD7402121707122B367412121707126A
:10258300213D7408121707122BAEF97412121707A4
:10259300E028F8A3E039F974020224E3740D12175A
:1025A30007E06008EE4F70047E017F00746212172B
:1025B30007122C12121707122C66121707E0647009
:1025C30070387406121707122C08121707122C41C1
:1025D300121707E02402122BCA121707122BD31269
:1025E300213D90103A1215C9741A1217071215D506
:1025F3007405121707E4F00226E4EAA2E074065019
:102603001B121707122B851215C974141217071200
:1026130015D57406121707E0240480121217071247
:102623002C08121707122C41121707E02402122B51
:10263300CA121707122BD3122C66121707E0646F06
:10264300700590103E809EE064757096900FF68042
:10265300947462121707122C1212170712213DEA03
:10266300A2E074065016121707122B85780812156C
:10267300AB7406121707E02404F8801B1217071225
:102683002BA8A3E0F5093395E0F50AF50B740612C0
:102693001707E024020808122BCB121707122C4E3F
:1026A30012170778081215BA9005F17808120D2150
:1026B30040217405121707742DF07414121707784C
:1026C300081215AB780812159A74141217077808B4
:1026D3001215BA900FF61215C9741A1217071215AC
:1026E300D5744F121707A882A98374021217071211
:1026F300213D7412121707122C5112170778081272
:1027030015ABE5084509450A450B60097411121715
:1027130007740180067411121707E4F0EE4F700876
:10272300E0A2E040030227D87402121707122B7F9E
:10273300121707122C51121707780C1215AB741AC3
:1027430012170778081215AB780C7908121527743D
:10275300FA2508F582740F3509F583E0C0E07402A9
:10276300121707122B85D0E0F07414121707780C98
:102773001215AB741A12170778081215AB780C7977
:10278300081215277414121707780C1215BA74144B
:1027930012170778081215ABE5084509450A450BDA
:1027A3007086122B15502E740E121707E0602674D4
:1027B30005121707E06004D2F08002C2F0740A1217
:1027C3001707122B28800E7402121707122C3212CD
:1027D3001707122B927402121707122B36744F121B
:1027E3001707C082C0837402121707122B56D083B7
:1027F300D082E582C39AFAE5839BFBC3EA9EEB1280
:102803002B7840C3740D121707E070030229E1749B
:1028130011121707E0A2E040030229E17404121722
:1028230007E064786005E06458701E1220E0E82435
:10283300FF18E934FFF97402121707122C3212172A
:1028430007122B8574300229E0E0646F60030229CC
:10285300E17402121707122BE6643070030229E1B8
:1028630080D474081217077401F0A3E4F0740412FF
:102873001707E024FEF0EE4F700F7E018012E4F0A4
:102883007408121707E4F0A3F0122B1550047E0608
:102893007F007462121707122C1212170712213DC0
:1028A3007406121707122B85780C1215AB740612D7
:1028B3001707E02404122BCA121707122C4E121703
:1028C30007780C1215BA9005F178081215AB780C3D
:1028D3007908120F3950227405121707742DF074FA
:1028E3001412170778081215ABE50BB2E7F50B7452
:1028F3001412170778081215BA740A121707122B45
:1029030066741E121707E58228F8E58339F9740205
:1029130012170712213D740D121707E0F508780806
:102923001218807409121707E0F508780812188046
:10293300740412170712188F8E088F09780812185B
:102943007C740A121707E0F9741A1217071215C9D3
:10295300120CFC74061216D27412121707122C20D2
:10296300740E121707E060767405121707E060040F
:10297300D2F08002C2F0740A121707122B287412C5
:10298300121707C082C0837402121707122B66D076
:1029930083D082E0C398F8A3E099F9C3E89EE912D3
:1029A3002B78503A7402121707122B7F1217071253
:1029B3002C32121707122B9280C485108285118343
:1029C300122B3F1221367402121707741AF0A374E4
:1029D30010F07412121707741DF0A37410F0741220
:1029E300121707C082C0837402121707122B66D016
:1029F30083D082E0C398FEA3E099FF740A121707FD
:102A0300122B6F500A7408121707E4F0A380307476
:102A130005121707E06004D2F08002C2F0740A12B4
:102A23001707E0C39EF8A3E09FF9A2F0E433FAE8A6
:102A33009AF8E99400F97408121707E8F0A3E9F08B
:102A4300740C121707E0702B8019746012170712A9
:102A53002B5C121707122B85121711740F1217070D
:102A6300122C747408121707122C2612170712213E
:102A73001350D77405121707E060507460121707DC
:102A8300122B567405121707E0F974181217071260
:102A93002B85121711802C7460121707122B567492
:102AA30002121707122B9FF97418121707122B859E
:102AB3001217117402121707122B48740212170708
:102AC30012213D740F121707122C74EE24FF1EEF10
:102AD30034FFFFC3122B1750BE740C121707E0709C
:102AE300030221B17408121707122C2612170712BA
:102AF300211350030221B17460121707122B5C12C9
:102B03001707122B85121711740F121707122C7443
:102B130080D2C3EF9400A2D265D03322E02401F027
:102B2300A3E0340022A2F0E433F8E098FEA3E0949B
:102B330000FF22122B3A22122B3FF922E024FFF846
:102B4300A3E034FF22E0122B4D222401F8A3E0344A
:102B530000F922E0FAA3E0FB22E0FAA3E0FB7920EC
:102B6300741822122BBB22122BBBE822C3E09EA3B4
:102B7300E0122B78229FA2D265D03322122B3A7413
:102B83000222122B8922E0F8A3E0F5838882221225
:102B93002B897430F022851082851183122BA32296
:102BA300122BC1E022122BA3F50822122BBBC3E484
:102BB30098F8E49922122BC1E0F8A3E0F922E0F897
:102BC300A3E0F583888222F8A3E03400F97462223B
:102BD300122BD722E0FAA3E0F5838A8222851082A2
:102BE300851183122BD7E022122BD7E0FAA3E02220
:102BF300122BA3122B8A22122BA32402F8A3E03454
:102C030000F9746222122BB8E8FAE9FB7414221259
:102C13002BB8740622E0FCA3E0F5838C82EAF0A3D0
:102C2300EBF022E024FFF0A3E034FFF0740822E885
:102C3300F0A3E9F074022212215EF8A3E022EAF085
:102C4300A3EBF0A3E4F0A3F0740622122BD7E8F071
:102C5300A3E9F0741422851082851183E02401080E
:102C6300122C8CE8F0A3E9F07404228510828511FC
:102C730083E02401F0A3E03400F02212215A24015E
:102C8300F8122C8CE8F0A3E922A3E03400F98510B4
:102C9300828511832274F7121713EAFCEBFD7E1C65
:102CA3007F00780079008008E82401F8E93400F90E
:102CB300C3E89EE99FA2D265D0334003022D58E8B2
:102CC300FAE9FBEA75F022A4CA85F00875F000A4BE
:102CD3002508F50875F022EBA42508FB743D2AF5B9
:102CE30082740C3BF583E0FAA3E0F5838A82E0FA71
:102CF3008C828D83E06A70B0E8FAE9FBEA75F02212
:102D0300A4CA85F00875F000A42508F50875F0221B
:102D1300EBA42508FB743D2AF582740C3BF583E094
:102D2300FAA3E0F5838A82A3E0FA8C828D83A3E081
:102D33006A6003022CABE875F022A4C8AAF075F010
:102D430000A42AFA75F022E9A42AF9743F28FA7438
:102D53000C39FB80047A3F7B0C7F0102177FC08212
:102D6300C083120C60D083D0820200FB801C7808E1
:102D73007907E8FCE9FDEC24FFF8ED34FFF9EC4DAD
:102D830070F0EA24FFFAEB34FFFBEA4B70E0020039
:102D9300FB78087400D28078008009D293D292E93C
:102DA300C333F908E8C39408500BC2927480597076
:102DB300EAC29380E80200FB78087400C2807800BE
:102DC3008009D293D292E9C333F908E8C394085037
:102DD3000BC29274805970EAC29380E80200FB74BC
:102DE300F7121713E9FEEAFFEEC394805020EFC3F6
:102DF3009408501A74B02FF9120C3C740F5EF91238
:102E03000C3CEEC4540F54074410F9120C3C7F01E0
:102E130002177F74F7121713E9FF7E00800FEFF993
:102E2300120C360508E508C3948040F20EEEC394F5
:102E330008500CEEFA7900120C4275080080E67F08
:102E43000102177F74F1121713E9FF8A0EEFFE8058
:102E53000F7900120C360508E508C3948040F20E82
:102E63008E087509008F0C750D00850E0A750B0011
:102E7300E50C250AF8E50D350BF9C3E50898E509D6
:102E830099A2D265D033501674B02EF9120C3C7946
:102E930001120C3C7910120C3C75080080BA7F07B4
:102EA30002177F74F212171374EF1216BC8A0C8B7D
:102EB3000D89097F007E007F0075F00274FF2509EC
:102EC300A4FEAA0CAB0D120CF6EAF508E508C394B0
:102ED300114003750810750A11750B00780A121852
:102EE3007C7C007D007402121707AA82AB83120C4C
:102EF300E474021216D285080A750B00780A1218B8
:102F03007CAC0CAD0D7402121707AA82AB83120CB2
:102F1300DE74021216D27A02EEF9120C4E8510827A
:102F2300851183AC82AD83EEFAEFF9120C5A74115A
:102F33001216D27F0602177F74F012171374FE1253
:102F430016BC851082851183ECF0A3EDF0E9FEEA4F
:102F5300FF750D00750900750800750E00750F00EB
:102F6300750C008030850C0A750B00E50E250AF8F8
:102F7300E50F350BF9E82410F582E93400F583E019
:102F8300F9120C36050CE50CC3941040D874102EBE
:102F9300FE05080508E508A8087900851082851153
:102FA30083E028FAA3E0398A82F583E070030230D4
:102FB300EDEEC3947940037E000FEFFAEEF9120CA5
:102FC30042E508A8087900851082851183E028FA74
:102FD300A3E0398A82F583E0C394804054E508A8CE
:102FE300087900851082851183E028FAA3E039FB74
:102FF300120C248A0A8B0B850A0E850B0F750C00A5
:103003008019850C0A750B00E50E250AF582E50F7C
:10301300350BF583E0F9120C36050CE50CC394105F
:1030230040E074012FFAEEF9120C42750C00022FE6
:1030330089E508A8087900851082851183E028FABC
:10304300A3E0398A82F583E024E0F50D7509008059
:103053003AE50DA80D7900E875F010A4C8AAF0753B
:10306300F000A42AFA75F010E9A42AF985090A7573
:103073000B00E8250AF8E9350BF9744D28F582743D
:103083000639F583E0F9120C360509E509C39408FE
:1030930040BF74012FFAEEF9120C42750900803A11
:1030A300E50DA80D7900E875F010A4C8AAF075F035
:1030B30000A42AFA75F010E9A42AF985090A750B08
:1030C30000E8250AF8E9350BF9745528F5827406EA
:1030D30039F583E0F9120C360509E509C394084074
:1030E300BF74082EFE0508022F9874021216D27FB1
:1030F3000802177FC082C08353F3FE43FD0153F4DC
:103103007343FE8CD292C2977A327B00120C30D278
:103113009779AE120C3C7900120C3C7910120C3CDE
:103123007940120C3C7981120C3C79CF120C3C791A
:10313300A1120C3C79C8120C3C79A6120C3C79A85C
:10314300120C3C793F120C3C79D3120C3C790012DF
:103153000C3C79D5120C3C7980120C3C79D9120CB9
:103163003C79F1120C3C79DA120C3C7912120C3CCA
:1031730079DB120C3C7940120C3C7920120C3C791F
:1031830002120C3C798D120C3C7914120C3C79A47C
:10319300120C3C79A6120C3C79AF120C3C7900124C
:1031A3000C487A007900120C42D083D0820200FBD3
:1031B30074F7121713E9FEEAF8EBF9E8FAE9FB747E
:1031C3000B2E8A828B83F090036DE0F8A3E0F583E6
:1031D3008882A3A3A3A3A3E060067861798880040F
:1031E30078417988E88A828B83A3F0E4E9F88A82BC
:1031F3008B83A3A3F0900366E08A828B83A3A3A3AC
:10320300F090036DE0F8A3E0F5838882A3A3E0F8D0
:10321300A3E0F98A828B83A3A3A3A3E8F0A3E9F035
:103223008A828B83A3A3A3A3A3A3ECF0A3EDF090C3
:10323300036DE0F8A3E0F5838882E0F8A3E0F98A60
:10324300828B83A3A3A3A3A3A3A3A3E8F0A3E9F07F
:10325300790A7F0102177F74F2121713ECFEEDFF58
:103263008908A908EAFCEBFD7A6F7B03120BCAE914
:10327300FB7A0080348A0A750B00EE250AF582EF8B
:10328300350BF583E0C0E08B0A750B008A0C750DD6
:1032930000E50A250CF8E50B350DF9746F28F58266
:1032A300740339F583D0E0F00AEAC3950840C6EB0E
:1032B3002508F97F0602177F74F71217137EE27F42
:1032C30003120CBA120C187901EEFAEFFB120CA2DE
:1032D3008E828F83E0C2E7F08E828F83E064057075
:1032E300528E828F83E0F97AE37B03120CA28E82E3
:1032F3008F83A3E0A2E55004D2F08002C2F0A2F0D3
:10330300E4339005EDF078E6790388828983A3E0BE
:10331300A2E740030233CD8E828F83A3A3A3E0F8F9
:10332300900366E06860030233CD9003677401F095
:103333000233CD8E828F83E024F59005EAF08E82EE
:103343008F83E0F97AE37B03120CA28E828F83A32F
:10335300E0A2E55004D2F08002C2F0A2F0E4339080
:1033630005EDF08E828F83A3A3A3A3A3A3A3A3E05E
:10337300F8A3E0F99005E6E8F0A3E9F09005EB7413
:10338300ECF0A37403F09005EAE0F83395E0F990CC
:1033930005EBE028F8A3E039F988828983E09005FA
:1033A300EEF088828983A3E0A2E750128E828F8396
:1033B300A3E054DF644170069005EF7401F08E8240
:1033C3008F83A3A3A3E09005E5F0120C1E120CC09B
:1033D3007F0102177F74F7121713EAFEEBFF120C3B
:1033E3007EE9640170047901806F120C1E90036DF5
:1033F300EEF0A3EFF09005EB7400F0A37400F090EF
:1034030003687401F09005F11215C9900369121550
:10341300D590036DE0F8A3E0F5838882A3A3A3A36B
:10342300E0F9120C8A90036DE0F8A3E0F58388823B
:10343300E0FAA3E0FB120C9090036DE0F8A3E0F533
:10344300838882A3A3E0FAA3E0FB120C967AD67BCF
:103453000B120CC6120C1879007F0102177F74F44B
:10346300121713EAFEEBFF8C0A8D0B890890036891
:10347300E07003120CAEE508C39467500585080994
:103483008003750967850908120CCC120CBAA908C8
:10349300AC0AAD0BEEFAEFFB120BD0E9F97A6F7BB6
:1034A30003120C9C120CC0120CA8E960027E01905E
:1034B300036DE0F8A3E0F5838882A3A3A3A3A3E0AD
:1034C300601C9003677400F07A4A7B02120C7890B8
:1034D3000367E06004740080027401FE80027E00D2
:1034E300900368E07003120CB4EE7007900366E07B
:1034F3002401F0EEF97F0402177FC082C083900598
:10350300EFE0F9D083D0820200FB74F21217138A22
:103513000A8B0BECFEEDFF740E121707E0F508A300
:10352300E0F509120C1E9005EAE0F83395E0F9C3C3
:10353300E89EE99F500D9005EAE0F50C3395E0F520
:103543000D80048E0C8F0D780C12187C9005EBE027
:10355300FCA3E0FDAA0AAB0B120CDE74021216D216
:10356300E50845096026120C84E9F50A9005EEE0AA
:10357300F83395E0F9750B00E8C3950AF8E9950B64
:10358300F9850882850983E8F0A3E9F09005EF74D3
:1035930000F0120C189005EAE0F83395E0F9C3E85F
:1035A3009EE99F50079005EAE0F98002EEF97F0655
:1035B30002177FC082C0839003687401F0120CAEBF
:1035C300D083D0820200FB74F6121713749612167E
:1035D300BC8A088B09ECFEEDFF900301C082C08317
:1035E3007406121707AC82AD83D083D08274641241
:1035F30015EE7900120C4879017A947B05120C546C
:10360300780812187C7CA57D057408121707AA8216
:10361300AB83120CF074021216D2790274061217DD
:1036230007AA82AB83120C5479037AB37B05120C7D
:103633005479047ABE7B05120C5474021217077472
:1036430034F0A37412F07404121707740BF07405AA
:103653001217077401F0851082851183E508F0A322
:10366300E509F0851082851183AA82AB83120BDCF6
:10367300E96401700280FE120BF4801490036574F8
:1036830001F079017C657D03EEFAEFFB120BE2E9B1
:10369300120BE8E97025120C06E9F874016860DC86
:1036A30074026870EB9003657402F079017C657DA8
:1036B30003EEFAEFFB120BE2E980D5E4F508F50916
:1036C300780812187C7C017D007A657B03120BEE6F
:1036D30074021216D2E9C3940140B5900365E06405
:1036E3000170077901120C6C80A6900365E06402F7
:1036F300709E7902120C6C80977E00120BFA79018E
:103703007A947B05120C5479027AC97B05120C5406
:1037130079037AD77B05120C54120C06E9FE740167
:103723006E700B7C007D107A007B20120BC4740238
:103733006E70E67C007D207A007B10120BC480D96A
:10374300C082C083906189E04460F09061FA74099B
:10375300F09061B27415F09061AE7400F0906190D6
:1037630074F5F0120CD2120CC07900D083D082020F
:1037730000FBC082C083900FF5E0F9D083D08202B2
:1037830000FBC082C08375F005E9A424D490618F47
:10379300F0D083D0820200FBC082C083EA906174C0
:1037A300F0E4EBFA906175F0D083D0820200FBC0A5
:1037B30082C083EA906172F0E4EBFA906173F0D017
:1037C30083D0820200FB74F612171375E1EE759134
:1037D300FD780080138808750900EA2508F582EB57
:1037E3003509F583E0F5D908E8C39940E87F02027B
:1037F300177FC082C0838011E5D98A828B83F08AC8
:10380300828B83A3AA82AB8319E9C3940150E9D0C5
:1038130083D0820200FB75E1E9E591A2E150FA75DC
:1038230091FD79000200FB75E1EC75E1E30200FB19
:1038330075E1EF75E1EC0200FBC082C0839061A3E8
:10384300E0C2E6F0539AFED083D0820200FBC0822E
:10385300C0839061A3E0D2E6F0439A01D083D08283
:103863000200FBC082C083A2AFE433F8C2AF90046E
:103873008CEAF0A3EBF0E8A2E092AFD083D082020F
:1038830000FBC082C083906193E0542270F8D08320
:10389300D0820200FB0200FB74F41217138A088B18
:1038A300098C0A8D0B53F1FE43F30C53F2F3758627
:1038B3008075C48078081218BC000000000C00005A
:1038C30000B00400000E39600900001639C0120070
:1038D300001E39802500002639403800002E3900AB
:1038E3004B00003639807000003E390096000046D8
:1038F3003900E100004E39002C0100563900C201A5
:10390300005E390084030066396E3975C23B75C5A4
:1039130005805E75C23B75C506805675C23B75C58D
:1039230007804E75C23B75C508804675C2D875C5FC
:1039330008803E75C23B75C509803675C2D875C50A
:1039430009802E75C23B75C50A802675C2D875C518
:103953000A801E75C23B75C50B801675C2D875C526
:103963000B800E75C2D875C50C800675C23B75C534
:103973000A75C402438640D2AA75C10090050E742D
:1039830000F090050F7400F09005917400F090051D
:10399300927400F09005107400F09005937400F099
:1039A3007F0402177FC082C0838A828B83123A3FCF
:1039B300E9F08A828B83E02401FCA3E03400FD8AD2
:1039C300828B83ECF0A3EDF0D083D0820200FB74F2
:1039D300F612171374FC1216BC7402121707EAF0DE
:1039E300A3EBF0ECFAEDFB740E121707A882A98380
:1039F300851082851183E8F0A3E9F0851082851193
:103A030083858208858309780812187C7404121749
:103A130007858208858309780812187C7CEA7D0C67
:103A2300120D0274041216D27402121707123A3FCF
:103A3300E4F074041216D27F0202177FE0F8A3E0C9
:103A4300F583888222E5C65480F853BEFBE59DA228
:103A5300E550FAE59DA2E240F40074016970077431
:103A63004948F5C68005E9700288C6E5C6F8E59EB3
:103A7300FAE86A70F943BE040200FBE9F8E59EA286
:103A8300E640047901801CE8700553C67F80087402
:103A93000168700343C680E5C6F9E59EFAE96A70DA
:103AA300F979000200FB53F3FD53FDFD438F0253ED
:103AB300F5FE53FFFE43F7010200FB790053F3FDCC
:103AC30053FDFD438F0253F5FE53FFFE43F701A25F
:103AD30081401578008007A2814002780008E8C37E
:103AE30094C840F379018017A2A04013780080079F
:103AF300A2A04002780008E8C394C840F379020208
:103B030000FBC082C0837900120C12E9600F7901B7
:103B1300120C0C7900120C12E9600280FE7900127B
:103B23000C0CD083D0820200FBEBC313FBEA13FA25
:103B3300EAF8EBF9E824FFFAE934FFFBE8496012FD
:103B43000000000000000000000000000000000072
:103B530080DE0200FB74F6121713740A121707E0D3
:103B6300FEA3E0FFEAF8EBF980188C828D83E088EE
:103B7300828983F0A3A882A9838C828D83A3AC82DC
:103B8300AD838E088F09E50824FF1EE50934FFFF86
:103B9300E508450970D47F0202177F43FE01D290E6
:103BA30043FE02D29143FE10D2940200FBE914605B
:103BB3000814600A14600C800D6390018008639000
:103BC3000280036390100200FB74F7121713740949
:103BD300121707E0F8A3E0F98A828B838003ECF0E5
:103BE300A3E8FEE9FFEE24FF18EF34FFF9EE4F7070
:103BF300ED7F0102177FC082C083120C72120C6624
:103C0300120C2A120C009005F51215C9120CD812C9
:103C13000C18D083D0820200FBC082C0838A828BBF
:103C2300838001A3E070FCE582C39AFAE5839BFBE2
:103C3300D083D0820200FBD2AF0200FBC2AF0200EE
:013C4300FB85
:04000005000000E314
:00000001FF
