:020000040000FA
:030000000200E318
:03001300021BDEEF
:03003300021B109D
:03003B00021C3A6A
:03006B000219F087
:03007B00021A80E6
:10008300021BA000000080FB120113B90003020051
:10009300CDE4900301786679038002F0A3D8FCD9FC
:1000A300FA900566AA82AB8390011678C5790B8016
:1000B30015E493A3AC82AD838A828B83F0A3AA82D7
:1000C300AB838C828D83D8E9D9E775828A758339AE
:1000D30074001200F575828675830074001200F5B2
:1000E30075D00075813F751001751103759F00026E
:1000F300008BC09FF59FE473D09F22D083D082C032
:100103009FE493C0E0740193C0E0740293F59F22CF
:10011300790122FF00000000000000000000000041
:1001230000000000C20100202000CBAB00CFF20092
:10013300CEDE00CFDF00B5E300B5C600D1A100D409
:10014300F100C4A300BFE900B1BE00BBFA00B5D8FB
:1001530000D6B700BFD800D6C600CEC200B6C800CE
:10016300A3BA00CAAA00B9E200D5D500B4F300D0FF
:10017300A100D3DA00B1A800BEAF00000000000068
:100183000000000000000000000000000000F80074
:10019300000000000000333000000000100C0610C7
:1001A3000C0600000000000000000040C07840C0C2
:1001B300784000043F04043F040400007088FC08F6
:1001C300300000001820FF211E0000F008F000E0BE
:1001D30018000000211C031E211E0000F008887077
:1001E3000000001E2123241927211010160E0000E1
:1001F3000000000000000000000000000000E01804
:10020300040200000000071820400000020418E068
:100213000000000040201807000000404080F080EC
:100223004040000202010F01020200000000F00042
:100233000000000101011F01010100000000000096
:1002430000000080B070000000000000000000000B
:100253000000000001010101010101000000000094
:1002630000000000303000000000000000000080AB
:10027300601804006018060100000000E010080880
:1002830010E000000F102020100F00001010F800E5
:100293000000000020203F20200000007008080814
:1002A300887000003028242221300000300888881C
:1002B3004830000018202020110E000000C020103C
:1002C300F8000000070424243F240000F80888886D
:1002D3000808000019212020110E0000E010888872
:1002E300180000000F112020110E0000380808C864
:1002F3003808000000003F00000000007088080874
:10030300887000001C222121221C0000E010080834
:1003130010E0000000312222110F00000000C0C0D5
:1003230000000000000030300000000000008000EA
:1003330000000000008060000000000000804020FA
:100343001008000001020408102000404040404013
:100353004040000404040404040400000810204086
:100363008000000020100804020100007048080803
:1003730008F0000000003036010000C030C828E853
:1003830010E0000718272423140B000000C038E0F6
:10039300000000203C23020227382008F8888888C0
:1003A300700000203F202020110E00C030080808F4
:1003B300083800071820202010080008F80808084B
:1003C30010E000203F202020100F0008F88888E864
:1003D300081000203F20202320180008F88888E810
:1003E300081000203F200003000000C03008080868
:1003F30038000007182020221E020008F808000019
:1004030008F808203F210101213F20000808F808CF
:100413000800000020203F2020000000000808F80A
:10042300080800C08080807F00000008F888C0288A
:10043300180800203F20012638200008F808000093
:10044300000000203F20202020300008F8F800F8AA
:10045300F80800203F003F003F200008F830C000AC
:1004630008F808203F200007183F00E0100808089C
:1004730010E0000F10202020100F0008F8080808D3
:1004830008F000203F210101010000E010080808E6
:1004930010E0000F18242438504F0008F88888888B
:1004A300887000203F2000030C302000708808086B
:1004B3000838000038202121221C00180808F808F9
:1004C3000818000000203F2000000008F808000082
:1004D30008F808001F202020201F0008788800004B
:1004E300C83808000007380E010000F80800F800BB
:1004F30008F800033C0700073C03000818688080E5
:1005030068180820302C03032C30200838C800C892
:100513003808000000203F2000000010080808C829
:100523003808002038262120201800000000FE0291
:100533000202000000007F40404000000C30C00079
:10054300000000000000010638C00000020202FEA5
:10055300000000004040407F000000000004020251
:100563000204000000000000000000000000000082
:100573000000008080808080808080000202040070
:1005830000000000000000000000000000808080E8
:100593008000000019242222223F2008F8008080D6
:1005A300000000003F112020110E00000000808099
:1005B300800000000E112020201100000000808028
:1005C30088F800000E112020103F2000008080805A
:1005D300800000001F222222221300008080F08866
:1005E3008888180020203F202000000000808080A1
:1005F300808000006B94949493600008F8008080DE
:10060300800000203F210000203F200080989800B8
:100613000000000020203F20200000000000809800
:1006230098000000C08080807F000008F8000080F0
:10063300808000203F24022D302000000808F800AD
:100643000000000020203F20200000808080808068
:10065300808000203F20003F20003F80800080807A
:10066300800000203F210000203F20000080808088
:10067300800000001F202020201F00808000808039
:1006830000000080FFA12020110E000000008080E8
:10069300808000000E112020A0FF808080800080D9
:1006A30080800020203F2120000100000080808006
:1006B3008080000033242424241900008080E080FB
:1006C3008000000000001F20200000808000000048
:1006D300808000001F202020103F208080800000A9
:1006E30080808000010E30080601008080008000B9
:1006F3008080800F300C030C300F0000808000805E
:100703008080000020312E0E312000808080000088
:1007130080808080818E7018060100008080808038
:100723008080000021302C22213000000000008056
:100733007C020200000000003F404000000000FF78
:1007430000000000000000FF0000000002027C80A7
:100753000000000040403F000000000006010102CD
:1007630002040400000000000000007A05000000FD
:100773000000000000000000000000000000000076
:10078300000000000000000000000000007D0504E0
:1007930034C404C43C0004FC040404C43C0000400E
:1007A300300C030C30804020130C13204080008059
:1007B3000500F808080CCA494848C8080808F800A2
:1007C3000000FF0000001F0808081F0040807F0092
:1007D3000083050040424242C27E42C2424242403E
:1007E300400000804020100C0300003F4040404088
:1007F30070000086052030AC632018809090FF9035
:10080300494A484000226722121212404020130C2A
:10081300142241F80089050000C04040407F484849
:100823004848C808080000804037040414640414CE
:1008330064040710E000008C05807000FF201004A2
:10084300040404FC04040404008060180708300056
:100853000040807F00000000008F05404042CC0034
:10086300504EC8487FC848484000000040201F2021
:10087300504C4340404F50505C400092051010FFD5
:10088300100082864A52A2524A8680800042827FAA
:10089300010010121212FF1212121000009505101F
:1008A30010D0FF9014E4AFA4A4A4AFE404000004A8
:1008B3000300FF00894B2A1A0E1A2A4B88800098DE
:1008C30005202020FF2020080808FF080808F8005A
:1008D300001030100F884821110D030D11214181A3
:1008E300009B050010101010D030FF30D0101010F6
:1008F30010000010080402090808FF080809020490
:100903000810009E051010D0FF901000FE02020296
:10091300FE00000000040300FF0083601F000000CE
:100923003F40407800A105202020FF202080F88050
:1009330040FF2010F000001030100F0808003F4067
:10094300405F4244437800A405202020FF2020007C
:10095300F80000FF40404000001030100F084840EE
:100963007F40407F4040404000A705101010FF909B
:1009730020984828090E2848A818000242817F00C1
:1009830040404242427E4242424000AA0540504E0D
:100993004848FF48484840F80000FF000000003E78
:1009A3000202FF12221E000F40807F0000AD0510DF
:1009B300218670007E4A4A4A4A4A7E0000000002AD
:1009C300FE01407F41417F41417F41417F4000B073
:1009D300050000FC042424FCA5A6A4FC2424240470
:1009E3000080601F808042462A12122A2642C0409D
:1009F30000B305000000000000000000000000003C
:100A03000000000000363600000000000000000077
:100A1300000000B605106002CC00003E2AAA2AAAF4
:100A23002A3E0000000808FE0140424C407F407F00
:100A33004844424000B9054040424458C0407F40CA
:100A4300C050484640400080804020180700000006
:100A53003F404040407800BC0500FE424242FE0059
:100A630042A29E82A2C2BE0000806F080828CF0067
:100A7300002FC8080828CF0000BF05202020202011
:100A83002020FF20202020202020008080402010D4
:100A93000C0300030C102040808000C205000000FE
:100AA300E0000000FF000000204080000008040375
:100AB300000040807F0000000000010E00C50540DB
:100AC300404242424242FE424242424240400000D1
:100AD3000000000040807F0000000000000000C80C
:100AE30005101010FF109000FE82828292A29E00D9
:100AF300000444827F010000FF80432C102C4380BC
:100B030000CB0512EAAFAAEA0FFA02888C572454E5
:100B13008C84000202EAAAAAABAAABAAAAAAAAEAEE
:100B23000202004952583A257520434D443A25752F
:100B330000532C25752C25752C25752C25752C25F6
:100B4300752C25752C25752C25752C25750A004DBE
:100B53004F44450052454C41590042555A5A45525B
:100B6300004C454400432C002C00536D61727443C8
:100B730069747920475720763200524620494E49FE
:100B830054204641494C4544000A000000303132AC
:100B93003334353637383941424344454600286EAD
:100BA300756C6C20706F696E74657229003F3F3FEE
:100BB300000000807F0000803FF9021550B743BA60
:100BC300510000204100E7DB2E0000A04010000090
:100BD300000800000065051200FE0B32001200FE43
:100BE300B232001200FE1333001200FE3034001242
:100BF30000FEB934001200FE5535001200FE6535C3
:100C0300001200FE0E36001200FE1841001200FE14
:100C13005941001200FE273F001200FE5D3F001203
:100C230000FE8041001200FE8541001200FEF02C00
:100C3300001200FEB92D001200FEC72D001200FEA7
:100C4300EC2D001200FE132E001200FE3A2E0012AD
:100C530000FE6E2E001200FE9F2E001200FEFE2EDE
:100C6300001200FE932F001200FE4F31001200FE0F
:100C73006E41001200FE883F001200FEAF3F0012DB
:100C830000FE443C001200FE763C001200FE863C4F
:100C9300001200FE9C3C001200FEB33C001200FE5A
:100CA300CA3C001200FEF63C001200FE1A3D001280
:100CB30000FE2B3D001200FE343D001200FE3D3DC0
:100CC300001200FE523D001200FE673D001200FEBE
:100CD300863D001200FE993D001200FEFD39001210
:100CE30000FE0A3B001200FE6F3B001200FE22369C
:100CF300001200FE2D36001200FE4D36001200FEDB
:100D03006F36001200FEB436001200FEC837001220
:100D130000FE3C38001200FEDB3F001200FEEB40F9
:100D2300001200FE9C3D001200FEC63D001200FEB4
:100D33002140001200FE6740001200FE3B410012FA
:100D430000FEB43E001200FEA940001200FEA11CEA
:100D5300001200FEBF21001200FE3C3E00E4936639
:100D630070130874019366700C087402936670051F
:100D7300087403936622C008C3E096F50808A3E04D
:100D830096420808A3E096420808A3E0964208A208
:100D9300D265D033E5087001D3D00822C3E493961B
:100DA3000874019396087402939608740393962229
:100DB300080808E630E7111215EF120DCB080808F2
:100DC300C64480C618181822181818E9799EC60850
:100DD300CAC608CBC608CCC6C370207996CACBCC8A
:100DE3007019798ECBCC70137986CC700EF9802A6A
:100DF300CA33CACB33CBCC33CC331930E7F2CCCBA9
:100E0300CA3350147004EA30E00DE4CA3ACACB3B4B
:100E1300CBCC3CCC500209C3E913C6CC182313C670
:100E2300CB18C6CA18C6F922120E6B20F01430E78D
:100E33002B74FFFCFBFA747F8022E4FCFBFA7480C2
:100E4300801AB48008BC00F2BB00EF800F50EBF9AE
:100E5300E4C39AFAE49BFBE49CFCE499C6CC18C671
:100E6300CB18C6CA18C6F922E4C9C608CAC608CB35
:100E7300C6D3330308CCC63392F0C3947F402E9479
:100E8300184019C9B90704CACBCC225025C309CAD3
:100E930033CACB33CBCC33CC33D9F422F4600DC972
:100EA300CCC313CB13CBCA13CAD9F6CC22E4FCFBB5
:100EB300FA2214FCFBFA22E6C333184618461846F6
:100EC30022E7C33319471947194722181818E608A8
:100ED3004608700AE608C3337005E633F422082295
:100EE300191919E7094709700AE709C3337005E7B8
:100EF30033F4220922E6084608C313460833600286
:100F0300E633F422E7094709C3134709336002E7CD
:100F130033F422120EF86025120F076020120EBA66
:100F23007003020EC4080808E76670101819E76614
:100F3300700A1819E76670041819E76622F422127A
:100F43000EF8601C120F076017120EBA7007120E0C
:100F5300C47001D322C0D0120EC47006D0D0B32205
:100F6300C32233D0D0501430E0F6C3E7960809E724
:100F7300960809E7960809E796B32220E0D5E69795
:100F83000809E6970809E6970809E697B322120EBF
:100F9300F8601B120F076016120EBA7007120EC408
:100FA300600CB322C0D0120EC47005D0D022C3226D
:100FB30033D0D0501330E0EBC3E7960809E7960827
:100FC30009E7960809E7962220E0E4E6970809E690
:100FD300970809E6970809E6972200120EF8604F72
:100FE300120F076012E7548066F6120ECE701112CC
:100FF3000EC4703B090909F4F618F618F618F62220
:10100300120EE37015120EBA08080860EAE6447F70
:10101300F618768018E4F618F622120EBA60161245
:101023000EC47012E4F608F608F608E65480F609D2
:10103300090918181822EAC0E0EBC0E0ECC0E0EDA3
:10104300C0E0E687F0A4FBACF008E687F0A42CFC34
:10105300E435F0FA1809E687F0A42C4B600274011A
:10106300CA35F0FCE433FB09E687F0D2F7A42CCBB6
:1010730035F0FC1908E687F0A42BCC35F0FBE433FC
:10108300FD0819E687F0D2E7A42C4ACB35F0CD341E
:1010930000FC09E687F0D2E7A42DCC35F0FDE4335C
:1010A300FA0918E687F0D2F7A42CCD35F0CA34003C
:1010B300FC08E687F0D2E7D2F7A42ACC35F07A7E93
:1010C30020E70B0ACB33CBCD33CDCC33CC33CB336F
:1010D30050147004ED30E00ED2F1E4CD3DCDCC3CA4
:1010E300CC3B5005DA05C2F1EB547FC63308E63337
:1010F30092F0FBE73309E733C39A502D2B70190C99
:101103000D4C4D70151806E608C333700D20F10A17
:10111300A2F013F6E418800B4024E4F630F00276D4
:101123008018F618F618F68024D33B14501074FF79
:10113300A2F013F6187680E418F618F6800FA2F0E2
:1011430013F618E63303F618ECF618EDF6D0E0FDC7
:10115300D0E0FCD0E0FBD0E0FA22120F0760461289
:101163000EF8603DE9687008F618F618F618F622CE
:10117300748067F7121191090909748067F72212C5
:101183000EF8601D120F077005191919801A120E37
:10119300CE701F120EE3C37003E6673319191940AB
:1011A300071818182208080874FFF618F618F61816
:1011B300F622120EE36017120EC4702192F0120E83
:1011C300BA7019501720F014080808090909E7F63E
:1011D3001819E7F61819E7F61819E7F622120EBAE6
:1011E30060E6E869701F0808E62480F608E436F62E
:1011F30018547FB47F0CE654806007F6E418F618A1
:10120300F622181822E9C6CC08C6CD08C6CE08C6F1
:10121300CFC0E0E8C0E0EAC0E0EBC0E009E9F809CC
:10122300E7FA09E7FBE6F918E6F8C3EC98ED99EE5F
:101233009AEBC2E7F5F0EFC2E795F0500E600CEBC6
:10124300CFFBEACEFAE9CDF9E8CCF8EAA2E7D2E798
:10125300FAEB33FB13F5F0EEA2E7D2E7FEEF33FF31
:10126300C5F013A2E730E601B313C5F0C3C0E0C075
:10127300F07F00C39BFB605B9418600C401AD0E0C6
:1012830023F9D0E0F80213608AF0E9486003D2F052
:10129300E4AFF0FAF9F8803BEB30E40D89F0EA6053
:1012A30003D2F0E4AFF0F9CAF8EB30E30D88F0EFC6
:1012B3006002D2F0AFF0E4CAC9F8EB54076014FB44
:1012C300C3EA13FAE913F9E813F8EF135002D2E073
:1012D300FFDBEDD0E0C0E030E739C3E49FFFF5F07A
:1012E300EC98FC42F0ED99FD42F0EE9AFE42F0D00C
:1012F300E0F9D0E0F8E5F0607AE923F9EE20E7427F
:10130300D8028067C3EF33FFEC33FCED33FDEE33DC
:10131300FE80EAEC28FCED39FDEE3AFED0E023F93D
:10132300D0E0F84002801BC3EE13FEED13FDEC1377
:10133300FCEF135002D2E0FF08B800067F7F74FF72
:10134300802EEF3350178CF020F00260100CBC009D
:101353000C0DBD00080EBE000408E860DFE933E8A9
:1013630013FFEE2313FE4F4D4C8008E95480FFE436
:10137300FEFDFCEE33EF33F47004FCFD7E80D0E021
:10138300FBD0E0FAD0E0F8D0E0CFC618CEC618CD37
:10139300C618CCC6F922120EF870041818182212B7
:1013A3000F07700D74FFF61819F61819F61819F6C9
:1013B30022E7548066F6120EBA700F120EC470F054
:1013C30014F608F608F608F680D1120EC4700CF66F
:1013D30008F608768008E6447F80EC120EE6700C6F
:1013E300120ED160BFE65480F6E480BB120ED170BA
:1013F3000519191980A5E869700C763F18768018CD
:10140300F618F6E8F922E6CDC0E018ECC0E0E633C2
:10141300CD33CDD313F6E719FCE7191933CC33C316
:10142300947F400ECD9D502408E65480F6E418F6D0
:10143300800FF4043D14501408E6447FF6187680B8
:10144300E418F618F6D0E0FCD0E0FD22CCD313CCA0
:10145300FD18E4C6CBC0E018E4C6CAC0E00808ED36
:1014630008C633E613F618E433C675F003C3CA9708
:10147300CA09CB97CB199C40047D08802EBD00037D
:1014830002154216B6FF050606081618C3CA33CA64
:10149300CB33CB33CA27CA09CB37CB193CC37D081F
:1014A300803E187D0820E75CC633C6CA33CACB33F7
:1014B300CB33DDF1D5F0EB30E77BCA97CA09CB9785
:1014C3004ACB199C406F4B7025E620E021806618BB
:1014D3007D08C3CA97CA09CB97CB199CD3C633C619
:1014E300CA33CACB33CB3350C9DDE7D5F0E1D3E4FC
:1014F300C636C608C636C608C636C608C636C618B1
:1015030018188031C3CA97CA09CB97CB199CB3402B
:1015130097C633C6CA33CACB33CB33DD34D5F02EAB
:10152300C6A2E0C640C8CA27CA09CB37194A70BE4B
:10153300CB3CB480B90808E63308E633601F1818BB
:1015430018D0E0FAD0E0FBD0E0FCD0E0FD22187D1B
:1015530008CA27CA09CB37CB193CD3808013F618A6
:10156300E4B67F11F618B6FF0EF618C60470D2085B
:1015730008768080CAF618F618F680C5E4CFC0E076
:10158300E4CEC0E0E4CDC0E0E4CCC0E075F020C31D
:10159300E633F608E633F608E633F608E633F618DC
:1015A3001818EC33FCED33FDEE33FEEF33FFC3ECE1
:1015B3009709ED9709EE9709EF97191919400FFF4E
:1015C300EC97FC09ED97FD09EE97FE191906D5F086
:1015D300BEECF709EDF709EEF709EFF7191919D082
:1015E300E0FCD0E0FDD0E0FED0E0FF22181818E4C4
:1015F300C396F608E496F608E496F608E496F6220F
:10160300E0F608A3E0F608A3E0F608A3E0F622E676
:10161300F008A3E6F008A3E6F008A3E6F022E0FA58
:10162300A3E0FBA3E0FCA3E0FD22EAF0A3EBF0A31D
:10163300ECF0A3EDF022CAC0E0E6F0A308DAFAD09A
:10164300E0FA22CAC0E0E0A3C582CCC582C583CD3F
:10165300C583F0A3C582CCC582C583CDC583DAE635
:10166300D0E0CA22C3E498F8E499F91216A88026B8
:10167300C3E49AFAE49BFBE920E7E91216A8E4988D
:10168300F8E499F922C3E498F8E499F91216A8E466
:1016930098F8E499F9C3E49AFAE49BFB22EB20E778
:1016A300CFE920E7E0B90010BB0008E88AF084F82E
:1016B300AAF022E4FBC8FA22EB70227B10C833C8DD
:1016C300C933C9335007C39AC3DBF280069A50016A
:1016D3002ADBEAC833F4C8C933F4C9FA2275F0081F
:1016E300E4C833C8C933C933C99AC99B5004C92A4A
:1016F300C93BD5F0ECFBC833F4C8E4C9FA22700443
:1017030022600D18C6C333C608C633C6D5E0F41825
:1017130022251010AF08F510400215118008F510AE
:1017230040021511D2AF22C0D0251010AF08F5101A
:10173300500205118008F51050020511D2AFD0D028
:10174300222510F58210AF08F5104002151180080C
:10175300F51040021511D2AF851183222510F582B1
:10176300E43511F58322E4732510C582C0E0E51149
:1017730034FFC583C0E0E510C3958224F810AF0899
:101783008583118582108008858311858210D2AFED
:10179300CEF0A3E520F0A37808E608F0A3DEFAEF85
:1017A300F0A3E58124FAF8E608F0A3E608F0A3E63F
:1017B30008F0A30808E608F0A3E608F0A3158115CE
:1017C30081D0E0FED0E0F8158115811581E8C0E0F5
:1017D300EEC0E022851183851082E0A3FEE0A3F52D
:1017E300207808E0A3F608DFFAE0A3FFE0A3C0E057
:1017F300E0A3C0E0E0A3C0E0E0A3C0E0E0A3C0E05A
:1018030010AF088582108583118008858210858337
:1018130011D2AFD083D0820200FBC0D02510C58285
:10182300C0E0E51134FFC583C0E0E510C395822411
:10183300F310AF0885831185821080088583118595
:101843008210D2AFC8F0A3E9F0A3EAF0A3EBF0A3B0
:101853007908E709F0A3D8FAECF0A3EDF0A3EEF0D2
:10186300A3EFF0A3D0E0F0A3D0E0F0A3D0E0F0A387
:10187300E520F0A3E5F0F0A322851183851082E033
:10188300C0E0A3E0F9A3E0FAA3E0FBA37808E0F645
:1018930008A3DFFAE0FCA3E0FDA3E0FEA3E0FFA3BF
:1018A300E0C0E0A3E0C0E0A3E0F5D0A3E0F520A30F
:1018B300E0A3F5F010AF08858311858210800885B9
:1018C3008311858210D2AFD082D083D0E0F8D0E0EC
:1018D30032740280027401C0E0F404121744D0E0B1
:1018E3001216392274028000CCC0E0EDC0E0E5108E
:1018F300C39CCCAD1150011D10AF068C108D11800F
:10190300068C108D11D2AF121646D0E0FDD0E0FC4C
:1019130022D083D082ECC0E0EDC0E0EEC0E0EFC0A7
:10192300E0E493A3FCE493A3FDE493A3FEE493A375
:10193300FFEF4E4D4C6015121990EC24FFFCED3473
:10194300FFFDEE34FFFEEF34FFFF80E5E493A3FCDD
:10195300E493A3FDE493A3FEE493A3FFEF4E4D4C66
:1019630060151219CDEC24FFFCED34FFFDEE34FFBE
:10197300FEEF34FFFF80E5D0E0FFD0E0FED0E0FDD6
:10198300D0E0FCE493A3C0E0E493C0E022C0E0C055
:10199300F088F0120D9FA8F04007120D60A8F070B8
:1019A3001AA3A3A3A3120D9FA8F0A3A3A3A3401359
:1019B300D0F0D0E0D0E0D0E002197AA3A3A3A3A390
:1019C300A3A3A3A3A3D0F0D0E022C0E0C0F088F08B
:1019D300120D60A8F0A3A3A3A3700BD0F0D0E0D0A6
:1019E300E0D0E002197AA3A3D0F0D0E022C0E074E3
:1019F300F112181DC2C5E589607E7E0080747508EA
:101A030001750900EE7808121701E508AF08E589AA
:101A13005F605EEEF87900E875F002A4C8AAF0757D
:101A2300F000A42AFA75F002E9A42AF974FD28F556
:101A330082740339F583E0F8A3E0F9E849602EEEF8
:101A4300F87900E875F002A4C8AAF075F000A42A9A
:101A5300FA75F002E9A42AF974FD28F582740339B2
:101A6300F583E0F8A3E0F5838882121769EFF45257
:101A7300890EEEC3940840867F0202187CC0E0748E
:101A8300F112181DC2EBE58A607E7E008074750832
:101A930001750900EE7808121701E508AF08E58A19
:101AA3005F605EEEF87900E875F002A4C8AAF075ED
:101AB300F000A42AFA75F002E9A42AF9740D28F5B6
:101AC30082740439F583E0F8A3E0F9E849602EEE67
:101AD300F87900E875F002A4C8AAF075F000A42A0A
:101AE300FA75F002E9A42AF9740D28F58274043911
:101AF300F583E0F8A3E0F5838882121769EFF452C7
:101B03008A0EEEC3940840867F0202187CC0E074FC
:101B1300F112181DC2E8E58B607E7E0080747508A3
:101B230001750900EE7808121701E508AF08E58B87
:101B33005F605EEEF87900E875F002A4C8AAF0755C
:101B4300F000A42AFA75F002E9A42AF9741D28F515
:101B530082740439F583E0F8A3E0F9E849602EEED6
:101B6300F87900E875F002A4C8AAF075F000A42A79
:101B7300FA75F002E9A42AF9741D28F58274043970
:101B8300F583E0F8A3E0F5838882121769EFF45236
:101B93008B0EEEC3940540867F0202187CC0E0746E
:101BA300F212181DA2AFE433FEC2AFE5E9A2E6507C
:101BB30020900427E0F8A3E0F9E849600E90042799
:101BC300E0F8A3E0F5838882121769759B0053E957
:101BD300BFEEA2E092AF7F0102187CC0E0C0D0E864
:101BE300C0E0E9C0E0C082C083E5C1C0E09004AAC0
:101BF300E0F87900742928F582740439F583D0E07C
:101C0300F09004A9E0F89004AAE0687006E59590C6
:101C130004ABF09004AAE024019004AAF0C39480DA
:101C230040069004AA7400F0D083D082D0E0F9D0AB
:101C3300E0F8D0D0D0E032C0E0C0D0E8C0E0C008C7
:101C4300C009C082C08390052CE0F890052DE068A0
:101C5300700B539AFB90052E7401F08031C2E9900A
:101C6300052CE0F5087401250890052CF075090092
:101C730074AC2508F58274043509F583E0F5C19049
:101C8300052CE0C39480400690052C7400F0D083AB
:101C9300D082D009D008D0E0F8D0D0D0E03274F0B0
:101CA30012176B74FD121714740212175FE9F08A8E
:101CB300088B098C0A8D0B741512175FE0FEA3E0E5
:101CC300FF851082851183E4F0A3F08E828F83A3B6
:101CD300AA82AB83901004780C1216037808790C4F
:101CE300120F1670188E828F837469122180746E9E
:101CF300F0A37466F0A30A0AAB8302211B78087968
:101D030008120F1660118E828F83746E12218074F5
:101D130061F0A3746E80DD901008780C12160378BE
:101D230008790C120F425003021DCB900572780CF8
:101D33001216037808790C120F166003021E1F7423
:101D43001712175FE07003021E61851082851183ED
:101D5300C082C083741312175F122BBED083D0824C
:101D6300122159502C851082851183C3E094FCA362
:101D7300E094FFA2D265D0334017740212175FE4D8
:101D8300122C92F9741312175FC3E098F0A3E09931
:101D9300F0741312175F122176741812175FE07034
:101DA30003021E5E741712175FE4021E6090100C8C
:101DB300780C1216037808790C1213998510828512
:101DC3001183E0240A122CCF901010780C12160302
:101DD3007808790C120F4240D4901014780C121624
:101DE300037808790C120F424003021D429010142D
:101DF300780C1216037808790C121399122CC680EA
:101E0300D890100C780C1216037808790C120FDD99
:101E1300851082851183E024F612217990101878B9
:101E23000C1216037808790C120F9140D490100805
:101E3300780C1216037808790C120F914003021DD7
:101E430042901014780C1216037808790C120FDDE7
:101E530085108285118312217680D27401F0740279
:101E630012175FE060077A007B00021F6D12216585
:101E7300507D8E828F837430F0EAFEEBFF74131271
:101E8300175FE0FCA3E0FDEC4D7008741812175FB8
:101E9300E0600B8E828F83742EF0A30EAF837A00E3
:101EA3007B0080118E828F8374301221A1741312F0
:101EB300175F122176EA24FF1AEB34FFFB851082A9
:101EC30085118312214D500B741312175F122BC20D
:101ED3004970D185108285118374FFC39CF874FF08
:101EE3009DF9122159500302203B7A01021E6B8592
:101EF3001082851183122BBEC3E498FAE499FB8008
:101F03006985080C85090D850A0E850B0F780C125F
:101F13000E2BAC0CE50D3395E0F50EF50F780C1296
:101F23000DB37808790C12115D901014780C121609
:101F3300037808790C120FDDEC12219BEAF8EBF918
:101F4300E824010AE93400FBE849701E74131217F0
:101F53005F122BC2497008741812175FE0600B8E72
:101F6300828F83742EF0A30EAF83741312175F1244
:101F7300214D508D90101C780C1216037808790CA3
:101F8300120F42400302203B7C01EE24FFF8EF34A2
:101F9300FFF9741512175FE0F508A3E0F5098882CD
:101FA3008983E0642E6010E02CF0643A700774308B
:101FB300F07C0180027C00E8FAE9FBEA24FF18EBDD
:101FC30034FFF9C3E5089AE5099B40D2ECA2E0503F
:101FD30067740212175FE06036EEF8EF800A122191
:101FE30038E824FF18E934FFF9C3E50898E50999AF
:101FF3005018122125E0642E70E4E824FEF582E9EE
:1020030034FFF583122132F980D7122CC6801E8E3D
:10201300828F83A3AE82AF83EEF8EF800612212571
:10202300122132F9C3E50898E5099940F0741512B5
:10203300175F122BDD7431F0741712175FE0700510
:10204300801A1EAF83EE24FFF582EF34FFF583E0A1
:10205300643060EEE0642E70031EAF8374021217C7
:102063005FE0700302211712219DA3A9831221654A
:102073008E828F835014742DF00EE9FF85108285B4
:102083001183122C0612218E8006742BF00EE9FFA9
:102093007C007D00EE240AFEEF3400FFEC24010CEB
:1020A300ED3400FD12213F1216A0EA12219B1221EA
:1020B3003F1216A01221A84970E2C3EC9402ED125C
:1020C3002B6F40D8ECFAEDFBC3E49CF8E49DF9EEEA
:1020D30028F582EF39F583E0C0E0C3E49AF8E49B86
:1020E300F9EE28F8EF39F9E82CF8E93DF9E824F599
:1020F300F582E934FFF583D0E0F0EC24FF1CED34E6
:10210300FFFDC3EC9401ED122B6F50BCEE24F6FEE1
:10211300EF34FFFFEEFAEFFB740312172A7F080276
:1021230017D7E824FFFAE934FFFB8A828B83221254
:10213300213818EB22E088828983F022851082857A
:102143001183122C137A0A7B0022C3E09AA3E09B2B
:10215300A2D265D03322C3E098A3E099A2D265D07E
:102163003322851082851183C3A3E09400A2D26534
:10217300D03322E024FFF0A3E034FFF022F0EAFEA4
:10218300EBFF8E828F8322A3E03400F985108285D2
:102193001183E8F0A3E9F02224308E828F83F0A329
:1021A300AE82AF83228510828511831221B222E889
:1021B300F0A3E9F0851082851183E02274F01217F1
:1021C3006B74B0121714851082851183122C7874E6
:1021D3001812175FECF0A3EDF0740F12175FE4F021
:1021E300A38022746012175F122BAE740412175F60
:1021F300E0F9741812175F122BDD121769740F12AE
:10220300175F122B77F0122BF1FA122CB112175F12
:10221300EAF074256A6010E070C9740F12175F1238
:102223002BAE745002211D122BF1642570198510F9
:1022330082851183E024010812218A746012175FDA
:10224300122BAE792580AB740E12175FE4F0740D78
:1022530012175FE4F0740C12175FE4F074051217A1
:102263005FE4F0741E12175FA882A9837402121729
:102273005F8015740512175FE07007740512175F0E
:10228300EAF08510828511831221AE122BA5122C40
:1022930038FA24E060DD24FD601724F860DD24FEB5
:1022A300600624FD600F8011740C12175FE0048038
:1022B300D0740D80F5740E80F1122C38642A705B93
:1022C300746212175F122C43FB8A828B83E0FCA398
:1022D300E0FD740A12175FECF0A3EDF0EA24020AA2
:1022E3000AEB3400FB746212175F122C70740A122B
:1022F300175F12216B501F740A12175F122BAEC3A4
:10230300E49AFAE49BFB740A12175F122C78740C9C
:1023130012175FE004F012218F804A740A12175FCC
:10232300E4F0A3802D740A12175F122BC275F00A12
:10233300A4F8AAF075F00AE9A42AF9E50828F8E454
:1023430039F9E824D0F8E934FFF9740A12175F1257
:102353002CD6122C92F5838882E0F50874D02508D8
:10236300C3940A40C0740C12175FE06007740E1226
:10237300175FE4F0122BF1642E600302240A851028
:1023830082851183E0240108A3E03400F91221A817
:10239300122BE2E0642A702C746212175F122BF77F
:1023A300F8A3E0F988828983E0FEA3E0FFE8240232
:1023B3000808E93400F9746212175F122C2B122CEF
:1023C300D6F080477E007F00851082851183122C12
:1023D3000074D02508C3940A5031EE75F00AA4FEA8
:1023E300A8F075F00AEFA428FFE5082EF8E43FF9FA
:1023F300E824D0FEE934FFFF851082851183E024B1
:1024030001F812218A80C17EFF7FFF7A0085108246
:10241300851183122BA0851082851183E0FBA3E035
:10242300F5838B82E024B4600824E4600524FC7007
:10243300040A12218F122BF1FB122CB112175FEB3E
:10244300F07003022A1524BB70030228DB24FE70FC
:10245300030228BD24EF700302260724F57003024C
:10246300250C1470030226AC1470030228DB1470CD
:10247300030228D91470030228BD24FE7003022628
:10248300AC24FB60241470030225F71470030226A6
:102493000724FD700302254524FE7003022607244A
:1024A300FD7003022607022A21746212175F122CA1
:1024B3006A12175F122195EAA2E0740F50331217C4
:1024C3005FE0FCA3E0FD3395E0FE740612175F1294
:1024D3002C4BECF0A3EDF0A3EEF0A3F07462121713
:1024E3005F122C5212175F122C2BE8F0A3E9022281
:1024F3000812175F122BBE740612175F122C43F5D6
:10250300838A82E8F0A3E980D2746212175F122CE7
:102513004BE0C0E0741E12175FD0E0F07462121734
:102523005F122C5212175F122C2B122195741F125B
:10253300175FA882A983741212175FE8F0A3E90258
:102543002A38746212175F122C6A12175F122195D0
:10255300740612175F122C6A12175FE02402FAA3A3
:10256300E03400FB746212175F122C7074021217AE
:102573005F122195E849700C740212175F74F1F031
:10258300A3740FF0122B6D50047E107F2774081272
:10259300175FE4F0A38008740812175F122B77F01B
:1025A300740212175F122BBE88828983A3AA82AB9F
:1025B30083740212175F122C7888828983E0600A81
:1025C300740812175F122BC740CD740212175F12E3
:1025D3002B8E741212175F122195740812175F1253
:1025E3002C06F9741212175FE028F8A3E039F97486
:1025F3000202253B740D12175FE06008EE4F700472
:102603007E017F00746212175F122C6A12175F1229
:102613002CBE12175FE064707038740612175F12D5
:102623002C6012175F122C9912175FE02402122CF0
:102633002212175F122C2B122195901020121621B3
:10264300741A12175F12162D740512175FE4F00245
:10265300273CEAA2E07406501B12175F122BDD120F
:102663001621741412175F12162D740612175FE0E9
:102673002404801212175F122C6012175F122C9918
:1026830012175FE02402122C2212175F122C2B1256
:102693002CBE12175FE0646F7005901024809EE0DB
:1026A30064757096900FDC8094746212175F122C1D
:1026B3006A12175F122195EAA2E0740650161217E8
:1026C3005F122BDD7808121603740612175FE024DD
:1026D30004F8801B12175F122C00A3E0F509339551
:1026E300E0F50AF50B740612175FE02402080812DE
:1026F3002C2312175F122CA612175F7808121612DA
:102703009005727808120D794021740512175F74D1
:102713002DF0741412175F78081216037808121537
:10272300F2741412175F7808121612900FDC121647
:1027330021741A12175F12162D744F12175FA88295
:10274300A983740212175F122195741212175F1274
:102753002CA912175F7808121603E5084509450AE4
:10276300450B6009741112175F740180067411120E
:10277300175FE4F0EE4F7008E0A2E0400302283058
:10278300740212175F122BD712175F122CA912179C
:102793005F780C121603741A12175F780812160367
:1027A300780C790812157F74E02508F582740F35CB
:1027B30009F583E0C0E0740212175F122BDDD0E04D
:1027C300F0741412175F780C121603741A12175F41
:1027D3007808121603780C790812157F74141217EF
:1027E3005F780C121612741412175F78081216030E
:1027F300E5084509450A450B7086122B6D502E746A
:102803000E12175FE06026740512175FE06004D2B2
:10281300F08002C2F0740A12175F122B80800E74CC
:102823000212175F122C8A12175F122BEA7402121C
:10283300175F122B8E744F12175FC082C08374020E
:1028430012175F122BAED083D082E582C39AFAE5CA
:10285300839BFBC3EA9EEB122BD040C3740D12176C
:102863005FE07003022A39741112175FE0A2E0409F
:1028730003022A39740412175FE064786005E06488
:1028830058701E122138E824FF18E934FFF9740246
:1028930012175F122C8A12175F122BDD7430022A73
:1028A30038E0646F6003022A39740212175F122C36
:1028B3003E64307003022A3980D4740812175F749F
:1028C30001F0A3E4F0740412175FE024FEF0EE4F6E
:1028D300700F7E018012E4F0740812175FE4F0A316
:1028E300F0122B6D50047E067F00746212175F1284
:1028F3002C6A12175F122195740612175F122BDDD3
:10290300780C121603740612175FE02404122C22AB
:1029130012175F122CA612175F780C12161290056D
:10292300727808121603780C7908120F91502274EA
:102933000512175F742DF0741412175F78081216BE
:1029430003E50BB2E7F50B741412175F7808121640
:1029530012740A12175F122BBE741E12175FE582E0
:1029630028F8E58339F9740212175F122195740D63
:1029730012175FE0F50878081218D8740912175F68
:10298300E0F50878081218D8740412175F1218E7D4
:102993008E088F0978081218D4740A12175FE0F9A9
:1029A300741A12175F121621120D4E740612172A8B
:1029B300741212175F122C78740E12175FE0607690
:1029C300740512175FE06004D2F08002C2F0740A4B
:1029D30012175F122B80741212175FC082C08374A8
:1029E3000212175F122BBED083D082E0C398F8A3E4
:1029F300E099F9C3E89EE9122BD0503A74021217FA
:102A03005F122BD712175F122C8A12175F122BEA51
:102A130080C4851082851183122B9712218E740234
:102A230012175F7400F0A37410F0741212175F741E
:102A330003F0A37410F0741212175FC082C0837482
:102A43000212175F122BBED083D082E0C398FEA37D
:102A5300E099FF740A12175F122BC7500A74081209
:102A6300175FE4F0A38030740512175FE06004D2AF
:102A7300F08002C2F0740A12175FE0C39EF8A3E06D
:102A83009FF9A2F0E433FAE89AF8E99400F974089C
:102A930012175FE8F0A3E9F0740C12175FE0702BD4
:102AA3008019746012175F122BB412175F122BDD9B
:102AB300121769740F12175F122CCC740812175F68
:102AC300122C7E12175F12216B50D7740512175FF9
:102AD300E06050746012175F122BAE740512175F1B
:102AE300E0F9741812175F122BDD121769802C742A
:102AF3006012175F122BAE740212175F122BF7F9D5
:102B0300741812175F122BDD121769740212175F04
:102B1300122BA0740212175F122195740F12175F04
:102B2300122CCCEE24FF1EEF34FFFFC3122B6F5089
:102B3300BE740C12175FE0700302220974081217A7
:102B43005F122C7E12175F12216B5003022209744D
:102B53006012175F122BB412175F122BDD12176965
:102B6300740F12175F122CCC80D2C3EF9400A2D241
:102B730065D03322E02401F0A3E0340022A2F0E484
:102B830033F8E098FEA3E09400FF22122B92221266
:102B93002B97F922E024FFF8A3E034FF22E0122B65
:102BA300A5222401F8A3E03400F922E0FAA3E0FB14
:102BB30022E0FAA3E0FB7920741822122C132212CC
:102BC3002C13E822C3E09EA3E0122BD0229FA2D2B3
:102BD30065D03322122B92740222122BE122E0F8E9
:102BE300A3E0F583888222122BE17430F022851052
:102BF30082851183122BFB22122C19E022122BFB4C
:102C0300F50822122C13C3E498F8E49922122C1924
:102C1300E0F8A3E0F922E0F8A3E0F583888222F844
:102C2300A3E03400F9746222122C2F22E0FAA3E00D
:102C3300F5838A8222851082851183122C2FE0224C
:102C4300122C2FE0FAA3E022122BFB122BE222120A
:102C53002BFB2402F8A3E03400F9746222122C1037
:102C6300E8FAE9FB741422122C10740622E0FCA388
:102C7300E0F5838C82EAF0A3EBF022E024FFF0A3DB
:102C8300E034FFF0740822E8F0A3E9F074022212A2
:102C930021B6F8A3E022EAF0A3EBF0A3E4F0A3F05B
:102CA300740622122C2FE8F0A3E9F0741422851085
:102CB30082851183E0240108122CE4E8F0A3E9F0F3
:102CC300740422851082851183E02401F0A3E0348B
:102CD30000F0221221B22401F8122CE4E8F0A3E957
:102CE30022A3E03400F98510828511832274F71240
:102CF300176BEAFCEBFD7E1C7F00780079008008EF
:102D0300E82401F8E93400F9C3E89EE99FA2D265FB
:102D1300D0334003022DB0E8FAE9FBEA75F022A4B0
:102D2300CA85F00875F000A42508F50875F022EBB4
:102D3300A42508FB74BE2AF582740B3BF583E0FAE5
:102D4300A3E0F5838A82E0FA8C828D83E06A70B017
:102D5300E8FAE9FBEA75F022A4CA85F00875F000E9
:102D6300A42508F50875F022EBA42508FB74BE2AF8
:102D7300F582740B3BF583E0FAA3E0F5838A82A323
:102D8300E0FA8C828D83A3E06A6003022D03E87569
:102D9300F022A4C8AAF075F000A42AFA75F022E97B
:102DA300A42AF974C028FA740B39FB80047AC07B17
:102DB3000B7F010217D7C082C083120C6AD083D065
:102DC300820200FB801C78087907E8FCE9FDEC240B
:102DD300FFF8ED34FFF9EC4D70F0EA24FFFAEB3421
:102DE300FFFBEA4B70E00200FB78087400D28078A6
:102DF300008009D293D292E9C333F908E8C3940857
:102E0300500BC29274805970EAC29380E80200FBAF
:102E130078087400C28078008009D293D292E9C303
:102E230033F908E8C39408500BC29274805970EACE
:102E3300C29380E80200FB74F712176BE9FEEAFF06
:102E4300EEC394805020EFC39408501A74B02FF946
:102E5300120C46740F5EF9120C46EEC4540F54075D
:102E63004410F9120C467F010217D774F712176B3F
:102E7300E9FF7E00800FEFF9120C400508E508C357
:102E8300948040F20EEEC39408500CEEFA790012CF
:102E93000C4C75080080E67F010217D774F11217F6
:102EA3006BE9FF8A0EEFFE800F7900120C400508D4
:102EB300E508C3948040F20E8E087509008F0C75E7
:102EC3000D00850E0A750B00E50C250AF8E50D3596
:102ED3000BF9C3E50898E50999A2D265D0335016DA
:102EE30074B02EF9120C467901120C467910120CAB
:102EF3004675080080BA7F070217D774F212176B62
:102F030074EF1217148A0C8B0D89097F007E007FE2
:102F13000075F00274FF2509A4FEAA0CAB0D120D77
:102F23003CEAF508E508C394114003750810750AD7
:102F330011750B00780A1218D47C007D00740212FC
:102F4300175FAA82AB83120D1E740212172A85081B
:102F53000A750B00780A1218D4AC0CAD0D7402126A
:102F6300175FAA82AB83120D18740212172A7A0212
:102F7300EEF9120C58851082851183AC82AD83EE75
:102F8300FAEFF9120C64741112172A7F060217D78D
:102F930074F012176B74FE12171485108285118357
:102FA300ECF0A3EDF0E9FEEAFF750D00750900757D
:102FB3000800750E00750F00750C008030850C0A33
:102FC300750B00E50E250AF8E50F350BF9E824101B
:102FD300F582E93400F583E0F9120C40050CE50CA9
:102FE300C3941040D874102EFE05080508E508A800
:102FF300087900851082851183E028FAA3E0398AD5
:1030030082F583E07003023145EEC3947940037E79
:10301300000FEFFAEEF9120C4CE508A808790085C9
:103023001082851183E028FAA3E0398A82F583E0D0
:10303300C394804054E508A808790085108285115F
:1030430083E028FAA3E039FB120C2E8A0A8B0B8546
:103053000A0E850B0F750C008019850C0A750B0081
:10306300E50E250AF582E50F350BF583E0F9120C21
:1030730040050CE50CC3941040E074012FFAEEF9FF
:10308300120C4C750C00022FE1E508A808790085A5
:103093001082851183E028FAA3E0398A82F583E060
:1030A30024E0F50D750900803AE50DA80D7900E8D7
:1030B30075F010A4C8AAF075F000A42AFA75F010F0
:1030C300E9A42AF985090A750B00E8250AF8E93508
:1030D3000BF974CE28F582740539F583E0F9120CE7
:1030E300400509E509C3940840BF74012FFAEEF9BE
:1030F300120C4C750900803AE50DA80D7900E875AE
:10310300F010A4C8AAF075F000A42AFA75F010E92B
:10311300A42AF985090A750B00E8250AF8E9350B95
:10312300F974D628F582740539F583E0F9120C4059
:103133000509E509C3940840BF74082EFE0508027B
:103143002FF0740212172A7F080217D7C082C08398
:1031530053F3FE43FD0153F47343FE8CD292C297A3
:103163007A327B00120C3AD29779AE120C46790070
:10317300120C467910120C467940120C46798112D2
:103183000C4679CF120C4679A1120C4679C8120C61
:103193004679A6120C4679A8120C46793F120C46C2
:1031A30079D3120C467900120C4679D5120C467964
:1031B30080120C4679D9120C4679F1120C4679DA51
:1031C300120C467912120C4679DB120C4679401226
:1031D3000C467920120C467902120C46798D120C9A
:1031E300467914120C4679A4120C4679A6120C46A1
:1031F30079AF120C467900120C527A007900120C46
:103203004CD083D0820200FB74F712176BE9FEEAFD
:10321300F8EBF9E8FAE9FB740B2E8A828B83F090C2
:103223000308E0F8A3E0F5838882A3A3A3A3A3E0A4
:10323300600678617988800478417988E88A828B8E
:1032430083A3F0E4E9F88A828B83A3A3F0900301BC
:10325300E08A828B83A3A3A3F0900308E0F8A3E0A2
:10326300F5838882A3A3E0F8A3E0F98A828B83A382
:10327300A3A3A3E8F0A3E9F08A828B83A3A3A3A368
:10328300A3A3ECF0A3EDF0900308E0F8A3E0F5832B
:103293008882E0F8A3E0F98A828B83A3A3A3A3A384
:1032A300A3A3A3E8F0A3E9F0790A7F010217D77477
:1032B300F212176BECFEEDFF8908A908EAFCEBFD9F
:1032C3007A0A7B03120BDAE9FB7A0080348A0A75E7
:1032D3000B00EE250AF582EF350BF583E0C0E08B9A
:1032E3000A750B008A0C750D00E50A250CF8E50B31
:1032F300350DF9740A28F582740339F583D0E0F0AB
:103303000AEAC3950840C6EB2508F97F060217D7DA
:1033130074F712176B7E7D7F03120CBE120C227999
:1033230001EEFAEFFB120CA68E828F83E0C2E7F068
:103333008E828F83E0640570528E828F83E0F97AE8
:103343007E7B03120CA68E828F83A3E0A2E550043A
:10335300D2F08002C2F0A2F0E43390056EF07881DF
:10336300790388828983A3E0A2E740030234258E90
:10337300828F83A3A3A3E0F8900301E068600302B4
:1033830034259003027401F00234258E828F83E08A
:1033930024F590056BF08E828F83E0F97A7E7B03B0
:1033A300120CA68E828F83A3E0A2E55004D2F08094
:1033B30002C2F0A2F0E43390056EF08E828F83A3F5
:1033C300A3A3A3A3A3A3A3E0F8A3E0F9900567E84D
:1033D300F0A3E9F090056C7487F0A37403F09005F3
:1033E3006BE0F83395E0F990056CE028F8A3E03939
:1033F300F988828983E090056FF088828983A3E04E
:10340300A2E750128E828F83A3E054DF64417006DB
:103413009005707401F08E828F83A3A3A3E09005BF
:1034230066F0120C28120CC47F010217D774F7122E
:10343300176BEAFEEBFF120C82E964017004790159
:10344300806F120C28900308EEF0A3EFF090056C48
:103453007400F0A37400F09003037401F0900572FC
:1034630012162190030412162D900308E0F8A3E02E
:10347300F5838882A3A3A3A3E0F9120C8E9003081B
:10348300E0F8A3E0F5838882E0FAA3E0FB120C9452
:10349300900308E0F8A3E0F5838882A3A3E0FAA3EE
:1034A300E0FB120C9A7AE67B0B120CCA120C2279FF
:1034B300007F010217D774F412176BEAFEEBFF8C3F
:1034C3000A8D0B8908900303E07003120CB2E50820
:1034D300C394675005850809800375096785090842
:1034E300120CD0120CBEA908AC0AAD0BEEFAEFFB1E
:1034F300120BE0E9F97A0A7B03120CA0120CC41236
:103503000CACE960027E01900308E0F8A3E0F583C8
:103513008882A3A3A3A3A3E0601C9003027400F01A
:103523007A4A7B02120C7C900302E06004740080F0
:10353300027401FE80027E00900303E07003120C0C
:10354300B8EE7007900301E02401F0EEF97F040266
:1035530017D7C082C083900570E0F9D083D0820270
:1035630000FB74F212176B8A0A8B0BECFEEDFF74EF
:103573000E12175FE0F508A3E0F509120C28900579
:103583006BE0F83395E0F9C3E89EE99F500D900591
:103593006BE0F50C3395E0F50D80048E0C8F0D7800
:1035A3000C1218D490056CE0FCA3E0FDAA0AAB0B47
:1035B300120D18740212172AE50845096026120C29
:1035C30088E9F50A90056FE0F83395E0F9750B008B
:1035D300E8C3950AF8E9950BF9850882850983E81C
:1035E300F0A3E9F09005707400F0120C2290056BC3
:1035F300E0F83395E0F9C3E89EE99F500790056B27
:10360300E0F98002EEF97F060217D7C082C08390EB
:1036130003037401F0120CB2D083D0820200FB5377
:10362300F37F43FD80C2870200FBC082C083E96051
:103633000474018002740090052FF090052FE07050
:1036430002C287D083D0820200FBC082C083900570
:103653002FE06011D2F0A28730F001B392877AB9DC
:103663007B00120C7CD083D0820200FBC082C0831B
:1036730074EC1217149005631218E7900561121881
:10368300E77C777D0F740412175FAA82AB83120D58
:103693002A740412172A7902851082851183AA825B
:1036A300AB83120C5E741412172AD083D0820200EB
:1036B300FB74F612176B74B0121714E4F508F509CE
:1036C30078081218D47C107D007A307B05120BFE2B
:1036D300740212172AE9F87409687008900530E03B
:1036E300645360030237BE900538E0A2E1E433F58A
:1036F3000875090078081218D4900538E0A2E0E4B0
:1037030033F50875090078081218D4900537E0F5E9
:103713000875090078081218D4900536E0F5087585
:10372300090078081218D4900535E0F508750900EA
:1037330078081218D4900534E0F508750900780864
:103743001218D4900533E0F50875090078081218AB
:10375300D4900532E0F50875090078081218D49062
:103763000531E0F50875090078081218D47C847DCA
:103773000F741212175FAA82AB83120D2A741212EE
:10378300172A851082851183AA82AB83120D3CEA26
:10379300FCEBFD851082851183AA82AB83120CE8B2
:1037A300900561E02401F0A3E03400F0900538E0D7
:1037B300A2E0E433F9120CF4120D00745012172A2C
:1037C3007F020217D774F612176BEAFEEBFF7CA297
:1037D3007D0FEEFAEFFB120D308A088B09E50845E1
:1037E3000970047901804D7CA77D0FEEFAEFFB127F
:1037F3000D308A088B09E508450970047902803485
:103803007CAD7D0FEEFAEFFB120D308A088B09E5D4
:1038130008450970047903801B7CB47D0FEEFAEF31
:10382300FB120D308A088B09E508450970047904F9
:10383300800279007F020217D774F412176B74FCAD
:10384300121714900560E0F87900741FC398FC7494
:103853000099FD900560E0F87900744028FA74053A
:1038630039FB120CE2EAF8900560E028F09005605D
:10387300E07003023980900560E0F87900743F2816
:10388300F582740539F583E0640A6012900560E0FF
:10389300C3941F40069005607400F00239809005C0
:1038A30060E0F87900743F28F582740539F5837474
:1038B30000F09005607400F075080275090078083F
:1038C3001218D47CB87D0F7A407B05120D42740226
:1038D30012172A8A088B09E5084509600302398013
:1038E3007CBB7D0F7A427B05120D5A8A088B09AE89
:1038F30008AF097CBB7D0F7A007B00120D5A8A0A40
:103903008B0B850A08850B09EE4F6071E5084509A5
:10391300606BEEFAEFFB120D0CE960618510828596
:1039230011837443F0EEFAEFFB120D0CE9C0E0745F
:103933000112175FD0E0F0850882850983E06431C6
:103943007004740180027400C0E0740212175FD027
:10395300E0F0740312175F7400F079048510828518
:103963001183AC82AD837A007B10120BF2E99005D0
:1039730063E02401F0A3E03400F0120D007404129C
:10398300172A7F040217D774FA121714120C0A129B
:103993000CEE7900120C5279017ABD7B0F120C5E8A
:1039A300740212175F7434F0A37412F074041217C4
:1039B3005F740BF0740512175F7401F08510828534
:1039C30011837400F0A37420F0851082851183AAFB
:1039D30082AB83120BECE96401700B79027ACD7B25
:1039E3000F120C5E80FE120C04120CFA120BF8E993
:1039F3006003120D06120D1280EF74F412176B8A16
:103A0300088B098C0A8D0B53F1FE43F30C53F2F32D
:103A130075868075C4807808121914000000000CA4
:103A2300000000B0040000703A60090000783AC05A
:103A3300120000803A80250000883A403800009048
:103A43003A004B0000983A80700000A03A009600BC
:103A530000A83A00E10000B03A002C0100B83A0097
:103A6300C20100C03A00840300C83AD03A75C23B91
:103A730075C505805E75C23B75C506805675C23B2C
:103A830075C507804E75C23B75C508804675C2D89B
:103A930075C508803E75C23B75C509803675C2D8A9
:103AA30075C509802E75C23B75C50A802675C2D8B7
:103AB30075C50A801E75C23B75C50B801675C2D8C5
:103AC30075C50B800E75C2D875C50C800675C23BD3
:103AD30075C50A75C402438640D2AA75C100900415
:103AE300A97400F09004AA7400F090052C7400F0FF
:103AF30090052D7400F09004AB7400F090052E74C3
:103B030000F07F040217D774F712176B780079005F
:103B1300803E9004A9E0FE7F0074292EF582740490
:103B23003FF583E08A828B83F09004A9E02401F0BF
:103B33008A828B83A3AA82AB839004A9E0C3948077
:103B430040069004A97400F0E82401F8E93400F970
:103B53009004A9E0FE9004AAE06E6007C3E89CE924
:103B63009D40AFE8FAE9FB7F010217D774F71217FC
:103B73006B90052CE0F890052DE0C398501F90053D
:103B83002CE0F8790090052DE0FE7F00E8C39EF855
:103B9300E99FF9E824FFF8E934FFF9803790052D10
:103BA300E0F87900C3E498F8E499F990052CE0FE75
:103BB3007F00E82EF8E93FF9E8247FF8E93400F9BB
:103BC300C3E89CE99D5004D2F08002C2F0A2F0E465
:103BD30033F87900E84960067A007B00805E78005C
:103BE3007900801290052DE02401F0439A04E82423
:103BF30001F8E93400F9C3E89CE99D503B8A828BC4
:103C030083E0C0E090052DE0FE7F0074AC2EF582CA
:103C130074043FF583D0E0F08A828B83A3AA82AB3E
:103C23008390052E7400F090052DE0C3947F40B47B
:103C330090052D7400F080B3E8FAE9FB7F010217C9
:103C4300D7C082C083906189E04460F09061FA74C8
:103C530009F09061B27415F09061AE7400F0906158
:103C63009074F5F0120CD6120CC47900D083D08274
:103C73000200FBC082C083900F76E0F9D083D0822C
:103C83000200FBC082C08375F005E9A424D49061CF
:103C93008FF0D083D0820200FBC082C083EA9061A0
:103CA30074F0E4EBFA906175F0D083D0820200FBEC
:103CB300C082C083EA906172F0E4EBFA906173F022
:103CC300D083D0820200FB74F612176B75E1EE7598
:103CD30091FD780080138808750900EA2508F582AC
:103CE300EB3509F583E0F5D908E8C39940E87F028D
:103CF3000217D7C082C0838011E5D98A828B83F0F3
:103D03008A828B83A3AA82AB8319E9C3940150E906
:103D1300D083D0820200FB75E1E9E591A2E150FA7C
:103D23007591FD79000200FB75E1EC75E1E302009A
:103D3300FB75E1EF75E1EC0200FBC082C08390618B
:103D4300A3E0C2E6F0539AFED083D0820200FBC008
:103D530082C0839061A3E0D2E6F0439A01D083D07E
:103D6300820200FBC082C083A2AFE433F8C2AF90EB
:103D73000427EAF0A3EBF0E8A2E092AFD083D0826D
:103D83000200FBC082C083906193E0542270F8D09C
:103D930083D0820200FB0200FBC082C0838A828B35
:103DA30083123E33E9F08A828B83E02401FCA3E093
:103DB3003400FD8A828B83ECF0A3EDF0D083D082B4
:103DC3000200FB74F612176B74FC121714740212C0
:103DD300175FEAF0A3EBF0ECFAEDFB740E12175F3A
:103DE300A882A983851082851183E8F0A3E9F08571
:103DF300108285118385820885830978081218D477
:103E0300740412175F85820885830978081218D411
:103E13007C247D0D120D54740412172A7402121798
:103E23005F123E33E4F0740412172A7F020217D79D
:103E3300E0F8A3E0F58388822274F412176B8C08F0
:103E43008D09EA4B6005EAFEEB8007901028E0FE3F
:103E5300A3E0FFEEFAEFFB120D488A0A8B0BEE2567
:103E63000AFEEF350BFF8E828F83E07010901028CF
:103E73007465F0A37405F07A007B00802FAC08AD65
:103E830009EEFAEFFB120D368A088B09EE2508F5C9
:103E930082EF3509F583E06003E4F0A3A882A983E8
:103EA300901028E8F0A3E9F0EEFAEFFB7F04021785
:103EB300D774F612176B740A12175FE0FEA3E08043
:103EC30007EE24FF1EEF34FFFFEE4F604EECF8EDDC
:103ED300F988828983A3AC82AD838A828B83E0F5E0
:103EE3000888828983E065087016EAF8EBF988820E
:103EF3008983A3AA82AB8388828983E070C3801BF2
:103F03008A828B83E0F8EC24FFF582ED34FFF5839E
:103F1300E0FAE8C39AFA95E0FB80047A007B007F1D
:103F2300020217D7E5C65480F853BEFBE59DA2E510
:103F330050FAE59DA2E240F40074016970077449E8
:103F430048F5C68005E9700288C6E5C6F8E59EFA1D
:103F5300E86A70F943BE040200FBE9F8E59EA2E6B5
:103F630040047901801CE8700553C67F8008740102
:103F730068700343C680E5C6F9E59EFAE96A70F9FD
:103F830079000200FBC082C0837900120C1CE96037
:103F93000F7901120C167900120C1CE9600280FEE5
:103FA3007900120C16D083D0820200FBEBC313FB03
:103FB300EA13FAEAF8EBF9E824FFFAE934FFFBE83D
:103FC3004960120000000000000000000000000033
:103FD30000000080DE0200FB74F612176B740A12F5
:103FE300175FE0FEA3E0FFEAF8EBF980188C828DFF
:103FF30083E088828983F0A3A882A9838C828D833E
:10400300A3AC82AD838E088F09E50824FF1EE50962
:1040130034FFFFE508450970D47F020217D774F710
:1040230012176B80098C828D83A3AC82AD838A8245
:104033008B83E0F88C828D83E068701AEAF8EBF9E1
:1040430088828983A3AA82AB8388828983E070D51F
:104053007A007B008009E0FAE8C39AFA95E0FB7FD7
:10406300010217D774F412176B7E007F0080118A48
:10407300828B83A3AA82AB83EE24010EEF3400FF6D
:104083008A828B83E0F50A6014ECF8EDF988828963
:1040930083E060DBA3A882A983650A70F0EEFAEFE0
:1040A300FB7F040217D774F412176B7E007F008026
:1040B3001AA3A882A983650A701EEE24010EEF34A9
:1040C30000FF8A828B83A3AA82AB838A828B83E0DD
:1040D300F50A600BECF8EDF988828983E070D2EE83
:1040E300FAEFFB7F040217D774F712176B740912E8
:1040F300175FE0F8A3E0F98A828B838003ECF0A3D7
:10410300E8FEE9FFEE24FF18EF34FFF9EE4F70ED00
:104113007F010217D7C082C083120C76120C701273
:104123000C34120C10900576121621120CDC120CB2
:1041330022D083D0820200FBC082C0838A828B8319
:104143008001A3E070FCE582C39AFAE5839BFBD070
:1041530083D0820200FB53F3FD53FDFD438F0253D3
:10416300F5FE53FFFE43F7010200FB43FE01D2902D
:1041730043FE02D29143FE10D2940200FBD2AF025F
:0741830000FBC2AF0200FBCC
:04000005000000E314
:00000001FF
