:020000040800F2
:100000009810002001010008651300085D13000826
:10001000611300080D0400082921000800000000F9
:10002000000000000000000000000000151800089B
:100030004906000800000000BD160008551B000816
:100040001B0100081B0100081B0100081B01000820
:100050001B0100081B0100081B0100081B01000810
:100060001B0100081B0100081B0100081B01000800
:100070001B0100081B0100081B0100081B010008F0
:100080001B0100081B0100081B0100081B010008E0
:100090001B0100081B0100081B0100081B010008D0
:1000A0001B0100081B0100081B0100081B010008C0
:1000B0001B0100081B0100081B0100081B010008B0
:1000C0001B0100081B0100081B0100081B010008A0
:1000D0001B010008151D0008591D0008C51D00085A
:1000E0001B0100081B0100081B010008DFF80CD0F1
:1000F00000F0DCF800480047AD260008981000200A
:100100000648804706480047FEE7FEE7FEE7FEE7B1
:10011000FEE7FEE7FEE7FEE7FEE7FEE7AD1B0008B1
:10012000ED000008D2B201E000F8012B491EFBD21D
:1001300070470022F6E710B513460A4604461946F2
:10014000FFF7F0FF204610BD30B505462A460B46A6
:1001500012F8010B13F8014B08B1A042F8D01CB102
:10016000002802D06D1CF1E7284630BDCAB2401EFF
:1001700010F8011F8A4202D00029F9D100207047EF
:10018000421C10F8011B0029FBD1801A704703465E
:1001900011F8012B00F8012B002AF9D118467047FD
:1001A00030B505460020034600E05B1C934205D2B3
:1001B000EC5CC85C201A01D1002CF6D130BD70B5C2
:1001C000064601F0EBFF046805460A22002130468E
:1001D00000F033F82C6070BD2DE9F05F054600207B
:1001E00092469B4688460646814640241BE02846A8
:1001F00041464746224600F07AF853465A46C01A0E
:10020000914110D311461846224600F061F82D1A8C
:1002100067EB01084F4622460120002100F058F804
:1002200017EB00094E41201EA4F10104DFDC484613
:1002300031462A464346BDE8F09F2DE9F0479146F6
:100240000F4680460446002614F8015B2DB100F0ED
:100250005FF80068405DC007F6D12B2D02D02D2D30
:1002600018D0641E4A463946204600F055F827B19A
:100270003968A14201D1C7F8008071054FF002042E
:100280000BD54042002803DD01F088FF0460A00781
:10029000BDE8F08746F48066E4E70028F8DA01F06C
:1002A0007DFF04606FF00040F2E70000064C074D50
:1002B00006E0E06840F0010394E807009847103436
:1002C000AC42F6D3FFF716FF18500008385000086C
:1002D000202A04DB203A00FA02F100207047914006
:1002E000C2F1200320FA03F3194390407047202AFB
:1002F00004DB203A21FA02F00021704721FA02F3D0
:10030000D040C2F1200291400843194670470000D6
:1003100000487047CC4F00082DE9F05F8246007816
:10032000002715468B460AF10104B946302801D052
:100330009DB113E014F8010B0127782803D0582849
:1003400001D045B10AE00DB1102D07D100271025CD
:1003500014F8010B02E0082500E00A250026B0464B
:100360000EE005FB080005FB06F1012701EB104636
:100370001FFA80F8B6F5803F00D3B94614F8010B98
:10038000294600F018F80028EBDABBF1000F05D081
:100390000FB1641E00E05446CBF80040B9F1000FE5
:1003A00006D001F0FBFE02210160C81EBDE8F09FEF
:1003B00048EA0640FAE73A2800D2303820F0200216
:1003C000412A01D3A2F13700884201D34FF0FF3018
:1003D0007047000008B50121042001F091F94FF4A5
:1003E0008050ADF8000010208DF8030003208DF838
:1003F00002006946044800F0ADFC4FF48050024909
:100400001431086008BD00000008014000BFFEE78D
:1004100008B50121084601F073F90121124800F0E6
:1004200025FD0121082001F06BF92020ADF8000026
:1004300010208DF8030003208DF8020069460B4858
:1004400000F088FC1020ADF800008DF803000320B8
:100450008DF802006946054800F07CFC0A2002F095
:10046000E7F801F0D5FA08BD00023000000C0140A9
:1004700010B500F0C3F810BD10B50446204601F0D9
:100480008DFC10BD08B50121042001F039F9B02020
:10049000ADF8000010208DF8030003208DF8020055
:1004A0006946544800F056FCB021524800F028FD3F
:1004B0000121082001F024F90120ADF800001020EE
:1004C0008DF8030003208DF8020069464A4800F0C9
:1004D00041FC0121484800F013FD1021454800F07F
:1004E0000FFD642002F0A4F81021424800F006FD40
:1004F000C82002F09DF810213E4800F001FD0021C7
:10050000AE2001F08DF80021084601F089F80021A5
:10051000102001F085F80021402001F081F8002131
:10052000812001F07DF80021CF2001F079F8002131
:10053000A12001F075F80021C82001F071F8002118
:10054000A62001F06DF80021A82001F069F8002133
:100550003F2001F065F80021D32001F061F800216F
:10056000084601F05DF80021D52001F059F800217E
:10057000802001F055F80021D92001F051F8002128
:10058000F12001F04DF80021DA2001F049F80021B6
:10059000122001F045F80021DB2001F041F8002194
:1005A000402001F03DF80021202001F039F8002121
:1005B000022001F035F800218D2001F031F80021F2
:1005C000142001F02DF80021A42001F029F80021C9
:1005D000A62001F025F80021AF2001F021F800212C
:1005E000AF2001F01DF800F019FF0021084600F0CF
:1005F00035FF08BD00080140000C014010B5002087
:100600000549C1F8040281F808024FF4007102485C
:10061000FFF78FFD10BD00008806002010B52720D1
:1006200000F0A2FE00200549088005490880054920
:100630000870272000F0A4FE10BD00005600002026
:100640005400002094080020704700001CB52DA223
:100650000021084600F0ACFF2E48007828B92EA2F1
:100660000221002000F0A4FF17E02FA202210020A9
:1006700000F09EFF3148006831490968CDE900105B
:1006800030480368304831A10268344801F072FDF7
:10069000324A0221002000F08BFF23A20421002017
:1006A00000F086FF2E4803882E4802882EA12B4892
:1006B00001F060FD294A0421002000F079FF1AA210
:1006C0000621002000F074FF2A4800782A490978A2
:1006D00009B1412100E04D21CDE900102748007803
:1006E00008B127A000E027A003462748027827A1E9
:1006F0001A4801F03FFD194A0621002000F058FF7A
:100700001CBD0000434954592047415445574159A5
:10071000204220002A0000204C4F5241204C4F53D1
:1007200054202020202020002020202020202020B5
:100730002020202020202020000000004000002059
:100740003C0000203800002034000020543A25648A
:100750002E256420483A25642E256400BC01002023
:100760003200002030000020533A2575204C3A25F5
:10077000750000002E0000202B0000202C0000201F
:100780004F4E00004F4646002D000020503A257580
:1007900020523A257320256320414C3A25750000EC
:1007A00010B500240221124800F0AAFB11A001F0AC
:1007B000D1FC4FF4FA6001F03BFF15E0214612A096
:1007C00001F0C8FC4FF4FA73002216A116A000F045
:1007D00083F828B1214615A001F0BCFC012010BD12
:1007E00000F0A6F9601CC4B20A2CE7DB0020F6E793
:1007F000000C01400D0A4154E6B58BE8AF952E2E52
:100800002E2E2E0D0A0000000D0A4154E6B58BE88D
:10081000AF95E6ACA1E695B02025642E2E2E2E2EA7
:100820002E0D0A004F4B0000415400000D0A4154A8
:10083000E6B58BE8AF95E590AFE58AA8E68890E548
:100840008A9F2025642E2E2E2E2E2E0D0A000000AB
:1008500070B5A0B004460D4616462B46224607A1A9
:1008600002A8009601F086FC4FF47A73002209A1D9
:1008700002A800F031F820B070BD000041542B43B5
:10088000575341503D222573222C222573222C31AF
:100890002C2564004F4B000010B588B0044622465A
:1008A00008A1684601F066FC41F28833002209A1E4
:1008B000684600F011F810B1012008B010BD00200A
:1008C000FBE7000041542B43495041503D22257322
:1008D000220000004F4B00002DE9F04107460C4676
:1008E00015461E46002023490880234908804FF4FE
:1008F00080612248FFF71DFC384601F017FC20A05C
:1009000001F014FC1CB915B90120BDE8F081304696
:1009100001F08EFE00201949164A12888854B4B19D
:10092000ADB121461548FFF70FFC08B1012000E0EA
:10093000002040B929461148FFF706FC08B1012004
:1009400000E0002008B10120DFE70020DDE744B12E
:1009500021460A48FFF7F8FB08B10120D5E700203F
:10096000D3E729460548FFF7EFFB08B10120CCE7A4
:100970000020CAE756000020540000209408002000
:100980000D0A000010B586B004460CB1012000E04D
:100990000020024606A101A801F0ECFB4FF4FA7317
:1009A000002207A101A8FFF797FF06B010BD0000C5
:1009B00041542B4349504D55583D256400000000DB
:1009C0004F4B000008B50121082000F099FE4FF4BC
:1009D0008070ADF8000010208DF8030003208DF822
:1009E00002006946074800F0B5F90121082000F02F
:1009F00087FE0220ADF800006946024800F0AAF91F
:100A000008BD0000000C014010B5FFF7DBFF00F04F
:100A10002FF9002009490880094908804FF48061B6
:100A20000848FFF786FB0221074800F069FA4FF4F7
:100A30008071054800F062FA10BD000056000020E9
:100A40005400002094080020000C01402DE9F041E2
:100A500005460F464FF4FA73002210A110A0FFF7CD
:100A60003BFF12A11348FFF76FFB06460EB1B61D00
:100A700002E00020BDE8F081002409E0305D285547
:100A8000285D222802D10020285503E0601CC4B252
:100A9000BC42F3DB00BF0120ECE700004F4B00003D
:100AA00041542B43494653520000000041504950E5
:100AB0002C2200009408002010B5044624B1012C1B
:100AC0000AD0022C18D10FE040F6C4130BA20EA1DD
:100AD0000EA0FFF701FF10BD40F6C41307A20AA144
:100AE0000DA0FFF7F9FEF6E740F6C41303A206A136
:100AF0000CA0FFF7F1FEEEE70020ECE76E6F20633D
:100B000068616E67650000004F4B000041542B4345
:100B1000574D4F44453D310041542B43574D4F44B1
:100B2000453D320041542B43574D4F44453D330022
:100B300010B50221054800F0E1F94FF4FA7001F018
:100B400077FD0221014800F0DBF910BD000C0140E7
:100B50002DE9F04186B006460F4614461D464FF07B
:100B600000082EB1384601F0E1FA4FF001081BE011
:100B7000052D06DAA31C2A460DA101A801F0FAFAF8
:100B800004E0A21C0FA101A801F0F4FA64230022E2
:100B900010A101A8FFF7A0FE4FF4FA7300220EA1E6
:100BA0003846FFF799FE8046404606B0BDE8F08122
:100BB00041542B43495053454E443D25642C2564F4
:100BC0000000000041542B43495053454E443D25FD
:100BD000640000003E20000053454E44204F4B006F
:100BE00070B5BCB004460D461646FCB12B4601223A
:100BF00015A11EA801F0BEFA324618A1684601F000
:100C0000B9FA4FF4FA73002218A11EA8FFF764FE88
:100C100050B14FF4FA73002214A16846FFF75CFE4E
:100C200010B101203CB070BD0020FBE72B46002234
:100C300005A11EA801F09EFA4FF4FA7300220BA141
:100C40001EA8FFF749FEEDE741542B434950534599
:100C5000525645523D25642C2573000041542B43C8
:100C6000495053544F3D2573000000004F4B000086
:100C700000B585B00121880400F022FD0121082083
:100C800000F03EFD4FF48060ADF8100018208DF8A4
:100C9000130003208DF8120004A91A4800F05AF836
:100CA0004FF40060ADF8100004208DF8130004A983
:100CB000144800F04FF84FF4E13000900020ADF8F8
:100CC0000400ADF80600ADF80800ADF80C000C20EB
:100CD000ADF80A0069460C4801F05CF9012240F2C7
:100CE0002551094801F030F9012240F2244106481B
:100CF00001F02AF900F00AF80121034801F09FF8F9
:100D000005B000BD000C01400048004008B5272098
:100D10008DF8000000208DF801008DF80200012000
:100D20008DF80300684600F037FB08BD10B5044697
:100D3000224604A1064801F01DFA0548FFF79CFB76
:100D400010BD0000422C434D443D25730D0A0000A8
:100D50005C0000202DE9F04102460025002600201D
:100D600000230024002791F803C00CF00F0591F830
:100D700003C00CF0100CBCF1000F03D091F802C0BE
:100D80004CEA050591F800C0BCF1000F31D01468A1
:100D900000202BE04FF0010C0CFA00F3B1F800C07A
:100DA0000CEA03069E4220D183004FF00F0C0CFA90
:100DB00003F7BC4305FA03FC4CEA040491F803C0B2
:100DC000BCF1280F06D14FF0010C0CFA00FCC2F860
:100DD00014C00AE091F803C0BCF1480F05D14FF0F0
:100DE000010C0CFA00FCC2F810C0401C0828D1D33A
:100DF0001460B1F800C0BCF1FF0F34DD546800206E
:100E00002EE000F1080C4FF0010808FA0CF3B1F8DD
:100E100000C00CEA03069E4221D183004FF00F0C64
:100E20000CFA03F7BC4305FA03FC4CEA040491F8FE
:100E300003C0BCF1280F05D100F1080C08FA0CF82A
:100E4000C2F8148091F803C0BCF1480F07D100F13B
:100E5000080C4FF0010808FA0CF8C2F81080401C8A
:100E60000828CED35460BDE8F0810000F0B50A46F2
:100E7000002300240021002500F00046B6F1004FB9
:100E800002D11D4EF16901E01B4E7168C0F30345AC
:100E900083B200F44016B6F5401F08D121F070610E
:100EA000154E766826F07066134F7E6012E000F4EF
:100EB0008016B6F5801F06D1032606FA05F4A14375
:100EC00041F0706106E0460D360103FA06F6B143C3
:100ED00041F0706122B1460D360103FA06F6314346
:100EE00000F00046B6F1004F02D1034EF16101E07F
:100EF000014E7160F0BD000000000140416170478B
:100F0000016170472DE9F04781460F461646984625
:100F1000002539464846FFF717F9044614B9002062
:100F2000BDE8F0873846FFF72BF9044405E014F8D4
:100F3000012B2846691C8DB23254207860B120788C
:100F40002C2809D020780D2806D020780A2803D034
:100F5000A8F10100A842EADC002070550DB1012083
:100F6000DEE70020DCE7000038B50446022243A19A
:100F70002046FFF715F900B138BD0120404908703F
:100F800000204049086020233F4A40A12046FFF747
:100F9000B9FF20B13E4A3F493B4800F073FB202394
:100FA000394A3DA12046FFF7ADFF20B13B4A3C49FD
:100FB000354800F067FB2023334A3AA12046FFF76B
:100FC000A1FF20B13048FFF7FAF838490880202304
:100FD0002D4A37A12046FFF795FF20B12A48FFF799
:100FE000EEF8354908802023274A34A12046FFF730
:100FF00089FF20B12448FFF7E2F832490870202326
:10100000214A31A12046FFF77DFF20B11E48FFF79E
:10101000D6F82F49087020231B4A2EA12046FFF73F
:1010200071FF48B12DA11848FFF78EF808B10120D3
:1010300000E000202B49087001F01EF8FFF706FBC6
:1010400000F0EAFB2023104A27A12046FFF75AFFB1
:1010500080B12448007808B120A000E024A00090CE
:101060001B480378084A24A12C4801F083F82B4838
:1010700000F040FC00F0DEFB00BF7DE7412C0000EB
:101080002A000020440000209C010020543D000064
:101090003800002034000020483D000040000020BF
:1010A0003C000020534D4F4B453D000030000020D8
:1010B0004C494748543D0000320000205049523D01
:1010C000000000002D00002052454C41593D000019
:1010D0002C0000204D4F44453D0000004155544F29
:1010E000000000002B00002041434B3D00000000A9
:1010F0004D414E55414C000041434B2C4558454312
:10110000555445442C25732C52454C41593D257569
:101110002C4D4F44453D257300000000DC000020AD
:1011200030B58BB005463A212846FFF71FF8044634
:101130000CB1641C00E02C4630A12046FFF704F8F7
:1011400020B931A12046FEF7FFFF50B12BA101A825
:10115000FFF71DF801A8FFF7E9FD2DA000F0CAFB7D
:1011600049E031A12046FEF7EFFF20B931A120462A
:10117000FEF7EAFF50B12CA101A8FFF708F801A87B
:10118000FFF7D4FD2DA000F0B5FB34E032A12046DE
:10119000FEF7DAFF20B933A12046FEF7D5FF50B1A4
:1011A0002DA101A8FEF7F3FF01A8FFF7BFFD30A0B6
:1011B00000F0A0FB1FE034A12046FEF7C5FF20B9D8
:1011C00034A12046FEF7C0FF50B12FA101A8FEF7C1
:1011D000DEFF01A8FFF7AAFD31A000F08BFB0AE0BB
:1011E00035A12046FEF7B0FF28B133A0FFF79EFDE2
:1011F00033A000F07FFB0BB030BD00004D4F4445E5
:101200003D4155544F0000004155544F000000002F
:1012100041434B2C464F525741524445442C4D4F6D
:1012200044453D4155544F004D4F44453D4D414E81
:1012300055414C004D414E55414C000041434B2C13
:10124000464F525741524445442C4D4F44453D4D25
:10125000414E55414C0000004C494748543D4F4ECB
:10126000000000004C494748545F4F4E000000000A
:1012700041434B2C464F525741524445442C4C4914
:101280004748543D4F4E00004C494748543D4F4657
:10129000460000004C494748545F4F464600000056
:1012A00041434B2C464F525741524445442C4C49E4
:1012B0004748543D4F46460053544154555300004F
:1012C00041434B2C464F525741524445442C5354B2
:1012D000415455530000000010B5044612A12046A9
:1012E000FEF732FF40B1204600F0E4FE0120114934
:1012F000087011A000F0FEFA14A12046FEF724FFAA
:1013000010B100200B49087012A12046FEF71CFF07
:1013100040B1204600F0CEFE01200649087020466C
:10132000FFF7FEFE10BD00002C434F4E4E454354C8
:101330000000000028000020434954595F474154F1
:10134000455741595F52454144590000434C4F5362
:10135000454400002B4950440000000000BFFEE758
:1013600000BFFEE77047000000F01F02012191401E
:10137000024A430942F823107047000080E100E070
:1013800000F01F02012191404209920002F1E02287
:10139000C2F800117047000070B5002100230F2231
:1013A000C47804B3154C246804F4E064C4F5E06424
:1013B000210AC1F10403CA40447804FA03F1847895
:1013C0001440214309010E4C0678A155047804F01D
:1013D0001F050124AC4005786D11AD0005F1E02535
:1013E000C5F8004109E0047804F01F050124AC4071
:1013F000044D0678761145F8264070BD0CED00E0EE
:1014000000E400E080E100E002490143024A11608B
:10141000704700000000FA050CED00E070B50024F4
:1014200019E004F1B001C8B2002100F0F9F8002180
:10143000084600F0F5F80021102000F0F1F8002532
:1014400005E00121002000F0EBF8681CC5B2802DFA
:10145000F7DB601CC4B2082CE3DB70BD70B504463A
:101460000D4605F1B001C8B2002100F0D9F81021F5
:1014700041EA1410002100F0D3F804F00F0141F00C
:101480000100002100F0CCF870BD00002DE9F0470C
:1014900081460F4616464FF0DE0A002449E004EB71
:1014A0000410264911F81000317888423ED104EB2F
:1014B0000410224901EB400040787178884235D110
:1014C0004FF0000839464846FFF7C8FF00250FE0F7
:1014D00004EB0411194A02EB4101891C485D01210A
:1014E00000F09EF808F1010000F0FF08681CC5B28A
:1014F000102DEDDB781CC1B24846FFF7AFFF002589
:1015000011E004EB04110D4A02EB4101891C05F1C5
:101510001002885C012100F083F808F1010000F05E
:10152000FF08681CC5B2102DEBDB00BF00BF601CBC
:1015300084B25445B3DBBDE8F0870000CC3100082D
:101540002DE9F04107460E46904600250024A8F1FB
:101550002000C5B27F2F02DD0027B01CC6B2314685
:101560003846FFF77BFF002408E004EB05110F4A23
:10157000505C012100F054F8601CC4B2082CF4DB6C
:10158000701CC1B23846FFF769FF002409E004EB84
:1015900005110831054A505C012100F041F8601C3A
:1015A000C4B2082CF3DBBDE8F0810000DC2B00089E
:1015B0002DE9F04105460F4616460024A04629E0D5
:1015C000B8F1000F15D1305D802802DD4FF0010821
:1015D00020E0325D39462846FFF7B2FF05F10800EA
:1015E000C5B2782D02DD0025B81CC7B2601CC4B29C
:1015F00010E04FF00008321939462846FFF746FF41
:1016000005F11000C5B2722D02DD0025B81CC7B26D
:10161000A01CC4B2305D0028D2D1BDE8F08100002A
:1016200070B504460E4626B101211448FFF768FC48
:1016300003E001211148FFF761FC002517E020219C
:101640000F48FFF75BFC04F0800020B180210C48BC
:10165000FFF756FC03E080210948FFF74FFC2021EB
:101660000748FFF74DFC6006040E681CC5B2082D44
:10167000E5DB01210148FFF743FC70BD000C014090
:10168000000801402DE9F04107460E461546384650
:10169000FEF795FD3060002028602E213846FEF7C9
:1016A00065FD044644B16078302805DB6078392850
:1016B00002DC607830382860BDE8F08170470000B7
:1016C00029B1064AD2690243044BDA6104E0034AB5
:1016D000D2698243014BDA6170470000001002407A
:1016E00029B1064A12690243044B1A6104E0034A15
:1016F00012698243014B1A617047000000100240DA
:1017000029B1064A92690243044B9A6104E0034AF4
:1017100092698243014B9A617047000000100240B9
:1017200029B1064AD2680243044BDA6004E0034A56
:10173000D2688243014BDA6070470000001002401B
:1017400030B500210022002400232D4D6D6805F0E6
:101750000C0121B1042905D0082923D105E0294D28
:10176000056022E0274D05601FE0254D6D6805F4FA
:101770007012234D6D6805F48034022505EB92420A
:101780001CB9214D554305600BE01D4D6D6805F4F6
:1017900000351DB11C4D5543056002E0194D554300
:1017A000056002E0174D056000BF00BF144D6D6875
:1017B00005F0F0010909154D6B5C0568DD404560D9
:1017C0000F4D6D6805F4E061090A104D6B5C4568CA
:1017D000DD4085600A4D6D6805F46051C90A0B4D06
:1017E0006B5C4568DD40C560054D6D6805F44041A2
:1017F000890B074D6B5CC568B5FBF3F5056130BD22
:101800000010024000127A0000093D001400002080
:10181000240000207047000010B502A0FEF72CFE47
:1018200010BD0000422C434D443D50494E470D0A27
:101830000000000010B588B01C48007808B908B056
:1018400010BD1B4800781B49097809B11AA100E0B6
:101850001BA11D4A12781D4B1B78CDE90432CDE93E
:1018600006101B4801881B4802881B4800681B4B58
:101870001B68CDE90030CDE90221194803681948F9
:1018800019490268194800F075FC1848FEF778FC01
:10189000044617480378224614490020FFF758F9F8
:1018A00010B900200149087000BFC8E728000020D7
:1018B0002E0000202B0000204155544F0000000056
:1018C0004D414E55414C00002C0000202D000020C1
:1018D0003200002030000020400000203C000020AA
:1018E0003800002034000020D04F0008DC00002029
:1018F0002900002070B504460948007870B12046E0
:10190000FEF73EFC0546074803782A46214600209C
:10191000FFF71EF910B900200149087070BD0000E2
:10192000280000202900002010B500F001F810BDAB
:101930000CB50020019000903348006840F48030DE
:101940003149086000BF3048006800F40030009062
:101950000198401C0190009818B90198B0F5A06F4B
:10196000F1D12948006800F4003010B10120009046
:1019700001E0002000900098012843D1234800682E
:1019800040F01000214908600846006820F003007C
:1019900008600846006840F0020008601A48406885
:1019A000194948600846406848600846406840F465
:1019B000806048600846406820F47C104860084613
:1019C000406840F4E81048600846006840F08070C5
:1019D000086000BF0C48006800F000700028F9D0D3
:1019E0000948406820F003000749486008464068FD
:1019F00040F00200486000BF0348406800F00C005F
:101A00000828F9D10CBD000000100240002002405F
:101A100010B50A2000F00CFE20210448FFF76EFAF2
:101A200010210248FFF76AFA10BD0000000C0140C7
:101A300000B587B04FF480712248FFF761FAFEF7D6
:101A4000AFFE10B9002007B000BD4FF4FA730022BA
:101A50001DA11EA0FEF740FF08B90020F3E70120FA
:101A6000FFF72AF808B90020EDE71AA0FEF714FFE7
:101A700008B90020E7E7032219A11CA0FEF7E8FE41
:101A800008B90020DFE70120FEF77CFF08B900203D
:101A9000D9E719A21AA10120FFF7A2F808B900207E
:101AA000D1E7182101A8FEF7D1FF28B114A301AA9C
:101AB0000EA115A000F04EFBFEF7B0FDFEF7D8FC1E
:101AC0000120C0E7000C01404F4B0000415445305D
:101AD000000000003139322E3136382E342E3200DB
:101AE0003132333435363738000000004349545919
:101AF0005F4C494748540000313830300000000046
:101B000035303030000000004349545920574946D1
:101B10004920535349443D25732049503D257320A6
:101B2000504F52543D25730D0A000000042808D17F
:101B30004FF0E021096941F004014FF0E02211610A
:101B400007E04FF0E021096921F004014FF0E022A5
:101B5000116170477047000070B505460420FFF71B
:101B6000E5FF0F4800680F49B0FBF1F00E4908701F
:101B70000B4800680B49B0FBF1F44FF47A70444312
:101B80004FF0E020006940F002004FF0E0210861D2
:101B900008464461006940F00100086170BD000022
:101BA0000000002040420F004800002010B51348FC
:101BB000006840F00100114908600846406810497B
:101BC00008400E494860084600680E4908400B4925
:101BD00008600846006820F48020086008464068D5
:101BE00020F4FE0048604FF41F008860FFF79CFE61
:101BF0004FF000600449086010BD00000010024072
:101C00000000FFF8FFFFF6FE08ED00E02DE9F041CF
:101C100006460F464FF000082720FFF7A5FB1348A4
:101C20000088E0B112480588BD4201DB781E85B20C
:101C3000002404E00F48005D3055601C84B2AC42C3
:101C4000F8DB002070550DB1012000E00020804637
:101C500000200749088005490880064908702720A8
:101C6000FFF78EFB4046BDE8F081000054000020E5
:101C700056000020940800202DE9F04106460F464A
:101C80004FF000082620FFF76FFB144890F8080279
:101C9000F0B11248D0F80402D0B11048B0F80402F4
:101CA00085B2BD4201DB781E85B2002404E00B48FA
:101CB000005D3055601C84B2AC42F8DB00207055EA
:101CC0004FF001080549C1F8040281F808020870C4
:101CD0002620FFF755FB4046BDE8F081880600202E
:101CE0000B49D1F80412B1F5007F04D30021084A52
:101CF000C2F804120AE00649D1F80422D1F804120D
:101D0000491C034BC3F8041219468854704700005D
:101D10007C04002010B500BF40F225510C4800F0B3
:101D2000E9F830B10A4800F0A1F9C4B22046FFF743
:101D3000D7FF40F22441064800F0DCF838B10448EF
:101D400000F094F9C4B20120024981F8080210BDE4
:101D5000003801407C04002010B500BF40F225513E
:101D60000C4800F0C7F830B10A4800F07FF9C4B25F
:101D7000204600F005FE40F22441064800F0BAF883
:101D800038B1044800F072F9C4B20120024981F868
:101D9000080210BD00440040880600200BE000BF90
:101DA0000749098801F040010029F9D00178044A67
:101DB000121D1180401C01780029F0D170470000ED
:101DC0000044004010B540F22551144800F092F84C
:101DD00080B1124800F04AF9C4B21148008840F2BC
:101DE000FF31884206DA0E490888411C0C4A1180EE
:101DF0000C490C5440F22441084800F07BF80128BB
:101E00000AD10949088000200649054A12888854E9
:101E1000024800F02BF9C4B210BD00000048004099
:101E200056000020940800205400002001F40072A5
:101E3000B2F5007F00D100BFCA430280704721B1D4
:101E4000828942F40052828104E082894DF6FF7358
:101E50001A4082817047000010B504462048844231
:101E600009D101218803FFF75BFC00214FF480407A
:101E7000FFF756FC32E01B48844209D10121480497
:101E8000FFF72EFC00214FF40030FFF729FC25E07E
:101E90001548844209D101218804FFF721FC002163
:101EA0004FF48020FFF71CFC18E01048844209D151
:101EB0000121C804FFF714FC00214FF40020FFF7B4
:101EC0000FFC0BE00A48844208D101210805FFF706
:101ED00007FC00214FF48010FFF702FC10BD00004A
:101EE000003801400044004000480040004C0040E1
:101EF0000050004070B50246002400230025002059
:101F000040F66A16B14200D100BFC1F3421501F09C
:101F10001F03012606FA03F3012D02D196893340EF
:101F200006E0022D02D1168A334001E0968A334042
:101F30000C12012606FA04F41688344013B10CB1D1
:101F4000012000E0002070BDF0B50346002400260B
:101F50000025002040F66A17B94200D100BF18469C
:101F6000C1F3421401F01F06012707FA06F5012C00
:101F700001D10C3004E0022C01D1103000E014300B
:101F80001AB107682F43076002E00768AF43076094
:101F9000F0BD00002DE9F04786B005460E4600244E
:101FA000A24600BFA1460027B08900B100BF2F465E
:101FB0002C8A4CF6FF700440F08804432C82AC89D4
:101FC0004EF6F3100440B088318908437189084304
:101FD0000443AC81AC8A4FF6FF400440B08904430F
:101FE000AC8201A8FFF7ACFB1F48874202D1DDF8A5
:101FF00010A001E0DDF80CA0A88900F4004040B179
:102000000AEBCA0000EB0A1031684900B0FBF1F896
:1020100007E00AEBCA0000EB0A1031688900B0FB48
:10202000F1F86420B8FBF0F004012009642101FB01
:102030001089A88900F4004040B1322000EBC900AB
:10204000B0FBF1F000F00700044308E0322000EBA1
:1020500009106421B0FBF1F000F00F0004432C8163
:1020600006B0BDE8F08700000038014001468888CE
:10207000C0F30800704700000B480088B0F5E16F1E
:1020800001DB012000E000200849087008460078C4
:1020900020B14FF480500649086004E04FF48050AE
:1020A0000349091D08607047300000202E00002001
:1020B0001008014070B5054615A12846FEF744F802
:1020C00004466CB1607930280ADB6079342807DC7B
:1020D000A0792C2804D1607930380F49087070BD80
:1020E0000EA12846FEF730F8044674B1AC420CD974
:1020F00014F8010C302808DB14F8010C342804DC37
:1021000014F8010C30380449087000BFE7E70000FC
:102110002B4950442C000000290000202C434F4E36
:102120004E4543540000000000BFFEE70BE000BF37
:102130000749098801F040010029F9D00178044AD3
:10214000121D1180401C01780029F0D17047000059
:10215000004800400FB4054B10B503A9044A02988B
:1021600000F030F810BC5DF814FB00009126000868
:102170004C0000200FB4084B10B504A902AA039824
:1021800000F020F8044602A9002000F04CFA204696
:1021900010BC5DF814FB00002726000800487047BB
:1021A0005800002002E008C8121F08C1002AFAD116
:1021B00070477047002001E001C1121F002AFBD1C7
:1021C000704700002DE9FF4F8DB00F4605460026F1
:1021D00006E025280BD0DDE90F1290476D1C761C18
:1021E00028780028F5D111B03046BDE8F08F0024E2
:1021F000A246A1460122EC4900E0044315F8013F44
:10220000203B02FA03F00842F7D128782A2810D0A0
:102210006FF02F022878A0F13001092914D80AEBB9
:102220008A0102EB410144F0020400EB010A6D1C3B
:10223000F0E701CF5FEA000A03D544F40054CAF185
:10224000000A44F002046D1C28782E2817D115F8D6
:10225000010F44F004042A280ED06FF02F022878D2
:10226000A0F1300109290AD809EB890102EB4101EB
:1022700000EB01096D1CF2E757F8049B6D1C2878F0
:102280006C280FD006DC4C2817D068280DD06A289F
:1022900014D104E0742810D07A280FD10DE044F452
:1022A00000140AE044F4801401E044F44014697816
:1022B000814202D104F580146D1C6D1C2A786E2AAF
:1022C0001FD00CDC632A31D004DC002A8BD0582AC2
:1022D00011D1A3E0642A68D0692A0CD165E0732A81
:1022E0002ED004DC6F2A73D0702A04D19BE0752AAB
:1022F0006FD0782A6ED01046DDE90F129047761C19
:1023000050E1C4F30250022806D0032809D0042863
:1023100001CF09D0066045E101CFF117C0E90061A6
:1023200040E101CF06803DE106703BE117F8040B68
:102330008DF8000000208DF80100EB46012003E03D
:1023400057F804BB4FF0FF3061074FF0000102D493
:102350000DE008F10101884649450FDA8045F8DBB8
:102360001BF808100029F4D108E008F101018846A3
:102370008142FADB1BF808100029F6D1DDE90F23B2
:10238000AAEB08008146214600F036F9304400EB04
:10239000080604E0DDE90F121BF8010B9047B8F1C5
:1023A0000108F7D221464846F7E00A21C4F3025358
:1023B0004FF0000B0891022B04D001CFC117032B63
:1023C00009D00AE0FF1D27F00707F7E8020108E03F
:1023D00032E01FE020E000B2C117042B01D140B26F
:1023E000C117031E71F1000307DA4FF0000CD0EBA8
:1023F0000C006CEB01012D2302E0230504D52B23F7
:102400008DF82430012303E0E30701D02023F7E710
:10241000984658E00A2110E010210EE010204FF0FD
:10242000000B08900CE010214FF0000B44F0040466
:102430004FF00809089103E008214FF0000B0891C4
:10244000C4F30253022B04D001CF0021032B06D08A
:1024500006E0FF1D27F00707F7E8020103E080B25E
:10246000042B00D1C0B24FF0000823072BD5702AEF
:1024700007D0DDF820C08CF0100C5CEA0B0C05D006
:102480000EE040238DF82430012308E050EA0103D8
:1024900006D030238DF824308DF82520022398466D
:1024A000DDF820C08CF0080C5CEA0B0C0BD150EA74
:1024B000010301D1630706D530238DF824304FF096
:1024C0000108A9F10109582A04D038A20B9208AAE0
:1024D0000A920BE03AA2F9E75B46089AFDF77CFE08
:1024E0000B9B9B5C0A9A521E0A92137050EA0102DF
:1024F000F2D10A98ADEB000000F1200B600702D585
:1025000024F4803401E04FF00109D94502DDA9EB44
:102510000B0000E0002000EB0B0141440890AAEB07
:10252000010AE00306D4DDE90F232146504600F0FE
:1025300063F806444FF0000908E009A911F8090002
:10254000DDE90F12904709F10109761CC145F4DB62
:10255000E0030CD5DDE90F232146504600F04CF88E
:10256000064404E0DDE90F1230209047761C0899FC
:10257000481E08900029F5DC08E00A980A990078BE
:10258000491C0A91DDE90F129047761CBBF100014E
:10259000ABF1010BF1DC21465046DDE90F2300F0E1
:1025A00019F806446D1C1BE609280100303132334E
:1025B000343536373839616263646566000000007F
:1025C0003031323334353637383941424344454669
:1025D000000000002DE9F041044600251E46174684
:1025E000880404D405E039462020B0476D1C641EE1
:1025F000F9D52846BDE8F0812DE9F04104460025D3
:102600001E469046C80301D5302700E020278804E5
:1026100004D505E041463846B0476D1C641EF9D527
:102620002846BDE8F0810A68531C0B6010707047A3
:1026300030B50446002504E04FF47A7000F004F849
:102640006D1CA542F8D330BD70B5034600224FF093
:10265000E02675690D4E367803FB06F44FF0E02650
:10266000B16910E04FF0E026B06988420BD0884293
:1026700002D20E1A324402E02E1A0E4432440146AF
:10268000A24200D300E0EDE700BF70BD480000208B
:1026900000BF054A128802F04002002AF9D0C2B2F7
:1026A000014B1B1D1A807047003801404FF4A06099
:1026B000FEF7AAFE4820FFF74FFA4FF4E13000F092
:1026C000A7F84FF4165000F001F9FDF7DBFEFEF716
:1026D000A5FEFDF79DFEFFF79BF9FDF7C9FE6420FF
:1026E000FFF7A6FFFDF776FEFDF7B0FF22A0FFF78C
:1026F00031FD27A0FFF72EFDFEF786F9FFF798F9C9
:10270000044644B100202D4908702DA2002108463E
:10271000FEF74EFF07E02FA200210846FEF748FF14
:1027200031A0FFF717FD25E0A0213548FFF7A4FAF7
:1027300010B13348FEF718FC4FF400713148FFF731
:1027400065FA10B12F48FEF7C7FD2F48006841F227
:102750007071884206D300202C490870FFF78CFC6A
:10276000FDF774FF1420FFF763FF2748006814305B
:1027700025490860D8E7000043495459204741548F
:102780004557415920422053544152540D0A0000EC
:102790004553503132463A20454E3D504238205242
:1027A00053543D5042312054583D50423130205214
:1027B000583D504231310D0A000000002800002031
:1027C0005749464920415020524541445920202034
:1027D000000000005749464920494E4954204641CF
:1027E000494C2020000000004349545920574946D5
:1027F0004920494E4954204641494C45440D0A0060
:10280000DC0100207C020020440000202A0000207F
:1028100010B586B00446012144F20400FEF770FFB3
:102820002848FFF719FB4FF40070ADF8140003209F
:102830008DF8160018208DF8170005A92248FEF71C
:1028400089FA4FF48060ADF8140048208DF8170025
:1028500005A91D48FEF77EFA01940020ADF8080096
:10286000ADF80A00ADF80C00ADF810000C20ADF882
:102870000E0001A91348FFF78DFB01211148FFF756
:10288000DEFA012240F225510E48FFF75DFB0122DE
:1028900040F224410B48FFF757FB40210948FFF75E
:1028A000C5FA25208DF8000003208DF801008DF871
:1028B000020001208DF803006846FEF76DFD06B0AA
:1028C00010BD0000003801400008014010B586B07E
:1028D000044601210420FEF713FF01214804FEF7FE
:1028E000EFFE2548FFF7B8FA0420ADF814000320E6
:1028F0008DF8160018208DF8170005A91F48FEF75F
:1029000029FA0820ADF8140004208DF8170005A955
:102910001A48FEF71FFA01940020ADF80800ADF840
:102920000A00ADF80C00ADF810000C20ADF80E0058
:1029300001A91148FFF72EFB01210F48FFF77FFA8D
:10294000012240F225510C48FFF7FEFA012240F225
:1029500024410948FFF7F8FA26208DF800000020EE
:102960008DF8010001208DF802008DF80300684603
:10297000FEF712FD06B010BD004400400008014003
:102980000B49D1F80412B1F5007F04D30021084AA5
:10299000C2F804120AE00649D1F80422D1F8041260
:1029A000491C034BC3F804121946885470470000B1
:1029B000880600200000000000000000002F00003A
:1029C00000000700070000147F147F1400242A7FF2
:1029D0002A12006264081323003649552250000071
:1029E0000503000000001C224100000041221C00E1
:1029F0000014083E08140008083E0808000000A063
:102A0000600000080808080800006060000000205E
:102A100010080402003E5149453E0000427F40003C
:102A2000004261514946002141454B3100181412C2
:102A30007F10002745454539003C4A49493000018F
:102A40007109050300364949493600064949291EDE
:102A50000000363600000000563600000008142240
:102A60004100001414141414000041221408000240
:102A70000151090600324959513E007C1211127C65
:102A8000007F49494936003E41414122007F414192
:102A9000221C007F49494941007F09090901003E84
:102AA0004149497A007F0808087F0000417F4100C2
:102AB000002040413F01007F08142241007F404038
:102AC0004040007F020C027F007F0408107F003E20
:102AD0004141413E007F09090906003E4151215E06
:102AE000007F091929460046494949310001017F03
:102AF0000101003F4040403F001F2040201F003F99
:102B00004038403F0063140814630007087008074A
:102B100000615149454300007F41410000552A555D
:102B20002A55000041417F000004020102040040D8
:102B300040404040000001020400002054545478FA
:102B4000007F48444438003844444420003844441A
:102B5000487F00385454541800087E0901020018B8
:102B6000A4A4A47C007F080404780000447D4000F5
:102B7000004080847D00007F102844000000417FD9
:102B80004000007C04180478007C080404780038B5
:102B90004444443800FC242424180018242418FC3D
:102BA000007C0804040800485454542000043F44A6
:102BB0004020003C4040207C001C2040201C003C69
:102BC0004030403C004428102844001CA0A0A07CB9
:102BD000004464544C4414141414141400000000F1
:102BE000000000000000000000000000000000F8ED
:102BF00000000000000000333000000000100C0650
:102C0000100C0600000000000000000040C07840EA
:102C1000C0784000043F04043F040400007088FCB6
:102C200008300000001820FF211E0000F008F0000E
:102C3000E018000000211C031E211E0000F008887F
:102C4000700000001E2123241927211010160E00E9
:102C5000000000000000000000000000000000E094
:102C600018040200000000071820400000020418A9
:102C7000E00000000040201807000000404080F005
:102C8000804040000202010F01020200000000F03B
:102C9000000000000101011F01010100000000000F
:102CA0000000000080B07000000000000000000084
:102CB000000000000001010101010101000000000D
:102CC00000000000003030000000000000000000A4
:102CD00080601804006018060100000000E0100881
:102CE0000810E000000F102020100F00001010F856
:102CF000000000000020203F202000000070080895
:102D00000888700000302824222130000030088814
:102D1000884830000018202020110E000000C0203C
:102D200010F8000000070424243F240000F808885D
:102D3000880808000019212020110E0000E01088EA
:102D400088180000000F112020110E00003808081C
:102D5000C83808000000003F00000000007088082C
:102D600008887000001C222121221C0000E01008AD
:102D70000810E0000000312222110F00000000C006
:102D8000C0000000000000303000000000000080A3
:102D90000000000000008060000000000000804093
:102DA00020100800000102040810200040404040AC
:102DB00040404000040404040404040000081020FF
:102DC0004080000000201008040201000070480844
:102DD0000808F0000000003036010000C030C828AC
:102DE000E810E0000718272423140B000000C03867
:102DF000E0000000203C23020227382008F88888E1
:102E000088700000203F202020110E00C0300808EC
:102E100008083800071820202010080008F80808C3
:102E20000810E000203F202020100F0008F88888BC
:102E3000E8081000203F20202320180008F8888888
:102E4000E8081000203F200003000000C030080800
:102E50000838000007182020221E020008F8080089
:102E60000008F808203F210101213F20000808F850
:102E7000080800000020203F202000000000080873
:102E8000F8080800C08080807F00000008F888C033
:102E900028180800203F20012638200008F80800E4
:102EA00000000000203F20202020300008F8F8001B
:102EB000F8F80800203F003F003F200008F830C02D
:102EC0000008F808203F200007183F00E01008081D
:102ED0000810E0000F10202020100F0008F808084C
:102EE0000808F000203F210101010000E01008085F
:102EF0000810E0000F18242438504F0008F8888884
:102F000088887000203F2000030C30200070880863
:102F1000080838000038202121221C00180808F871
:102F2000080818000000203F2000000008F80800F2
:102F30000008F808001F202020201F0008788800C3
:102F400000C83808000007380E010000F80800F833
:102F50000008F800033C0700073C030008186880DD
:102F60008068180820302C03032C30200838C80053
:102F7000C83808000000203F2000000010080808A2
:102F8000C83808002038262120201800000000FE44
:102F9000020202000000007F40404000000C30C0F0
:102FA00000000000000000010638C000000202021C
:102FB000FE000000004040407F00000000000402CE
:102FC00002020400000000000000000000000000F9
:102FD00000000000808080808080808000020204E9
:102FE00000000000000000000000000000008080E1
:102FF000808000000019242222223F2008F800804F
:1030000080000000003F112020110E000000008011
:1030100080800000000E11202020110000000080A0
:103020008088F800000E112020103F2000008080D2
:1030300080800000001F222222221300008080F0E6
:10304000888888180020203F202000000000808011
:1030500080808000006B94949493600008F8008056
:1030600080800000203F210000203F2000809898B1
:10307000000000000020203F202000000000008011
:103080009898000000C08080807F000008F8000051
:1030900080808000203F24022D302000000808F8A6
:1030A000000000000020203F202000008080808061
:1030B00080808000203F20003F20003F80800080F3
:1030C00080800000203F210000203F200000808001
:1030D00080800000001F202020201F0080800080B2
:1030E0008000000080FFA12020110E000000008061
:1030F00080808000000E112020A0FF808080800052
:103100008080800020203F2120000100000080807E
:10311000808080000033242424241900008080E073
:10312000808000000000001F202000008080000040
:1031300000808000001F202020103F208080800021
:103140000080808000010E30080601008080008031
:10315000008080800F300C030C300F000080800056
:10316000808080000020312E0E3120008080800081
:103170000080808080818E70180601000080808031
:10318000808080000021302C2221300000000000CF
:10319000807C020200000000003F40400000000070
:1031A000FF00000000000000FF0000000002027CA1
:1031B000800000000040403F0000000000060101C8
:1031C000020204040000000000000000BDDA044414
:1031D00044445F44C44444445F44C40404000000C5
:1031E00000000000FF000008100807000000B5E321
:1031F0000000C04040407F48484848C808080000D8
:1032000080403704041464041464040710E00000D0
:10321000CEC21060028C0000FE9292929292FE004A
:10322000000004047E01407E42427E427E42427E95
:103230004000B6C80000FC242424FC252624FC24DD
:103240002424040040308F80844C55252525554C7E
:1032500080808000CAAA1060028C00FE9292929236
:103260009292FE00000004047E014448507F4040DA
:103270007F5048444000B6C80000FC242424FC25AC
:103280002624FC242424040040308F80844C5525BF
:103290002525554C80808000CCE5008060F8071023
:1032A0001010D0FFD01010100000010000FF100817
:1032B000040B08FF080B04081000CEC21060028C3B
:1032C0000000FE9292929292FE00000004047E01A1
:1032D000407E42427E427E42427E4000C1AC40403F
:1032E00042CC000444645C47F4444444040000407D
:1032F000201F2044444444447F4444444400BDD3FC
:10330000101010FF1050445465C6446454444000EB
:103310000444827F0182824A562322524E82020056
:10332000B3C90000F8888888880808FF08090AC817
:10333000080080601F0010201F80402116182641C1
:10334000F800B9A6080808F80808081010FF1010BF
:1033500010F000001030101F088848300E01408027
:10336000403F0000CAA70040301E101010FF101090
:1033700010101000000081814121110D0301030D87
:10338000112141818100B0DC00FE02FA02FE4020E2
:10339000D8171010F01010008047300F10678040D1
:1033A0002116081621408000D4C6404042424242C5
:1033B000C242424242424240400000207028242340
:1033C000202020242830E0000000C6BD00020212A8
:1033D000620202FE02024232020200000101010109
:1033E000010101FF0101010101010100CCA8004020
:1033F000E050484443404040485060C00000000056
:1034000000FE42424242424242FE00000000B7E754
:103410000000FE021222C202C23202FE00000000C0
:1034200080601F0020100C030C30000F3040F800AB
:10343000CBD9404042CC0004F49494FF9494F4041B
:1034400000000040201F20484442415F4142444860
:103450004000CFF200F808080CCA494848C80808DC
:1034600008F8000000FF0000001F0808081F0040C7
:10347000807F0000B6AB0008884828180FE80808CD
:10348000080808080000002011090541817F01019A
:10349000050911200000CEF70202E22222FE2222BC
:1034A00022FE2222E20202000000FF484443404084
:1034B00040434444FF000000C4CF04E4242464A437
:1034C000243F24A4642424E4040000FF0008090924
:1034D000097F09090948807F0000B1B10020202040
:1034E00020FF000000FF4020100800002060201096
:1034F00010FF0000003F404040407800B9E24040EB
:10350000424458C0407F40C0504846404000808000
:10351000402018070000003F404040407800C7BFEF
:1035200002E222223E00809E9292F292929E8000BF
:10353000004382423E40474444447F444454E700B1
:10354000B5E70000F888888888FF88888888F800B0
:10355000000000001F080808087F888888889F806E
:10356000F000D1B90000FE0282828282FA82828259
:103570008282020080601F40404040407F404044C3
:1035800058404000C1F71060028C004464544D461E
:10359000445464C4040004047E0180403E0000FEE4
:1035A00000007E80E000B9A6080808F808080810A6
:1035B00010FF101010F000001030101F0888483065
:1035C0000E014080403F0000C2CA0014A4442434CD
:1035D000AD6624940444A4140000080908080909ED
:1035E00009FD09090B0808090800CDC10000404089
:1035F000404040FF404040404000000040404040CC
:103600004040407F4040404040404000C8C0101013
:10361000FF100082BAEABA83BAEABA820000081838
:103620000F04484A2AFF8A4A1A2F5A8A8800BFAADA
:1036300080828282FE8282828282FE8282828000F8
:10364000008040300F0000000000FF00000000007C
:10365000B9D800001011161010F01010141310003B
:1036600000008181414121110D030D112141418152
:103670008100D7D4000000F8888C8A89888888F86F
:1036800000000000000000FF44444444444444FF60
:1036900000000000B6AF4044C4444444401010FF52
:1036A000101010F00000103C131014B840300E0140
:1036B0004080403F0000C4A31010D0FF9014E4AF3E
:1036C000A4A4A4AFE4040000040300FF00894B2A73
:1036D0001A0E1A2A4B888000CABD10109090909044
:1036E000901010FF101011161000002060203F10E5
:1036F000101000030C102040F800B7E70000FE0295
:103700001222C202C23202FE0000000080601F00CE
:1037100020100C030C30000F3040F800C9C8000026
:10372000FC242424252624242424243C0000403086
:103730000F211549817F00211549817F0000CBAE03
:1037400000202020A06000FF6080402018000000C2
:10375000201008060140807F0001020408101000BC
:10376000B1C342422212FA969292929292F20202CD
:103770000200404424140C44807F04081028244292
:103780004000D7C71060028C00F8080808FF08083E
:1037900008F8000004047E0120632121213F21213B
:1037A00029336000B6C80000FC242424FC2526240C
:1037B000FC242424040040308F80844C552525258A
:1037C000554C80808000BEE0003E22E2223E00FE9A
:1037D0002222222222E20200203F201F1111007F1C
:1037E0004444444444474000C0EB040404F484D4FB
:1037F000A5A6A4D484F40404040000FE0202123A34
:103800001613121A3242827E0000D3D004040484BC
:10381000E43C2724242424E40404040004020100DA
:10382000FF0909090949897F00000000C8CB000091
:1038300000000000C03FC000000000000000804009
:1038400020100C03000000030C1020408000CEDE8E
:103850000040424242C27E42C242424240400000D8
:10386000804020100C0300003F40404040700000AA
:10387000C8CB000000000000C03FC00000000000F6
:103880000000804020100C03000000030C102040BA
:103890008000CCE5008060F807101010D0FFD01039
:1038A00010100000010000FF1008040B08FF080BB7
:1038B00004081000BAEC2030AC63201800040404A3
:1038C000FC0404040000226722121212404040400F
:1038D0007F4040404000CDE200C0301F1010F0009B
:1038E00000FF204080000000814021120C030000F6
:1038F00000FF000000030000D7B400083000FF20E4
:10390000202020FF2020222C200004040201FF8020
:1039100040300E01061820408000CCAC00048484A6
:103920004424548F1424448484040000413900004A
:103930003C4040424C40407004093100C2FA1060E3
:10394000028C0024242FE42424E42F2424000404E3
:103950007E0100FF11090719090749917F00CEB4C4
:1039600080808888888888FF888888888880800008
:1039700020201008040201FF01020408102020008A
:10398000CDB01090FF9010E2222A2AF22A2622E0DF
:1039900000000601FF0001FF0909097F0949897F2D
:1039A0000000B8C700042424252624FC242625244E
:1039B000240400008181F98989F9898989F9898933
:1039C000F9818100D6D8101014D4545454FC5252AA
:1039D00052D312101000404050575555557F555541
:1039E000555750404000C1BF202020BEAAAAAAAA15
:1039F000AAAAAABE20202000008080AFAAAAAAFFFF
:103A0000AAAAAAAF80800000BEAE00101010FF105E
:103A100010101010FF1010100000028242320F022E
:103A200002020202FF0202020200D7DB2030AC6376
:103A300030000C242425262424240C002267221282
:103A40001220110D41817F0105093100BACF40409C
:103A5000202050484443444850202040400000006B
:103A600000FE42424242424242FE00000000C7E3E2
:103A70008060F80700FC404002F21AD612F2020001
:103A80000000FF00001F0804804F300F204F80000F
:103A9000D0B120102824E32428100022CC00FF00FD
:103AA000000020114D817F01051900020202FF0173
:103AB0000100BDC72010E824272424E424342C204E
:103AC000E000000080601F090909097F0909498990
:103AD0007F000000CBAE00202020A06000FF6080AF
:103AE000402018000000201008060140807F0001DF
:103AF000020408101000CEBB008060F80710901080
:103B000011161010D0100000010000FF4040415E6F
:103B10004040704E41404000BCD70000FE222222AF
:103B200022FE22222222FE000000000007020202E2
:103B300002FF0202020207000000CDE9807000FFD0
:103B400010180C242425262424140C008060180747
:103B5000089041310F01013F41417100CEAC20304E
:103B6000AC63205820F84F4849FA484808002267BB
:103B70002212121200FF2222223F22222000D0DE37
:103B80004020F807F0A0904C5724A4544C808000AB
:103B90000000FF001F8092524929241208000000F3
:103BA000D5FD000202C2020202FE828282828202ED
:103BB00000004040407F4040407F40404040404007
:103BC0004000B3A3201808EAACA8A8AFA8A8ACEAA4
:103BD0000828180000003E02020202FF0202122220
:103BE0001E000000E3D000F80122A0A2A222FE22C3
:103BF000AA3202FE000000FF0010130A4B20170C2F
:103C0000133880FF0000D6B5008060F80704E4A4F4
:103C1000A4BFA4A4E4040000010000FF40407F4AC8
:103C20004A4A4A4A7F404000B7E400F808FF08F8D3
:103C300080904C57A4544C8480002063211F11397C
:103C400010101515FF1515101000C3F900FC040421
:103C5000FC0000FC0416650484FC0000000F040452
:103C60000F0010131212125292423E00D1CC8070FB
:103C700000FF1008FE424242FA424242FE008060CB
:103C800018070810FF50484641424C40FF00CEED57
:103C9000100C055555D5057F0555555505140C00D7
:103CA0001010108AA96B352525ABE90810101000FB
:103CB000BFC9000202F2121212F2020202FE020256
:103CC00002000000000F0404040F0040807F000089
:103CD0000000C8BC807000FF10289827C43C907F6B
:103CE00090121400806018070898640328C621C049
:103CF0001126C800C6F820104C475454545454544C
:103D000054D4040400000000000000000000000083
:103D1000000F3040F000CFDF2030AC6320188090DF
:103D200090FF90494A4840002267221212124040F8
:103D300020130C142241F800C2B7003E22E2223EBA
:103D40000010885724548C000000407E403F2222FF
:103D50000001FE424242FE010100B9CA101010FFEC
:103D600010105020D8171010F0101000007F2121E3
:103D7000217F80402116081621408000D5CF00FE0B
:103D80000222DA0610D2565A535A56D2100000FFB9
:103D90000810080710171515FD1515171000BCECB5
:103DA0001010D0FF905020504C434C502040400009
:103DB000040300FF00414458414E60584740400012
:103DC000B2E21060028C00FE02F202FE00F800FF78
:103DD000000004047E018047300F10270047807FD9
:103DE0000000C5A81060028C201808C838CF080849
:103DF0002898000004047E01040201FF4021060A05
:103E000011204000A1E6060909E6F80C04020202AE
:103E10000202041E0000000000071F302040404046
:103E2000404020100000B4B0100CC4544C64D5467F
:103E300044444C54C4140C000000FF4044625549F3
:103E400055434040FF000000BBA7000000F80808F1
:103E5000090E08080808F80000000080601F010132
:103E600001010101010103000000D3EA02E2222264
:103E7000222222FE2222222222E2020000FF000051
:103E80000912007F00091240807F0000B5CE10604B
:103E9000028C00E424ACB5E6B4AC24E400000404D5
:103EA0007E0100FF001E1213125E807F0000B9E247
:103EB0004040424458C0407F40C0504846404000C7
:103EC0008080402018070000003F404040407800BC
:103ED000D5D500FE424242FE0042A29E82A2C2BE50
:103EE0000000806F080828CF00002FC8080828CFDE
:103EF0000000C7BF02E222223E00809E9292F29210
:103F0000929E8000004382423E40474444447F44A6
:103F10004454E700B6C80000FC242424FC252624D1
:103F2000FC242424040040308F80844C5525252512
:103F3000554C80808000D1CC807000FF1008FE427C
:103F40004242FA424242FE00806018070810FF50C9
:103F5000484641424C40FF00CEED100C055555D56A
:103F6000057F0555555505140C001010108AA96BD6
:103F7000352525ABE90810101000C5A81060028C8B
:103F8000201808C838CF08082898000004047E01CB
:103F9000040201FF4021060A11204000B6FE000085
:103FA0000808080808080808080808000000101099
:103FB0001010101010101010101010101000D1F56B
:103FC0000824236AAA2AAA6A2A2A2AEA02020000E4
:103FD0001011151515FF15151511100F3040F800AB
:103FE000BBAF008060F807000000FF40201008040D
:103FF0000000010000FF000402013F40404040403B
:104000007800CCBC04E45C44C400809EF0909F9097
:10401000909E8000013F10107F201806914C300FB9
:1040200030488400B9CA101010FF10105020D81763
:104030001010F0101000007F2121217F80402116F8
:10404000081621408000D5CF00FE0222DA0610D2E9
:10405000565A535A56D2100000FF0810080710177E
:104060001515FD1515171000D7B400083000FF20F6
:10407000202020FF2020222C200004040201FF80A9
:1040800040300E01061820408000CCAC000484842F
:104090004424548F142444848404000041390000D3
:1040A0003C4040424C40407004093100D5FD0002C4
:1040B00002C2020202FE828282828202000040402C
:1040C000407F4040407F4040404040404000B3A3DC
:1040D000201808EAACA8A8AFA8A8ACEA08281800DD
:1040E00000003E02020202FF020212221E00000035
:1040F000B8A98060F80700FC04C434858684F48481
:1041000084000000FF40300F01FF00024C807F0060
:104110000000D1F6008060F80700FC040200FC04F7
:1041200004FC0000010000FF00001F080400FF0461
:1041300008070000BAE11010D0FF901020A4BFA41F
:10414000E4A4BFA42000040300FF0003804F2A0A58
:104150000F0A2A4F8000B9F61060028C002494CC1C
:10416000A596C48C1424000004047E01201008FCD1
:104170004224081522404000BABD80FC96E584FC2C
:104180000008C8494AC808080000807F024C807FA8
:1041900080601F00003F40407800CFF200F8080820
:1041A0000CCA494848C8080808F8000000FF000089
:1041B000001F0808081F0040807F0000BDC72010B6
:1041C000E824272424E424342C20E000000080602C
:1041D0001F090909097F090949897F000000BDD32A
:1041E000101010FF1050445465C6446454444000FD
:1041F0000444827F0182824A562322524E82020068
:10420000CADC80642C3424242C322222322E23A2B5
:1042100060008080414325291111112925434080E8
:104220008000D5FD000202C2020202FE828282826A
:10423000820200004040407F4040407F404040407C
:1042400040404000C8B70484E45C44C42010E82720
:1042500024E4342CE00002017F10103F80601F092D
:10426000093F49897F00B4ED4030EF246448487F1E
:104270004848487F4848400001017F211100FF491C
:1042800049494949FF000000CEF34042CC0000807C
:104290009E92929292929E80000000007F209484D1
:1042A0004424140F142444848400C1B1100C442409
:1042B000140405C60404142444140C0000003F0137
:1042C000010101FF010111211F000000B2BC08081B
:1042D00088C8A8988FE8888888888808080002011C
:1042E000003F000000FF000010201F000000B7C0CA
:1042F00000FE0222DA060808F8898E8888880800FD
:1043000000FF0810088740300F004080403F000049
:10431000B5C6807000FF201004040404FC040404EB
:104320000400806018070830000040807F00000013
:104330000000C5DD1060028C4020F8272424E4042E
:1043400004FC000004047E0100003F42424243445A
:1043500048477000D5DA4042CC0000FC4444F445A4
:104360004644F444440080403F508CA398808BB274
:104370008AB28388B000CAD500FC0000FF0040204C
:10438000D8171010F0101000000F0402FF0080403A
:104390002116081621408000C8CB00000000000054
:1043A000C03FC000000000000000804020100C034F
:1043B000000000030C1020408000D4B10000C05E5B
:1043C000525252525252525EC000000080808F40C2
:1043D0004020100E101020204F800000B7E400F89D
:1043E00008FF08F880904C57A4544C848000206348
:1043F000211F113910101515FF1515101000C3F9E4
:1044000000FC0404FC0000FC0416650484FC0000AD
:10441000000F04040F0010131212125292423E00B9
:10442000B3E4040484C4A49C85868484A4C4840462
:10443000040000808040300F0000007F808081F009
:104440000000B5E70000F888888888FF8888888899
:10445000F800000000001F080808087F8888888886
:104460009F80F000B9DC886423A2A6AAA2BAA4A304
:10447000A2262AA26200000000FF4A4A4A4A4A4A8B
:104480004BF800000000C0ED048484FC848400FE2E
:104490009292FE9292FE00002060201F1010404475
:1044A00044447F4444444000CFB5000022322AA651
:1044B000A2622111098101000000004222130B4277
:1044C000827E02020A1223460000CDB32030AC6384
:1044D000300088C8A8998E88A8C888002267221250
:1044E000128040300F00003F40407100D0DE40207D
:1044F000F807F0A0904C5724A4544C808000000092
:10450000FF001F8092524929241208000000B8C4FD
:104510000484848484FC4030CC0B0808F80808002C
:10452000007F2010100880402116081621408000CE
:10453000C3DC108C4404E40495A6442414844494FD
:104540000C0002027A414143427E42424243F8005B
:104550000000C2EB0484E45C44C40002F282828264
:10456000FE80800002017F10103F00080808084804
:1045700088403F00D1E902FA8282FE804020504C00
:10458000434C5020400008184884443F4044584160
:104590004E6058474000D6A4404042CC000004C4BE
:1045A0000404FC04040404000000003F1048407FA1
:1045B00040407F4141414000BBF00000C038000056
:1045C00000FF000040201800000080814020100CF7
:1045D0000300030C102040808000D1E6807000FFB3
:1045E0001008209088874404948C8000806018070D
:1045F000083000FF444440404444FF00C9CF00005D
:1046000000000000FF4040404040400000004040AB
:10461000404040407F404040404040404000D2BB8E
:10462000808080808080808080808080808080000A
:10463000000000000000000000000000000000007A
:10464000B4CE00020C80608040300FC808082818E3
:10465000000002027E01804020180601061820405A
:104660008000CDA84042CC0000E2222A2AF22A266D
:1046700022E0000080403F4080FF898989BF89A9EE
:10468000C9BF8000BBB0404042CC0000202424249D
:10469000FE22232220000000007F201000FE424264
:1046A000434242FE0000CEB480808888888888FF1C
:1046B000888888888880800020201008040201FFF4
:1046C0000102040810202000BDE12030AC63201856
:1046D000084848487F4848480800226722121212BA
:1046E00000FE4242424242FE0000CAF80404E424B2
:1046F000242424FF24242424E4040400404027220A
:10470000120A06FF060A122227404000B7A700F847
:104710008142E09A82FA424A524202FE000000FFC1
:1047200000007F0020130C142378807F0000C3C595
:1047300000F80106000002020202020202FE00006E
:1047400000FF00000000000000000040807F00002B
:10475000D4B6404042CC002022E22222E222222093
:1047600000000080403F40A0988780809FA0A0BCB0
:104770008000B3CC2424A4FE2322003E2222222245
:10478000223E0000080601FF0106404949497F49D1
:1047900049494100BFD8101010FF902098482809BF
:1047A0000E2848A818000242817F00404042424241
:1047B0007E4242424000D6C640504E4848FF4848DC
:1047C0004840F80000FF000000003E0202FF1222F5
:1047D0001E000F40807F0000CFB5000022322AA6C5
:1047E000A2622111098101000000004222130B4244
:1047F000827E02020A1223460000CDB32030AC6351
:10480000300088C8A8998E88A8C88800226722121C
:10481000128040300F00003F40407100C1A60010E0
:1048200010101010FF1010101010F0000000008089
:10483000402018060100204080403F000000B6A83C
:10484000100C4444444445C64444444444140C00BD
:104850008040201E2040407F444444444440400067
:10486000CAB100FC848484FC001010101010FF10EA
:104870001000003F1010103F0000010640807F0034
:104880000000B3A480808080FF8080A09088848214
:104890008080800000000000FF40211204081020EA
:1048A00020404000D7DC000000F11214101010145A
:1048B00012F10000000040300003394141455941E8
:1048C000417300083000BBA8040404846F0404048E
:1048D000E4048F4424040400040201FF00100804CF
:1048E0003F41404040407800B7D100023AAA6A3FB9
:1048F0002A2A2AFF2AAA2EE000000002819E4242B4
:10490000221A2222425E81000000D3E080804020F3
:10491000504844C344485020408080000040221A40
:104920000242827F0202020A12600000B6EE008C90
:1049300044B526A4640C02F21AD612F20200100842
:10494000FC4A494AFC08804F300F102FC000B9A420
:1049500000040404040404FC04040404040400002B
:10496000202020202020203F202020202020200048
:10497000D6C7109453321E325210007E4242427EFD
:104980000000000000FF49494949494949FF00002A
:104990000000C4DC08CC4A49484ACC18007F88880B
:1049A0008482E00000FF121252927F00007E88880D
:1049B0008482E000B3E9101010FF109000F0101096
:1049C000FF1010F000000444827F010000FF42420B
:1049D0007F4242FF0000D7A21060028C0008080846
:1049E00009FA08080808000004047E01404041411B
:1049F000417F414141414000BEC620C20C8002F2CD
:104A00001212FE12FE1212F2020004047E0100FFD6
:104A10004A494848484949FF0000BCDD0044249CFD
:104A200087A4C4BC80BCA424243C00000020202017
:104A30002E28282828280F4888780000BEAB445824
:104A4000C0FF504C004454547F5454544400080652
:104A500001FF01060000FF151555957F0000D4DA0F
:104A6000080888C8380C0B0808E808080808080077
:104A7000020100FF40414141417F4141414140002D
:104A8000D6D00000F010101010FF10101010F00021
:104A9000000000000F04040404FF040404040F00D9
:104AA0000000CDAC0000FE021292929292929212FD
:104AB00002FE00000000FF00001F080808081F4059
:104AC000807F0000D1A740301196909091969090F1
:104AD000981413503000040404040444847E060532
:104AE000040404040400CAE9000008080808FF08D8
:104AF0000808F90204000000010101010101FF01A1
:104B000001012141211F0000BCAE08A4A3F2A6AA06
:104B1000020A24F32226FA22020022120AFF0A3293
:104B20000201FD55555555FD0100C8EB0000000080
:104B30000001E21CE00000000000000080402010A6
:104B40000C03000000030C3040808000BFE2000036
:104B5000FC2424A4643DA6242424242404004030FE
:104B60000F1013121212FF12121212101000B3F6CD
:104B700000007C40404040FF40404040FC000000BE
:104B8000007C40404040407F4040404040FC0000AE
:104B9000BDE8008060F84748487F4848487F48485B
:104BA0004000010000FF0000FF4949494949FF005A
:104BB0000000CAFD90523410FF10345280708F08EC
:104BC00008F80800829A566322528E008040330C07
:104BD00033408000C1BF202020BEAAAAAAAAAAAA48
:104BE000AABE20202000008080AFAAAAAAFFAAAAFD
:104BF000AAAF80800000CBF52038E730008CC434A9
:104C00002425A66424242C00222712120100FF0070
:104C100000FF494949FF0000CAE6102824E3242880
:104C20005042424AD26A4640C00001F9494F49F910
:104C3000010040807F0000010000D5C502E2222271
:104C40003E8080FF80A09088868080000043824262
:104C50003E0000FF4021060810204000D0C40000A4
:104C6000800000E002041800000040800000100CEA
:104C70000300003F40404040407800010E00BEADC0
:104C80002030AC63201880824222121A2642800013
:104C9000226722121212404242427E4242424000A9
:104CA000CEB32030AC63201800084848FF4848487D
:104CB000080022672212121200020202FF021222D0
:104CC0001E00C3BA807000FF20100404FF242424B7
:104CD000FF0404008060180708304424150DFF0D00
:104CE00015244400B1A8101010FF109000FE82821D
:104CF0008292A29E00000444827F010000FF804354
:104D00002C102C438000BEAF12EAAFAAEA0FFA02C1
:104D1000888C5724548C84000202EAAAAAABAAAB5E
:104D2000AAAAAAAAEA020200B8DF04040404F494BE
:104D300095969494F4040404040000FE02027A4A56
:104D40004A4A4A4A7A0282FE0000B5CD008060F8E5
:104D50000700FC848484FE8283828000010000FFBF
:104D60000000FF402000418E3040F800C6AB80605C
:104D7000F80700FC242425262424243C00000000FD
:104D8000FF403C03FF097F097F0989FF0000B3A3AF
:104D9000201808EAACA8A8AFA8A8ACEA0828180010
:104DA00000003E02020202FF020212221E00000068
:104DB000B3AC40484848FF484842A29E82A2C2BEC7
:104DC000000080601F207F4444404F484848484FBF
:104DD0004000BAC5808080BEA2A2A2A2A2A2A2BEAA
:104DE0008080800000000006050404044484443CE4
:104DF00000000000BEAD2030AC632018808242224B
:104E0000121A2642800022672212121240424242A7
:104E10007E4242424000CEB32030AC6320180008EE
:104E20004848FF4848480800226722121212000230
:104E30000202FF0212221E00B2BD4040407C4040F0
:104E400040FF4444444444404000809088464040F1
:104E5000202F1010080402000000CAFD90523410E8
:104E6000FF10345280708F0808F80800829A566349
:104E700022528E008040330C33408000B4B4402076
:104E8000D04C4344C8102000F80000FF0000000090
:104E90003F404448474070000F40807F0000CBBC3B
:104EA0000000FE92929292FE92929292FE00000078
:104EB000403801003C4040424C4040700508300002
:104EC000CDA84042CC0000E2222A2AF22A2622E083
:104ED000000080403F4080FF898989BF89A9C9BF00
:104EE0008000D0C5008060F8070004242425262413
:104EF00024240400010000FF000000F94949494949
:104F000049F90000B7A20000181610D0B897909089
:104F10009092941000000020108C8380414628104D
:104F2000284443808000B0E51010D0FF901000FCB2
:104F300024E4242223E20000040300FF0083601F16
:104F400080412618264180000040404040404040BB
:104F5000404041414141414040404040404040404C
:104F600040404040404040404005020202020202F0
:104F7000020202020202020202202020202020203F
:104F80002020200202020202020290909090909053
:104F90001010101010101010101010101010101011
:104FA0001010101002020202020288888888888885
:104FB0000808080808080808080808080808080871
:104FC000080808080202020240000000494F0008D9
:104FD000444154412C543D25642E25642C483D25E4
:104FE000642E25642C534D4F4B453D25752C4C4963
:104FF0004748543D25752C5049523D25752C524546
:105000004C41593D25752C4D4F44453D25732C4150
:105010004C41524D3D2575003850000800000020DD
:105020005C000000A4210008945000085C000020EF
:105030003C100000B421000800A24A040000000057
:105040000000000001020304060708090000000038
:10505000010203040102030406070809020406080A
:10506000000000010000000000000000000000003F
:105070000000000000000000000000000000000030
:105080000000000000000000000000000000000020
:04509000000000001C
:04000005080000ED02
:00000001FF
