:020000040000FA
:030000000200E318
:0300130002194788
:0300330002187937
:03003B000219A304
:03006B0002175920
:03007B000217E980
:1000830002190900000080FB120113B900030200EA
:10009300CDE4900301780A79048002F0A3D8FCD957
:1000A300FA90060AAA82AB839001167846790980F2
:1000B30015E493A3AC82AD838A828B83F0A3AA82D7
:1000C300AB838C828D83D8E9D9E7758298758336A3
:1000D30074001200F575828675830074001200F5B2
:1000E30075D00075813F751001751103759F00026E
:1000F300008BC09FF59FE473D09F22D083D082C032
:100103009FE493C0E0740193C0E0740293F59F22CF
:100113007901222D2D2DBDD3CAD5CEC2CAAAB6C808
:100123002D2D2D00CEC2B6C83A25642E256420207D
:10013300B6C800CAAAB6C83A256420252500CEC28F
:10014300B6C83A25642E25642020B6C82CCAAAB6A0
:10015300C83A25642025250D0A002D2D2DBCECB2AF
:10016300E2CEC2CAAAB6C82D2D2D00CEC2CAAAB6E7
:10017300C8BCECB2E24448543131006B657931D1EB
:10018300A1D4F1BCECB2E2006B657932D1A1D4F118
:10019300BDD3CAD500FF000000000000000000002E
:1001A300000000000000C20100202000CEC200CAEF
:1001B300AA00B6C800BCEC00B2E200D1A100D4F1A1
:1001C30000BDD300CAD500000000000000000000FD
:1001D30000000000000000000000F8000000000024
:1001E3000000333000000000100C06100C06000065
:1001F3000000000000000040C07840C078400004C8
:100203003F04043F040400007088FC083000000031
:100213001820FF211E0000F008F000E01800000085
:10022300211C031E211E0000F00888700000001E20
:100233002123241927211010160E000000000000AE
:1002430000000000000000000000E01804020000AD
:100253000000071820400000020418E0000000001E
:1002630040201807000000404080F080404000021A
:1002730002010F01020200000000F0000000000173
:1002830001011F01010100000000000000000080C7
:10029300B07000000000000000000000000000003B
:1002A3000101010101010100000000000000000044
:1002B30030300000000000000000008060180400DF
:1002C3006018060100000000E010080810E00000BC
:1002D3000F102020100F00001010F8000000000085
:1002E30020203F20200000007008080888700000CC
:1002F300302824222130000030088888483000004C
:1003030018202020110E000000C02010F80000006B
:10031300070424243F240000F80888880808000004
:1003230019212020110E0000E01088881800000019
:100333000F112020110E0000380808C838080000EB
:1003430000003F000000000070880808887000006B
:100353001C222121221C0000E010080810E00000EC
:1003630000312222110F00000000C0C00000000075
:10037300000030300000000000008000000000009A
:100383000080600000000000008040201008000092
:100393000102040810200040404040404040000457
:1003A300040404040404000008102040800000003A
:1003B30020100804020100007048080808F000003B
:1003C30000003036010000C030C828E810E0000704
:1003D30018272423140B000000C038E0000000207D
:1003E3003C23020227382008F88888887000002000
:1003F3003F202020110E00C03008080808380007ED
:100403001820202010080008F808080810E0002031
:100413003F202020100F0008F88888E808100020EB
:100423003F20202320180008F88888E808100020BF
:100433003F200003000000C0300808083800000710
:10044300182020221E020008F808000008F80820DF
:100453003F210101213F20000808F808080000009F
:1004630020203F2020000000000808F8080800C0F2
:100473008080807F00000008F888C02818080020CA
:100483003F20012638200008F80800000000002063
:100493003F20202020300008F8F800F8F80800205A
:1004A3003F003F003F200008F830C00008F8082054
:1004B3003F200007183F00E01008080810E0000F75
:1004C30010202020100F0008F808080808F000206A
:1004D3003F210101010000E01008080810E0000FAF
:1004E30018242438504F0008F88888888870002022
:1004F3003F2000030C3020007088080808380000F3
:1005030038202121221C00180808F80808180000C8
:1005130000203F2000000008F808000008F8080049
:100523001F202020201F000878880000C8380800FA
:100533000007380E010000F80800F80008F800036F
:100543003C0700073C0300081868808068180820EF
:10055300302C03032C30200838C800C838080000AA
:1005630000203F2000000010080808C838080020B9
:1005730038262120201800000000FE02020200009D
:1005830000007F40404000000C30C000000000002D
:100593000000010638C00000020202FE0000000055
:1005A3004040407F000000000004020202040000FB
:1005B30000000000000000000000000000000080B8
:1005C30080808080808080000202040000000000A0
:1005D3000000000000000000008080808000000018
:1005E30019242222223F2008F80080800000000006
:1005F3003F112020110E00000000808080000000C9
:100603000E112020201100000000808088F80000D7
:100613000E112020103F2000008080808000000009
:100623001F222222221300008080F088888818006D
:1006330020203F2020000000008080808080000078
:100643006B94949493600008F800808080000020ED
:100653003F210000203F2000809898000000000008
:1006630020203F2020000000000080989800000018
:10067300C08080807F000008F80000808080002018
:100683003F24022D302000000808F800000000007D
:1006930020203F20200000808080808080800020F8
:1006A3003F20003F20003F808000808080000020AA
:1006B3003F210000203F2000008080808000000058
:1006C3001F202020201F00808000808000000080E9
:1006D300FFA12020110E0000000080808080000018
:1006E3000E112020A0FF8080808000808080002069
:1006F300203F2120000100000080808080800000D6
:1007030033242424241900008080E080800000002A
:1007130000001F2020000080800000008080000077
:100723001F202020103F20808080000080808000D8
:10073300010E300806010080800080008080800F59
:10074300300C030C300F000080800080808000009C
:1007530020312E0E31200080808000008080808038
:10076300818E7018060100008080808080800000E8
:1007730021302C2221300000000000807C02020086
:10078300000000003F404000000000FF00000000A8
:10079300000000FF0000000002027C800000000057
:1007A30040403F0000000000060101020204040073
:1007B30000000000000000A0060000000000000090
:1007C3000000000000000000000000000000000026
:1007D300000000000000000000A3061060028C006F
:1007E30000FE9292929292FE00000004047E014069
:1007F3007E42427E427E42427E4000A60610600256
:100803008C00FE929292929292FE00000004047E6B
:10081300014448507F40407F5048444000A90600AF
:1008230000FC242424FC252624FC24242404004046
:10083300308F80844C55252525554C80808000AC15
:10084300061010D0FF905020504C434C5020404095
:1008530000040300FF00414458414E6058474040A4
:1008630000AF061060028C00FE02F202FE00F800E8
:10087300FF000004047E018047300F1027004780EB
:100883007F0000B206404042CC00504EC8487FC8AB
:1008930048484000000040201F20504C4340404F38
:1008A30050505C4000B5061010FF100082864A527B
:1008B300A2524A8680800042827F010010121212E7
:1008C300FF121212100000B806101010FF1050444F
:1008D3005465C64464544440000444827F018282C8
:1008E3004A562322524E820200BB0600FC0000FF40
:1008F300004020D8171010F0101000000F0402FF62
:100903000080402116081621408000490A0000009B
:100913003031323334353637383941424344454632
:1009230000286E756C6C20706F696E746572290097
:100933003F3F3F000000807F0000803FF9021550D9
:10094300B743BA510000204100E7DB2E0000A0406E
:1009530010000000080000001200FEC6380012005C
:10096300FED838001200FEE638001200FE6339009C
:100973001200FE8B33001200FEA033001200FE248F
:1009830035001200FE742F001200FE1B300012000F
:10099300FE7C30001200FE9931001200FE2232006C
:1009A3001200FEBE32001200FECE32001200FE77AD
:1009B30033001200FE313E001200FE623D001200C1
:1009C300FE773D001200FE013D001200FE373D00A0
:1009D3001200FE843E001200FE893E001200FE5902
:1009E3002A001200FE222B001200FE302B00120000
:1009F300FE552B001200FE7C2B001200FEA32B00E1
:100A03001200FED72B001200FE082C001200FE6716
:100A13002C001200FEFC2C001200FEB82E00120067
:100A2300FE723E001200FE873C001200FEAE3C0048
:100A33001200FEDA3C001200FE8F3A001200FEC1E3
:100A43003A001200FED13A001200FEE73A0012000B
:100A5300FEFE3A001200FE153B001200FE413B0071
:100A63001200FE653B001200FE763B001200FE7F83
:100A73003B001200FE883B001200FE9D3B0012006B
:100A8300FEB23B001200FED13B001200FEE43B002D
:100A93001200FEE436001200FEF137001200FEBE23
:100AA3003D001200FE043E001200FEE73B00120070
:100AB300FE113C001200FE543E001200FE0A1A0012
:100AC3001200FE281F00E4936670130874019366F6
:100AD300700C08740293667005087403936622C051
:100AE30008C3E096F50808A3E096420808A3E09639
:100AF300420808A3E0964208A2D265D033E5087005
:100B030001D3D00822C3E493960874019396087422
:100B1300029396087403939622080808E630E711B7
:100B2300121358120B34080808C64480C618181844
:100B330022181818E9799EC608CAC608CBC608CC7D
:100B4300C6C370207996CACBCC7019798ECBCC7082
:100B5300137986CC700EF9802ACA33CACB33CBCC37
:100B630033CC331930E7F2CCCBCA3350147004EAD8
:100B730030E00DE4CA3ACACB3BCBCC3CCC500209A3
:100B8300C3E913C6CC182313C6CB18C6CA18C6F9B3
:100B930022120BD420F01430E72B74FFFCFBFA7401
:100BA3007F8022E4FCFBFA7480801AB48008BC00C6
:100BB300F2BB00EF800F50EBF9E4C39AFAE49BFB1E
:100BC300E49CFCE499C6CC18C6CB18C6CA18C6F96F
:100BD30022E4C9C608CAC608CBC6D3330308CCC6A9
:100BE3003392F0C3947F402E94184019C9B9070477
:100BF300CACBCC225025C309CA33CACB33CBCC339F
:100C0300CC33D9F422F4600DC9CCC313CB13CBCAB4
:100C130013CAD9F6CC22E4FCFBFA2214FCFBFA2219
:100C2300E6C33318461846184622E7C33319471953
:100C330047194722181818E6084608700AE608C339
:100C4300337005E633F4220822191919E709470915
:100C5300700AE709C3337005E733F4220922E60873
:100C63004608C3134608336002E633F422E7094714
:100C730009C3134709336002E733F422120C61609E
:100C830025120C706020120C237003020C2D08082F
:100C930008E76670101819E766700A1819E7667096
:100CA300041819E76622F422120C61601C120C70FE
:100CB3006017120C237007120C2D7001D322C0D0C1
:100CC300120C2D7006D0D0B322C32233D0D05014CF
:100CD30030E0F6C3E7960809E7960809E79608099E
:100CE300E796B32220E0D5E6970809E6970809E6D8
:100CF300970809E697B322120C61601B120C70600F
:100D030016120C237007120C2D600CB322C0D012E4
:100D13000C2D7005D0D022C32233D0D0501330E035
:100D2300EBC3E7960809E7960809E7960809E796EB
:100D33002220E0E4E6970809E6970809E697080900
:100D4300E6972200120C61604F120C706012E75498
:100D53008066F6120C377011120C2D703B090909CD
:100D6300F4F618F618F618F622120C4C7015120C3D
:100D73002308080860EAE6447FF618768018E4F64C
:100D830018F622120C236016120C2D7012E4F608CA
:100D9300F608F608E65480F609090918181822EA35
:100DA300C0E0EBC0E0ECC0E0EDC0E0E687F0A4FB00
:100DB300ACF008E687F0A42CFCE435F0FA1809E659
:100DC30087F0A42C4B60027401CA35F0FCE433FBBA
:100DD30009E687F0D2F7A42CCB35F0FC1908E68797
:100DE300F0A42BCC35F0FBE433FD0819E687F0D2F1
:100DF300E7A42C4ACB35F0CD3400FC09E687F0D2CA
:100E0300E7A42DCC35F0FDE433FA0918E687F0D2D8
:100E1300F7A42CCD35F0CA3400FC08E687F0D2E7FE
:100E2300D2F7A42ACC35F07A7E20E70B0ACB33CB5A
:100E3300CD33CDCC33CC33CB3350147004ED30E011
:100E43000ED2F1E4CD3DCDCC3CCC3B5005DA05C20E
:100E5300F1EB547FC63308E63392F0FBE73309E73F
:100E630033C39A502D2B70190C0D4C4D7015180669
:100E7300E608C333700D20F10AA2F013F6E41880DC
:100E83000B4024E4F630F002768018F618F618F6D4
:100E93008024D33B14501074FFA2F013F61876800D
:100EA300E418F618F6800FA2F013F618E63303F6EB
:100EB30018ECF618EDF6D0E0FDD0E0FCD0E0FBD066
:100EC300E0FA22120C706046120C61603DE9687012
:100ED30008F618F618F618F622748067F7120EFA59
:100EE300090909748067F722120C61601D120C70E6
:100EF3007005191919801A120C37701F120C4CC384
:100F03007003E667331919194007181818220808DF
:100F13000874FFF618F618F618F622120C4C601730
:100F2300120C2D702192F0120C237019501720F01F
:100F330014080808090909E7F61819E7F61819E764
:100F4300F61819E7F622120C2360E6E869701F0809
:100F530008E62480F608E436F618547FB47F0CE6DE
:100F630054806007F6E418F618F622181822E9C62A
:100F7300CC08C6CD08C6CE08C6CFC0E0E8C0E0EABC
:100F8300C0E0EBC0E009E9F809E7FA09E7FBE6F995
:100F930018E6F8C3EC98ED99EE9AEBC2E7F5F0EF9B
:100FA300C2E795F0500E600CEBCFFBEACEFAE9CD29
:100FB300F9E8CCF8EAA2E7D2E7FAEB33FB13F5F052
:100FC300EEA2E7D2E7FEEF33FFC5F013A2E730E668
:100FD30001B313C5F0C3C0E0C0F07F00C39BFB6047
:100FE3005B9418600C401AD0E023F9D0E0F80210AB
:100FF300C98AF0E9486003D2F0E4AFF0FAF9F88067
:101003003BEB30E40D89F0EA6003D2F0E4AFF0F992
:10101300CAF8EB30E30D88F0EF6002D2F0AFF0E4F2
:10102300CAC9F8EB54076014FBC3EA13FAE913F9CE
:10103300E813F8EF135002D2E0FFDBEDD0E0C0E09D
:1010430030E739C3E49FFFF5F0EC98FC42F0ED99EB
:10105300FD42F0EE9AFE42F0D0E0F9D0E0F8E5F080
:10106300607AE923F9EE20E742D8028067C3EF33C1
:10107300FFEC33FCED33FDEE33FE80EAEC28FCEDB0
:1010830039FDEE3AFED0E023F9D0E0F84002801BB0
:10109300C3EE13FEED13FDEC13FCEF135002D2E08D
:1010A300FF08B800067F7F74FF802EEF3350178C44
:1010B300F020F00260100CBC000C0DBD00080EBE49
:1010C300000408E860DFE933E813FFEE2313FE4F63
:1010D3004D4C8008E95480FFE4FEFDFCEE33EF3312
:1010E300F47004FCFD7E80D0E0FBD0E0FAD0E0F8A1
:1010F300D0E0CFC618CEC618CDC618CCC6F922127A
:101103000C61700418181822120C70700D74FFF61D
:101113001819F61819F61819F622E7548066F6120C
:101123000C23700F120C2D70F014F608F608F60855
:10113300F680D1120C2D700CF608F608768008E6BE
:10114300447F80EC120C4F700C120C3A60BFE654D3
:1011530080F6E480BB120C3A700519191980A5E8D2
:1011630069700C763F18768018F618F6E8F922E6CF
:10117300CDC0E018ECC0E0E633CD33CDD313F6E7B2
:1011830019FCE7191933CC33C3947F400ECD9D501E
:101193002408E65480F6E418F6800FF4043D145056
:1011A3001408E6447FF6187680E418F618F6D0E0C3
:1011B300FCD0E0FD22CCD313CCFD18E4C6CBC0E0B9
:1011C30018E4C6CAC0E00808ED08C633E613F618EB
:1011D300E433C675F003C3CA97CA09CB97CB199CEE
:1011E30040047D08802EBD00030212AB16B6FF0536
:1011F3000606081618C3CA33CACB33CB33CA27CA69
:1012030009CB37CB193CC37D08803E187D0820E706
:101213005CC633C6CA33CACB33CB33DDF1D5F0EB6F
:1012230030E77BCA97CA09CB974ACB199C406F4BCF
:101233007025E620E0218066187D08C3CA97CA0995
:10124300CB97CB199CD3C633C6CA33CACB33CB3364
:1012530050C9DDE7D5F0E1D3E4C636C608C636C6C5
:1012630008C636C608C636C61818188031C3CA97CA
:10127300CA09CB97CB199CB34097C633C6CA33CAA6
:10128300CB33CB33DD34D5F02EC6A2E0C640C8CA7B
:1012930027CA09CB37194A70BECB3CB480B90808BA
:1012A300E63308E633601F181818D0E0FAD0E0FBE5
:1012B300D0E0FCD0E0FD22187D08CA27CA09CB374D
:1012C300CB193CD3808013F618E4B67F11F618B619
:1012D300FF0EF618C60470D20808768080CAF61886
:1012E300F618F680C5E4CFC0E0E4CEC0E0E4CDC09C
:1012F300E0E4CCC0E075F020C3E633F608E633F64D
:1013030008E633F608E633F6181818EC33FCED3329
:10131300FDEE33FEEF33FFC3EC9709ED9709EE972C
:1013230009EF97191919400FFFEC97FC09ED97FD89
:1013330009EE97FE191906D5F0BEECF709EDF7098A
:10134300EEF709EFF7191919D0E0FCD0E0FDD0E072
:10135300FED0E0FF22181818E4C396F608E496F6C8
:1013630008E496F608E496F622E0F608A3E0F60809
:10137300A3E0F608A3E0F622E6F008A3E6F008A34C
:10138300E6F008A3E6F022E0FAA3E0FBA3E0FCA367
:10139300E0FD22EAF0A3EBF0A3ECF0A3EDF022CA08
:1013A300C0E0E6F0A308DAFAD0E0FA22CAC0E0E02F
:1013B300A3C582CCC582C583CDC583F0A3C582CC2A
:1013C300C582C583CDC583DAE6D0E0CA22C3E498DB
:1013D300F8E499F91214118026C3E49AFAE49BFB0A
:1013E300E920E7E9121411E498F8E499F922C3E437
:1013F30098F8E499F9121411E498F8E499F9C3E41C
:101403009AFAE49BFB22EB20E7CFE920E7E0B9005F
:1014130010BB0008E88AF084F8AAF022E4FBC8FABB
:1014230022EB70227B10C833C8C933C9335007C3BA
:101433009AC3DBF280069A50012ADBEAC833F4C868
:10144300C933F4C9FA2275F008E4C833C8C933C9EB
:1014530033C99AC99B5004C92AC93BD5F0ECFBC8D0
:1014630033F4C8E4C9FA22700422600D18C6C333EA
:10147300C608C633C6D5E0F41822251010AF08F508
:1014830010400215118008F51040021511D2AF2249
:10149300C0D0251010AF08F510500205118008F5D3
:1014A3001050020511D2AFD0D0222510F58210AF13
:1014B30008F510400215118008F51040021511D2ED
:1014C300AF851183222510F582E43511F58322E4DB
:1014D300732510C582C0E0E51134FFC583C0E0E584
:1014E30010C3958224F810AF08858311858210807C
:1014F30008858311858210D2AFCEF0A3E520F0A337
:101503007808E608F0A3DEFAEFF0A3E58124FAF801
:10151300E608F0A3E608F0A3E608F0A30808E60847
:10152300F0A3E608F0A315811581D0E0FED0E0F822
:10153300158115811581E8C0E0EEC0E02285118395
:10154300851082E0A3FEE0A3F5207808E0A3F60867
:10155300DFFAE0A3FFE0A3C0E0E0A3C0E0E0A3C0A4
:10156300E0E0A3C0E0E0A3C0E010AF0885821085EF
:1015730083118008858210858311D2AFD083D082F6
:101583000200FBC0D02510C582C0E0E51134FFC5C1
:1015930083C0E0E510C3958224F310AF088583115F
:1015A3008582108008858311858210D2AFC8F0A38D
:1015B300E9F0A3EAF0A3EBF0A37908E709F0A3D8D5
:1015C300FAECF0A3EDF0A3EEF0A3EFF0A3D0E0F07C
:1015D300A3D0E0F0A3D0E0F0A3E520F0A3E5F0F082
:1015E300A322851183851082E0C0E0A3E0F9A3E084
:1015F300FAA3E0FBA37808E0F608A3DFFAE0FCA374
:10160300E0FDA3E0FEA3E0FFA3E0C0E0A3E0C0E0B1
:10161300A3E0F5D0A3E0F520A3E0A3F5F010AF0815
:101623008583118582108008858311858210D2AF4E
:10163300D082D083D0E0F8D0E0327402800274010B
:10164300C0E0F4041214ADD0E01213A2227402809D
:1016530000CCC0E0EDC0E0E510C39CCCAD1150015F
:101663001D10AF068C108D1180068C108D11D2AF1A
:101673001213AFD0E0FDD0E0FC22D083D082ECC0C7
:10168300E0EDC0E0EEC0E0EFC0E0E493A3FCE49340
:10169300A3FDE493A3FEE493A3FFEF4E4D4C60152B
:1016A3001216F9EC24FFFCED34FFFDEE34FFFEEFE0
:1016B30034FFFF80E5E493A3FCE493A3FDE493A349
:1016C300FEE493A3FFEF4E4D4C6015121736EC2446
:1016D300FFFCED34FFFDEE34FFFEEF34FFFF80E54A
:1016E300D0E0FFD0E0FED0E0FDD0E0FCE493A3C067
:1016F300E0E493C0E022C0E0C0F088F0120B08A839
:10170300F04007120AC9A8F0701AA3A3A3A3120BEF
:1017130008A8F0A3A3A3A34013D0F0D0E0D0E0D057
:10172300E00216E3A3A3A3A3A3A3A3A3A3A3D0F0BD
:10173300D0E022C0E0C0F088F0120AC9A8F0A3A349
:10174300A3A3700BD0F0D0E0D0E0D0E00216E3A367
:10175300A3D0F0D0E022C0E074F1121586C2C5E533
:1017630089607E7E008074750801750900EE780833
:1017730012146AE508AF08E5895F605EEEF8790048
:10178300E875F002A4C8AAF075F000A42AFA75F06F
:1017930002E9A42AF974D828F582740439F583E0A0
:1017A300F8A3E0F9E849602EEEF87900E875F00255
:1017B300A4C8AAF075F000A42AFA75F002E9A42AD5
:1017C300F974D828F582740439F583E0F8A3E0F5B9
:1017D3008388821214D2EFF452890EEEC394084028
:1017E300867F020215E5C0E074F1121586C2EBE5AF
:1017F3008A607E7E008074750801750900EE7808A2
:1018030012146AE508AF08E58A5F605EEEF87900B6
:10181300E875F002A4C8AAF075F000A42AFA75F0DE
:1018230002E9A42AF974E828F582740439F583E0FF
:10183300F8A3E0F9E849602EEEF87900E875F002C4
:10184300A4C8AAF075F000A42AFA75F002E9A42A44
:10185300F974E828F582740439F583E0F8A3E0F518
:101863008388821214D2EFF4528A0EEEC394084096
:10187300867F020215E5C0E074F1121586C2E8E521
:101883008B607E7E008074750801750900EE780810
:1018930012146AE508AF08E58B5F605EEEF8790025
:1018A300E875F002A4C8AAF075F000A42AFA75F04E
:1018B30002E9A42AF974F828F582740439F583E05F
:1018C300F8A3E0F9E849602EEEF87900E875F00234
:1018D300A4C8AAF075F000A42AFA75F002E9A42AB4
:1018E300F974F828F582740439F583E0F8A3E0F578
:1018F3008388821214D2EFF4528B0EEEC394054008
:10190300867F020215E5C0E074F2121586A2AFE4E9
:1019130033FEC2AFE5E9A2E65020900502E0F8A34A
:10192300E0F9E849600E900502E0F8A3E0F583884A
:10193300821214D2759B0053E9BFEEA2E092AF7FEF
:10194300010215E5C0E0C0D0E8C0E0E9C0E0C08214
:10195300C083E5C1C0E0900585E0F87900740428F0
:10196300F582740539F583D0E0F0900584E0F890B2
:101973000585E0687006E595900586F0900585E09D
:101983002401900585F0C39480400690058574007A
:10199300F0D083D082D0E0F9D0E0F8D0D0D0E032DC
:1019A300C0E0C0D0E8C0E0C008C009C082C08390D6
:1019B3000607E0F8900608E068700B539AFB900660
:1019C300097401F08031C2E9900607E0F50874015B
:1019D3002508900607F075090074872508F58274B9
:1019E300053509F583E0F5C1900607E0C39480400F
:1019F300069006077400F0D083D082D009D008D0B7
:101A0300E0F8D0D0D0E03274F01214D474FD121484
:101A13007D74021214C8E9F08A088B098C0A8D0BB5
:101A230074151214C8E0FEA3E0FF851082851183AC
:101A3300E4F0A3F08E828F83A3AA82AB83900E2B54
:101A4300780C12136C7808790C120C7F70188E8244
:101A53008F837469121EE9746EF0A37466F0A30A8F
:101A63000AAB83021E8478087908120C7F60118EFA
:101A7300828F83746E121EE97461F0A3746E80DD2D
:101A8300900E2F780C12136C7808790C120CAB5053
:101A930003021B34900698780C12136C7808790CA7
:101AA300120C7F6003021B8874171214C8E07003C2
:101AB300021BCA851082851183C082C083741312EE
:101AC30014C8122927D083D082121EC2502C85102D
:101AD30082851183C3E094FCA3E094FFA2D265D076
:101AE30033401774021214C8E41229FBF974131259
:101AF30014C8C3E098F0A3E099F074131214C81249
:101B03001EDF74181214C8E07003021BC774171287
:101B130014C8E4021BC9900E33780C12136C7808B6
:101B2300790C121102851082851183E0240A122A8E
:101B330038900E37780C12136C7808790C120CABB2
:101B430040D4900E3B780C12136C7808790C120C6D
:101B5300AB4003021AAB900E3B780C12136C78085F
:101B6300790C121102122A2F80D8900E33780C129E
:101B7300136C7808790C120D46851082851183E069
:101B830024F6121EE2900E3F780C12136C7808793B
:101B93000C120CFA40D4900E2F780C12136C7808A8
:101BA300790C120CFA4003021AAB900E3B780C121C
:101BB300136C7808790C120D4685108285118312F7
:101BC3001EDF80D27401F074021214C8E060077A39
:101BD300007B00021CD6121ECE507D8E828F837432
:101BE30030F0EAFEEBFF74131214C8E0FCA3E0FD2F
:101BF300EC4D700874181214C8E0600B8E828F834A
:101C0300742EF0A30EAF837A007B0080118E828F37
:101C1300837430121F0A74131214C8121EDFEA24CD
:101C2300FF1AEB34FFFB851082851183121EB65019
:101C33000B74131214C812292B4970D18510828595
:101C4300118374FFC39CF874FF9DF9121EC25003E5
:101C5300021DA47A01021BD48510828511831229E7
:101C630027C3E498FAE499FB806985080C85090D7C
:101C7300850A0E850B0F780C120B94AC0CE50D3313
:101C830095E0F50EF50F780C120B1C7808790C1201
:101C93000EC6900E3B780C12136C7808790C120D5B
:101CA30046EC121F04EAF8EBF9E824010AE93400D0
:101CB300FBE849701E74131214C812292B497008CB
:101CC30074181214C8E0600B8E828F83742EF0A3F5
:101CD3000EAF8374131214C8121EB6508D900E43A8
:101CE300780C12136C7808790C120CAB4003021DAC
:101CF300A47C01EE24FFF8EF34FFF974151214C825
:101D0300E0F508A3E0F50988828983E0642E60107A
:101D1300E02CF0643A70077430F07C0180027C00A0
:101D2300E8FAE9FBEA24FF18EB34FFF9C3E5089A64
:101D3300E5099B40D2ECA2E0506774021214C8E09C
:101D43006036EEF8EF800A121EA1E824FF18E9348A
:101D5300FFF9C3E50898E509995018121E8EE0644F
:101D63002E70E4E824FEF582E934FFF583121E9B0E
:101D7300F980D7122A2F801E8E828F83A3AE82AF63
:101D830083EEF8EF8006121E8E121E9BF9C3E50840
:101D930098E5099940F074151214C8122946743154
:101DA300F074171214C8E07005801A1EAF83EE2476
:101DB300FFF582EF34FFF583E0643060EEE0642EDC
:101DC30070031EAF8374021214C8E07003021E80F6
:101DD300121F06A3A983121ECE8E828F8350147402
:101DE3002DF00EE9FF85108285118312296F121ED3
:101DF300F78006742BF00EE9FF7C007D00EE240AC9
:101E0300FEEF3400FFEC24010CED3400FD121EA89C
:101E1300121409EA121F04121EA8121409121F1128
:101E23004970E2C3EC9402ED1228D840D8ECFAEDE5
:101E3300FBC3E49CF8E49DF9EE28F582EF39F583C2
:101E4300E0C0E0C3E49AF8E49BF9EE28F8EF39F92F
:101E5300E82CF8E93DF9E824F5F582E934FFF58348
:101E6300D0E0F0EC24FF1CED34FFFDC3EC9401ED56
:101E73001228D850BCEE24F6FEEF34FFFFEEFAEF43
:101E8300FB74031214937F08021540E824FFFAE958
:101E930034FFFB8A828B8322121EA118EB22E08877
:101EA300828983F02285108285118312297C7A0A24
:101EB3007B0022C3E09AA3E09BA2D265D03322C366
:101EC300E098A3E099A2D265D033228510828511D0
:101ED30083C3A3E09400A2D265D03322E024FFF0B1
:101EE300A3E034FFF022F0EAFEEBFF8E828F832221
:101EF300A3E03400F9851082851183E8F0A3E9F0AB
:101F03002224308E828F83F0A3AE82AF832285108A
:101F130082851183121F1B22E8F0A3E9F08510824A
:101F2300851183E02274F01214D474B012147D85E9
:101F330010828511831229E174181214C8ECF0A3DE
:101F4300EDF0740F1214C8E4F0A38022746012142D
:101F5300C812291774041214C8E0F974181214C8AB
:101F63001229461214D2740F1214C81228E0F01268
:101F7300295AFA122A1A1214C8EAF074256A601050
:101F8300E070C9740F1214C81229177450021E8608
:101F930012295A64257019851082851183E0240162
:101FA30008121EF374601214C8122917792580AB26
:101FB300740E1214C8E4F0740D1214C8E4F0740C17
:101FC3001214C8E4F074051214C8E4F0741E121459
:101FD300C8A882A98374021214C880157405121448
:101FE300C8E0700774051214C8EAF08510828511E1
:101FF30083121F1712290E1229A1FA24E060DD248F
:10200300FD601724F860DD24FE600624FD600F8068
:1020130011740C1214C8E00480D0740D80F5740E92
:1020230080F11229A1642A705B74621214C8122908
:10203300ACFB8A828B83E0FCA3E0FD740A1214C814
:10204300ECF0A3EDF0EA24020A0AEB3400FB74621D
:102053001214C81229D9740A1214C8121ED4501F9C
:10206300740A1214C8122917C3E49AFAE49BFB7486
:102073000A1214C81229E1740C1214C8E004F012F5
:102083001EF8804A740A1214C8E4F0A3802D740A5F
:102093001214C812292B75F00AA4F8AAF075F00AD5
:1020A300E9A42AF9E50828F8E439F9E824D0F8E99D
:1020B30034FFF9740A1214C8122A3F1229FBF5835C
:1020C3008882E0F50874D02508C3940A40C0740CD4
:1020D3001214C8E06007740E1214C8E4F012295AEF
:1020E300642E6003022173851082851183E024012D
:1020F30008A3E03400F9121F1112294BE0642A707F
:102103002C74621214C8122960F8A3E0F98882893A
:1021130083E0FEA3E0FFE824020808E93400F97431
:10212300621214C8122994122A3FF080477E007F5E
:102133000085108285118312296974D02508C39400
:102143000A5031EE75F00AA4FEA8F075F00AEFA468
:1021530028FFE5082EF8E43FF9E824D0FEE934FF30
:10216300FF851082851183E02401F8121EF380C1DC
:102173007EFF7FFF7A0085108285118312290985EE
:102183001082851183E0FBA3E0F5838B82E024B406
:10219300600824E4600524FC70040A121EF8122966
:1021A3005AFB122A1A1214C8EBF0700302277E247A
:1021B300BB700302264424FE700302262624EF701C
:1021C3000302237024F570030222751470030224A2
:1021D300151470030226441470030226421470037C
:1021E30002262624FE700302241524FB60241470A7
:1021F3000302236014700302237024FD7003022280
:10220300AE24FE700302237024FD700302237002C8
:10221300278A74621214C81229D31214C8121EFE1C
:10222300EAA2E0740F50331214C8E0FCA3E0FD33BC
:1022330095E0FE74061214C81229B4ECF0A3EDF075
:10224300A3EEF0A3F074621214C81229BB1214C8CF
:10225300122994E8F0A3E9021F711214C812292766
:1022630074061214C81229ACF5838A82E8F0A3E934
:1022730080D274621214C81229B4E0C0E0741E1232
:1022830014C8D0E0F074621214C81229BB1214C827
:10229300122994121EFE741F1214C8A882A98374F3
:1022A300121214C8E8F0A3E90227A174621214C839
:1022B3001229D31214C8121EFE74061214C812294E
:1022C300D31214C8E02402FAA3E03400FB746212B0
:1022D30014C81229D974021214C8121EFEE84970D8
:1022E3000C74021214C87418F0A3740EF01228D6DA
:1022F30050047E107F2774081214C8E4F0A38008EA
:1023030074081214C81228E0F074021214C81229B7
:102313002788828983A3AA82AB8374021214C8120A
:1023230029E188828983E0600A74081214C812299B
:102333003040CD74021214C81228F774121214C854
:10234300121EFE74081214C812296FF974121214A3
:10235300C8E028F8A3E039F974020222A4740D122C
:1023630014C8E06008EE4F70047E017F00746212AF
:1023730014C81229D31214C8122A271214C8E064ED
:1023830070703874061214C81229C91214C8122A9C
:10239300021214C8E0240212298B1214C8122994C1
:1023A300121EFE900E4712138A741A1214C81213C7
:1023B3009674051214C8E4F00224A5EAA2E0740698
:1023C300501B1214C812294612138A74141214C80B
:1023D30012139674061214C8E0240480121214C84F
:1023E3001229C91214C8122A021214C8E0240212B4
:1023F300298B1214C8122994122A271214C8E064D4
:102403006F7005900E4B809EE064757096900E037E
:10241300809474621214C81229D31214C8121EFEB7
:10242300EAA2E0740650161214C81229467808125C
:10243300136C74061214C8E02404F8801B1214C829
:10244300122969A3E0F5093395E0F50AF50B740643
:102453001214C8E02402080812298C1214C8122A84
:102463000F1214C8780812137B9006987808120A82
:10247300E2402174051214C8742DF074141214C8A8
:10248300780812136C780812135B74141214C8784A
:102493000812137B900E0312138A741A1214C812B3
:1024A3001396744F1214C8A882A98374021214C815
:1024B300121EFE74121214C8122A121214C87808BB
:1024C30012136CE5084509450A450B60097411129E
:1024D30014C87401800674111214C8E4F0EE4F702E
:1024E30008E0A2E0400302259974021214C81229DD
:1024F300401214C8122A121214C8780C12136C74E6
:102503001A1214C8780812136C780C79081212E89E
:1025130074072508F582740E3509F583E0C0E0746D
:10252300021214C8122946D0E0F074141214C878A9
:102533000C12136C741A1214C8780812136C780CEA
:1025430079081212E874141214C8780C12137B74ED
:10255300141214C8780812136CE5084509450A4596
:102563000B70861228D6502E740E1214C8E0602603
:1025730074051214C8E06004D2F08002C2F0740A39
:102583001214C81228E9800E74021214C81229F317
:102593001214C812295374021214C81228F7744F64
:1025A3001214C8C082C08374021214C8122917D02F
:1025B30083D082E582C39AFAE5839BFBC3EA9EEB51
:1025C30012293940C3740D1214C8E070030227A204
:1025D30074111214C8E0A2E040030227A27404128B
:1025E30014C8E064786005E06458701E121EA1E808
:1025F30024FF18E934FFF974021214C81229F312E4
:1026030014C812294674300227A1E0646F600302E4
:1026130027A274021214C81229A764307003022778
:10262300A280D474081214C87401F0A3E4F07404F3
:102633001214C8E024FEF0EE4F700F7E018012E406
:10264300F074081214C8E4F0A3F01228D650047EE4
:10265300067F0074621214C81229D31214C8121E02
:10266300FE74061214C8122946780C12136C7406F1
:102673001214C8E0240412298B1214C8122A0F1250
:1026830014C8780C12137B900698780812136C7890
:102693000C7908120CFA502274051214C8742DF028
:1026A30074141214C8780812136CE50BB2E7F50B17
:1026B30074141214C8780812137B740A1214C81203
:1026C3002927741E1214C8E58228F8E58339F974A2
:1026D300021214C8121EFE740D1214C8E0F5087815
:1026E3000812164174091214C8E0F5087808121686
:1026F3004174041214C81216508E088F09780812F8
:10270300163D740A1214C8E0F9741A1214C812138D
:102713008A120ABD740612149374121214C8122971
:10272300E1740E1214C8E0607674051214C8E060F8
:1027330004D2F08002C2F0740A1214C81228E97499
:10274300121214C8C082C08374021214C81229273B
:10275300D083D082E0C398F8A3E099F9C3E89EE957
:10276300122939503A74021214C81229401214C89B
:102773001229F31214C812295380C48510828511BB
:1027830083122900121EF774021214C87427F0A3CF
:10279300740EF074121214C8742AF0A3740EF07439
:1027A300121214C8C082C08374021214C8122927DB
:1027B300D083D082E0C398FEA3E099FF740A121479
:1027C300C8122930500A74081214C8E4F0A38030E8
:1027D30074051214C8E06004D2F08002C2F0740AD7
:1027E3001214C8E0C39EF8A3E09FF9A2F0E433FA01
:1027F300E89AF8E99400F974081214C8E8F0A3E918
:10280300F0740C1214C8E0702B801974601214C891
:1028130012291D1214C81229461214D2740F12144D
:10282300C8122A3574081214C81229E71214C812E0
:102833001ED450D774051214C8E06050746012148B
:10284300C812291774051214C8E0F974181214C8B1
:102853001229461214D2802C74601214C81229173C
:1028630074021214C8122960F974181214C81229B8
:10287300461214D274021214C812290974021214D3
:10288300C8121EFE740F1214C8122A35EE24FF1E3E
:10289300EF34FFFFC31228D850BE740C1214C8E0E3
:1028A3007003021F7274081214C81229E71214C8A5
:1028B300121ED45003021F7274601214C812291D11
:1028C3001214C81229461214D2740F1214C8122AF1
:1028D3003580D2C3EF9400A2D265D03322E0240125
:1028E300F0A3E0340022A2F0E433F8E098FEA3E082
:1028F3009400FF221228FB22122900F922E024FF70
:10290300F8A3E034FF22E012290E222401F8A3E009
:102913003400F922E0FAA3E0FB22E0FAA3E0FB791A
:102923002074182212297C2212297CE822C3E09EFB
:10293300A3E0122939229FA2D265D033221228FBA9
:1029430074022212294A22E0F8A3E0F58388822246
:1029530012294A7430F0228510828511831229646A
:1029630022122982E022122964F5082212297CC34B
:10297300E498F8E49922122982E0F8A3E0F922E02E
:10298300F8A3E0F583888222F8A3E03400F97462A7
:102993002212299822E0FAA3E0F5838A8222851085
:1029A30082851183122998E022122998E0FAA3E084
:1029B3002212296412294B221229642402F8A3E06B
:1029C3003400F9746222122979E8FAE9FB741422BB
:1029D300122979740622E0FCA3E0F5838C82EAF0E5
:1029E300A3EBF022E024FFF0A3E034FFF07408220D
:1029F300E8F0A3E9F0740222121F1FF8A3E022EA11
:102A0300F0A3EBF0A3E4F0A3F0740622122998E8F4
:102A1300F0A3E9F0741422851082851183E0240168
:102A230008122A4DE8F0A3E9F07404228510828588
:102A33001183E02401F0A3E03400F022121F1B24D1
:102A430001F8122A4DE8F0A3E922A3E03400F98546
:102A530010828511832274F71214D4EAFCEBFD7EF5
:102A63000A7F00780079008008E82401F8E934003F
:102A7300F9C3E89EE99FA2D265D0334003022B1924
:102A8300E8FAE9FBEA75F022A4CA85F00875F000BC
:102A9300A42508F50875F022EBA42508FB74AE2ADB
:102AA300F582740C3BF583E0FAA3E0F5838A82E0B8
:102AB300FA8C828D83E06A70B0E8FAE9FBEA75F07C
:102AC30022A4CA85F00875F000A42508F50875F05E
:102AD30022EBA42508FB74AE2AF582740C3BF58324
:102AE300E0FAA3E0F5838A82A3E0FA8C828D83A3C4
:102AF300E06A6003022A6CE875F022A4C8AAF075A4
:102B0300F000A42AFA75F022E9A42AF974B028FA8D
:102B1300740C39FB80047AB07B0C7F01021540C032
:102B230082C083120A1BD083D0820200FB801C78F0
:102B3300087907E8FCE9FDEC24FFF8ED34FFF9EC34
:102B43004D70F0EA24FFFAEB34FFFBEA4B70E0022E
:102B530000FB78087400D28078008009D293D29267
:102B6300E9C333F908E8C39408500BC2927480593F
:102B730070EAC29380E80200FB78087400C2807890
:102B8300008009D293D292E9C333F908E8C39408C9
:102B9300500BC29274805970EAC29380E80200FB22
:102BA30074F71214D4E9FEEAFFEEC394805020EFC9
:102BB300C39408501A74B02FF91209F7740F5EF911
:102BC3001209F7EEC4540F54074410F91209F77FA2
:102BD3000102154074F71214D4E9FF7E00800FEF51
:102BE300F91209F10508E508C3948040F20EEEC31B
:102BF3009408500CEEFA79001209FD75080080E67E
:102C03007F0102154074F11214D4E9FF8A0EEFFE1E
:102C1300800F79001209F10508E508C3948040F29A
:102C23000E8E087509008F0C750D00850E0A750B45
:102C330000E50C250AF8E50D350BF9C3E50898E521
:102C43000999A2D265D033501674B02EF91209F740
:102C530079011209F779101209F775080080BA7F14
:102C63000702154074F21214D474EF12147D8A0C07
:102C73008B0D89097F007E007F0075F00274FF25AC
:102C830009A4FEAA0CAB0D120AB7EAF508E508C3BE
:102C930094114003750810750A11750B00780A1218
:102CA300163D7C007D0074021214C8AA82AB831205
:102CB3000AA5740212149385080A750B00780A1288
:102CC300163DAC0CAD0D74021214C8AA82AB83126C
:102CD3000A9F74021214937A02EEF9120A098510FC
:102CE30082851183AC82AD83EEFAEFF9120A157473
:102CF300111214937F0602154074F01214D474FE5B
:102D030012147D851082851183ECF0A3EDF0E9FEAA
:102D1300EAFF750D00750900750800750E00750F43
:102D230000750C008030850C0A750B00E50E250A32
:102D3300F8E50F350BF9E82410F582E93400F58343
:102D4300E0F91209F1050CE50CC3941040D8741096
:102D53002EFE05080508E508A80879008510828578
:102D63001183E028FAA3E0398A82F583E070030235
:102D73002EAEEEC3947940037E000FEFFAEEF91204
:102D830009FDE508A8087900851082851183E028EC
:102D9300FAA3E0398A82F583E0C394804054E508BE
:102DA300A8087900851082851183E028FAA3E03909
:102DB300FB1209DF8A0A8B0B850A0E850B0F750C34
:102DC300008019850C0A750B00E50E250AF582E5CE
:102DD3000F350BF583E0F91209F1050CE50CC394EB
:102DE3001040E074012FFAEEF91209FD750C000290
:102DF3002D4AE508A8087900851082851183E0280B
:102E0300FAA3E0398A82F583E024E0F50D75090021
:102E1300803AE50DA80D7900E875F010A4C8AAF072
:102E230075F000A42AFA75F010E9A42AF985090AB5
:102E3300750B00E8250AF8E9350BF974BE28F5820D
:102E4300740639F583E0F91209F10509E509C3941C
:102E53000840BF74012FFAEEF91209FD75090080CD
:102E63003AE50DA80D7900E875F010A4C8AAF0752D
:102E7300F000A42AFA75F010E9A42AF985090A7565
:102E83000B00E8250AF8E9350BF974C628F58274B6
:102E93000639F583E0F91209F10509E509C3940838
:102EA30040BF74082EFE0508022D597402121493B4
:102EB3007F08021540C082C08353F3FE43FD0153D4
:102EC300F47343FE8CD292C2977A327B001209EBE1
:102ED300D29779AE1209F779001209F7791012091E
:102EE300F779401209F779811209F779CF1209F7B7
:102EF30079A11209F779C81209F779A61209F779A6
:102F0300A81209F7793F1209F779D31209F7790063
:102F13001209F779D51209F779801209F779D912CD
:102F230009F779F11209F779DA1209F77912120917
:102F3300F779DB1209F779401209F779201209F7BB
:102F430079021209F7798D1209F779141209F779C1
:102F5300A41209F779A61209F779AF1209F77900D4
:102F6300120A037A0079001209FDD083D08202008D
:102F7300FB74F71214D4E9FEEAF8EBF9E8FAE9FB7B
:102F8300740B2E8A828B83F09003E3E0F8A3E0F5C1
:102F9300838882A3A3A3A3A3E060067861798880D2
:102FA3000478417988E88A828B83A3F0E4E9F88A7C
:102FB300828B83A3A3F09003DCE08A828B83A3A399
:102FC300A3F09003E3E0F8A3E0F5838882A3A3E0F2
:102FD300F8A3E0F98A828B83A3A3A3A3E8F0A3E970
:102FE300F08A828B83A3A3A3A3A3A3ECF0A3EDF0A6
:102FF3009003E3E0F8A3E0F5838882E0F8A3E0F927
:103003008A828B83A3A3A3A3A3A3A3A3E8F0A3E927
:10301300F0790A7F0102154074F21214D4ECFEED2C
:10302300FF8908A908EAFCEBFD7AE57B0312098511
:10303300E9FB7A0080348A0A750B00EE250AF582D3
:10304300EF350BF583E0C0E08B0A750B008A0C7536
:103053000D00E50A250CF8E50B350DF974E528F5A7
:1030630082740339F583D0E0F00AEAC3950840C6B9
:10307300EB2508F97F0602154074F71214D47E5825
:103083007F04120A751209D37901EEFAEFFB120AD3
:103093005D8E828F83E0C2E7F08E828F83E06405CA
:1030A30070528E828F83E0F97A597B04120A5D8E07
:1030B300828F83A3E0A2E55004D2F08002C2F0A283
:1030C300F0E433900694F0785C790488828983A3D2
:1030D300E0A2E7400302318E8E828F83A3A3A3E095
:1030E300F89003DCE068600302318E9003DD740125
:1030F300F002318E8E828F83E024F5900691F08E5C
:10310300828F83E0F97A597B04120A5D8E828F8362
:10311300A3E0A2E55004D2F08002C2F0A2F0E433AF
:10312300900694F08E828F83A3A3A3A3A3A3A3A348
:10313300E0F8A3E0F990068DE8F0A3E9F090069299
:103143007462F0A37404F0900691E0F83395E0F90B
:10315300900692E028F8A3E039F988828983E09009
:103163000695F088828983A3E0A2E750128E828FAE
:1031730083A3E054DF644170069006967401F08ED9
:10318300828F83A3A3A3E090068CF01209D9120ABD
:103193007B7F0102154074F71214D4EAFEEBFF1291
:1031A3000A39E9640170047901806F1209D9900327
:1031B300E3EEF0A3EFF09006927400F0A37400F036
:1031C3009003DE7401F090069812138A9003DF12C5
:1031D30013969003E3E0F8A3E0F5838882A3A3A307
:1031E300A3E0F9120A459003E3E0F8A3E0F583882E
:1031F30082E0FAA3E0FB120A4B9003E3E0F8A3E0BA
:10320300F5838882A3A3E0FAA3E0FB120A517A9123
:103213007B09120A811209D379007F0102154074D8
:10322300F41214D4EAFEEBFF8C0A8D0B8908900389
:10323300DEE07003120A69E508C394675005850848
:10324300098003750967850908120A87120A75A997
:1032530008AC0AAD0BEEFAEFFB12098BE9F97AE53C
:103263007B03120A57120A7B120A63E960027E018A
:103273009003E3E0F8A3E0F5838882A3A3A3A3A3C9
:10328300E0601C9003DD7400F07A4A7B02120A2D81
:103293009003DDE06004740080027401FE80027E0E
:1032A300009003DEE07003120A6FEE70079003DCF8
:1032B300E02401F0EEF97F04021540C082C0839040
:1032C3000696E0F9D083D0820200FB74F21214D484
:1032D3008A0A8B0BECFEEDFF740E1214C8E0F5089E
:1032E300A3E0F5091209D9900691E0F83395E0F9C6
:1032F300C3E89EE99F500D900691E0F50C3395E0ED
:10330300F50D80048E0C8F0D780C12163D900692ED
:10331300E0FCA3E0FDAA0AAB0B120A9F740212148D
:1033230093E50845096026120A3FE9F50A900695D8
:10333300E0F83395E0F9750B00E8C3950AF8E995D1
:103343000BF9850882850983E8F0A3E9F0900696D6
:103353007400F01209D3900691E0F83395E0F9C3B5
:10336300E89EE99F5007900691E0F98002EEF97F0D
:1033730006021540C082C0839003DE7401F0120A76
:1033830069D083D0820200FB53F37F43FD80E9C3FE
:1033930094014004C2878002D2870200FB74F612B4
:1033A30014D4749612147DEAFEEBFF900311C082CD
:1033B300C08374061214C8AC82AD83D083D08274E8
:1033C300641213AF7900120A0379017A0A7B061299
:1033D3000A0F74021214C87434F0A37412F0740444
:1033E3001214C8740BF074051214C87401F085101C
:1033F30082851183EEF0A3EFF0851082851183AAF5
:1034030082AB83120997E96401700280FE1209AF4F
:103413007900120973800579011209731209A3E96E
:1034230060FAE4F508F509780812163D7C037D007F
:103433007AD97B031209A97402121493E9C3940184
:1034430040DA9003DAE0F508750900780812163DB2
:103453009003D9E0F508750900780812163D7C1B26
:103463007D06740A1214C8AA82AB83120AB17404CB
:10347300121493790374061214C8AA82AB83120A36
:103483000F9003DBE0F508750900780812163D7C00
:103493002A7D0674081214C8AA82AB83120AB17477
:1034A30002121493790474061214C8AA82AB83120D
:1034B3000A0F9003DBE0F508750900780812163D42
:1034C3009003DAE0F508750900780812163D9003B9
:1034D300D9E0F508750900780812163D7C357D069C
:1034E300740C1214C8AA82AB83120AB174061214A4
:1034F3009374061214C8AA82AB83120AB7EAFCEBD0
:10350300FD74061214C8AA82AB83120A999003D9D8
:10351300E0C39423400302341A790012097302347E
:103523001F74F61214D4749612147D8A088B09EC56
:10353300FEEDFF900375C082C08374061214C8ACFD
:1035430082AD83D083D08274641213AF7900120AE0
:103553000379017A517B06120A0F74021214C8749C
:1035630034F0A37412F074041214C8740BF07405CD
:103573001214C87401F0851082851183E508F0A345
:10358300E509F0851082851183AA82AB831209971E
:10359300E96401700280FE12096D900304E0900358
:1035A300D9F0900305E09003DAF0900303E0900371
:1035B300DBF079037CD97D03EEFAEFFB12099DE979
:1035C3009003DAE0F508750900780812163D9003B8
:1035D300D9E0F508750900780812163D7C1B7D06B5
:1035E300740A1214C8AA82AB83120AB174041214A7
:1035F30093790374061214C8AA82AB83120A0F903C
:1036030003DBE0F508750900780812163D7C2A7D76
:103613000674081214C8AA82AB83120AB174021288
:103623001493790474061214C8AA82AB83120A0F86
:103633009003DBE0F508750900780812163D900346
:10364300DAE0F508750900780812163D9003D9E011
:10365300F508750900780812163D7C357D06740C53
:103663001214C8AA82AB83120AB17406121493749B
:10367300061214C8AA82AB83120AB7EAFCEBFD74E4
:10368300061214C8AA82AB83120A997AE87B031242
:103693000A3302359A7E001209B57900120973794B
:1036A300017A627B06120A0F79027A727B06120A8A
:1036B3000F79037A7F7B06120A0F1209C1E9FE74A0
:1036C300016E700B7C007D107A007B2012097F74E1
:1036D300026E70E67C007D207A007B1012097980EF
:1036E300D974F41214D48A088B098C0A8D0B53F104
:1036F300FE43F30C53F2F375868075C48078081289
:10370300167D000000000C000000B00400005737D5
:10371300600900005F37C012000067378025000092
:103723006F37403800007737004B00007F378070D9
:1037330000008737009600008F3700E100009737BD
:10374300002C01009F3700C20100A737008403004B
:10375300AF37B73775C23B75C505805E75C23B751C
:10376300C506805675C23B75C507804E75C23B754D
:10377300C508804675C2D875C508803E75C23B75BD
:10378300C509803675C2D875C509802E75C23B75CB
:10379300C50A802675C2D875C50A801E75C23B75D9
:1037A300C50B801675C2D875C50B800E75C2D8754A
:1037B300C50C800675C23B75C50A75C402438640B5
:1037C300D2AA75C1009005847400F0900585740039
:1037D300F09006077400F09006087400F0900586D8
:1037E3007400F09006097400F07F0402154074F72A
:1037F3001214D4900607E0F8900608E0C398501F0F
:10380300900607E0F87900900608E0FE7F00E8C321
:103813009EF8E99FF9E824FFF8E934FFF98037902F
:103823000608E0F87900C3E498F8E499F9900607EC
:10383300E0FE7F00E82EF8E93FF9E8247FF8E93459
:1038430000F9C3E89CE99D5004D2F08002C2F0A2C3
:10385300F0E433F87900E84960067A007B00805E83
:10386300780079008012900608E02401F0439A045E
:10387300E82401F8E93400F9C3E89CE99D503B8A48
:10388300828B83E0C0E0900608E0FE7F0074872E01
:10389300F58274053FF583D0E0F08A828B83A3AA77
:1038A30082AB839006097400F0900608E0C3947F0E
:1038B30040B49006087400F080B3E8FAE9FB7F0196
:1038C300021540C082C0837A0A7B00120A2DD0837E
:1038D300D0820200FBC082C083120A33D083D0821D
:1038E3000200FB74F71214D47E008016900310E0DC
:1038F300C333900310F0900302E0F8900310E04804
:10390300F00EEEC3940850539003017402F0A287A3
:10391300400F900301E0F8740128900301F0E87070
:10392300ED12095B12095B12095B9003027400F04C
:10393300A28750069003027401F09003017402F011
:10394300A287500F900301E0F8740128900301F05F
:10395300E870ED900301E0640170917F010215406E
:10396300C082C083C2877A137B00120961D2875356
:10397300FD7F12095B12095B12095B12095BA287C7
:103983005003023A739003017402F0A287400F9030
:103993000301E0F8740128900301F0E870ED90034F
:1039A300017402F0A287500F900301E0F87401281C
:1039B300900301F0E870ED120967900310E09003A3
:1039C3000DF0120967900310E090030EF0120967DF
:1039D300900310E090030BF0120967900310E0903E
:1039E300030CF0120967900310E090030FF0D287E5
:1039F30090030EC082C08390030DC082C0839003E6
:103A03000CC082C08390030BE0D083D082F8E028FF
:103A1300D083D082F8E028D083D082F8E0289003C6
:103A230002F0900302E0F890030FE068702890031F
:103A33000DE0900308F090030EE0900309F090036B
:103A43000BE0900306F090030CE0900307F0900363
:103A53000FE090030AF0900306E0900304F0900354
:103A630007E0900305F0900308E0900303F0801251
:103A73009003037400F09003047400F09003057442
:103A830000F043FD80D083D0820200FBC082C0835C
:103A9300906189E04460F09061FA7409F09061B23A
:103AA3007415F09061AE7400F090619074F5F012AB
:103AB3000A8D120A7B7900D083D0820200FBC08278
:103AC300C083900E02E0F9D083D0820200FBC08253
:103AD300C08375F005E9A424D490618FF0D083D01E
:103AE300820200FBC082C083EA906174F0E4EBFAC7
:103AF300906175F0D083D0820200FBC082C083EA5C
:103B0300906172F0E4EBFA906173F0D083D082029B
:103B130000FB74F61214D475E1EE7591FD78008004
:103B2300138808750900EA2508F582EB3509F58342
:103B3300E0F5D908E8C39940E87F02021540C08246
:103B4300C0838011E5D98A828B83F08A828B83A319
:103B5300AA82AB8319E9C3940150E9D083D08202CE
:103B630000FB75E1E9E591A2E150FA7591FD790059
:103B73000200FB75E1EC75E1E30200FB75E1EF7513
:103B8300E1EC0200FBC082C0839061A3E0C2E6F0D7
:103B9300539AFED083D0820200FBC082C08390611F
:103BA300A3E0D2E6F0439A01D083D0820200FBC0A7
:103BB30082C083A2AFE433F8C2AF900502EAF0A358
:103BC300EBF0E8A2E092AFD083D0820200FBC08288
:103BD300C083906193E0542270F8D083D0820200B6
:103BE300FB0200FBC082C0838A828B83123C7EE986
:103BF300F08A828B83E02401FCA3E03400FD8A82F7
:103C03008B83ECF0A3EDF0D083D0820200FB74F63B
:103C13001214D474FC12147D74021214C8EAF0A3B3
:103C2300EBF0ECFAEDFB740E1214C8A882A983859D
:103C33001082851183E8F0A3E9F085108285118352
:103C4300858208858309780812163D74041214C806
:103C5300858208858309780812163D7CAB7D0A129C
:103C63000AC3740412149374021214C8123C7EE43F
:103C7300F074041214937F02021540E0F8A3E0F5F8
:103C830083888222C082C08379001209CDE9600F44
:103C930079011209C779001209CDE9600280FE7922
:103CA300001209C7D083D0820200FBEBC313FBEAE7
:103CB30013FAEAF8EBF9E824FFFAE934FFFBE849E1
:103CC300601200000000000000000000000000007F
:103CD300000080DE0200FB74F71214D4EAFEEBFF4F
:103CE300EEF8EFF9E824FFFEE934FFFFE849600945
:103CF3007AE87B03120A2D80E77F01021540E5C6AF
:103D03005480F853BEFBE59DA2E550FAE59DA2E27F
:103D130040F4007401697007744948F5C68005E9E9
:103D2300700288C6E5C6F8E59EFAE86A70F943BEF4
:103D3300040200FBE9F8E59EA2E640047901801C39
:103D4300E8700553C67F8008740168700343C6801A
:103D5300E5C6F9E59EFAE96A70F979000200FB53BA
:103D6300F3FD53FDFD438F0253F5FE53FFFE43F76F
:103D7300010200FB790053F3FD53FDFD438F025312
:103D8300F5FE53FFFE43F701A2814015780080073B
:103D9300A2814002780008E8C394C840F379018007
:103DA30017A2A0401378008007A2A0400278000861
:103DB300E8C394C840F379020200FB74F61214D4EA
:103DC300740A1214C8E0FEA3E0FFEAF8EBF98018C6
:103DD3008C828D83E088828983F0A3A882A9838C57
:103DE300828D83A3AC82AD838E088F09E50824FFFF
:103DF3001EE50934FFFFE508450970D47F0202156B
:103E03004074F71214D474091214C8E0F8A3E0F94B
:103E13008A828B838003ECF0A3E8FEE9FFEE24FFA4
:103E230018EF34FFF9EE4F70ED7F01021540C082A9
:103E3300C083120A27120A211209E51209BB900650
:103E43009C12138A120A931209D3D083D0820200E0
:103E5300FBC082C0838A828B838001A3E070FCE570
:103E630082C39AFAE5839BFBD083D0820200FB4393
:103E7300FE01D29043FE02D29143FE10D29402007F
:0B3E8300FBD2AF0200FBC2AF0200FB4D
:04000005000000E314
:00000001FF
