:020000040000FA
:030000000200E318
:030013000219725D
:030033000218A40C
:03003B000219CED9
:03006B00021784F5
:03007B0002181454
:1000830002193400000080FB120113B900030200BF
:10009300CDE4900301784479038002F0A3D8FCD91E
:1000A300FA900544AA82AB83900116782F790980D0
:1000B30015E493A3AC82AD838A828B83F0A3AA82D7
:1000C300AB838C828D83D8E9D9E775821775833327
:1000D30074001200F575828675830074001200F5B2
:1000E30075D00075813F751001751103759F00026E
:1000F300008BC09FF59FE473D09F22D083D082C032
:100103009FE493C0E0740193C0E0740293F59F22CF
:10011300790122FF00000000000000000000000041
:1001230000000000C20100202000CEC200CAAA00C5
:10013300B6C800BCEC00B2E200D1A100D4F100BD0E
:10014300D300CAD50000000000000000000000003A
:100153000000000000000000F800000000000000A4
:10016300333000000000100C06100C0600000000E5
:10017300000000000040C07840C0784000043F0405
:10018300043F040400007088FC08300000001820BD
:10019300FF211E0000F008F000E018000000211C01
:1001A300031E211E0000F00888700000001E21239A
:1001B300241927211010160E000000000000000073
:1001C3000000000000000000E0180402000000002E
:1001D300071820400000020418E00000000040203F
:1001E3001807000000404080F080404000020201F8
:1001F3000F01020200000000F000000000010101F5
:100203001F01010100000000000000000080B07029
:1002130000000000000000000000000000000101D9
:100223000101010101000000000000000000303066
:100233000000000000000000008060180400601847
:10024300060100000000E010080810E000000F1095
:100253002020100F00001010F800000000002020E4
:100263003F20200000007008080888700000302834
:1002730024222130000030088888483000001820EC
:100283002020110E000000C02010F8000000070419
:1002930024243F240000F808888808080000192156
:1002A3002020110E0000E0108888180000000F11B4
:1002B3002020110E0000380808C83808000000008C
:1002C3003F000000000070880808887000001C22AE
:1002D3002121221C0000E010080810E0000000317A
:1002E3002222110F00000000C0C000000000000027
:1002F300303000000000000080000000000000809B
:10030300600000000000008040201008000001028F
:1003130004081020004040404040404000040404D2
:100323000404040400000810204080000000201092
:100333000804020100007048080808F000000000EB
:100343003036010000C030C828E810E00007182745
:100353002423140B000000C038E0000000203C23DD
:10036300020227382008F8888888700000203F2080
:100373002020110E00C03008080808380007182094
:10038300202010080008F808080810E000203F208B
:100393002020100F0008F88888E8081000203F206C
:1003A300202320180008F88888E8081000203F2040
:1003B3000003000000C030080808380000071820B8
:1003C30020221E020008F808000008F808203F2138
:1003D3000101213F20000808F80808000000202040
:1003E3003F2020000000000808F8080800C08080B3
:1003F300807F00000008F888C028180800203F20EC
:10040300012638200008F8080000000000203F20E3
:10041300202020300008F8F800F8F80800203F00FA
:100423003F003F200008F830C00008F808203F20B4
:100433000007183F00E01008080810E0000F102024
:100443002020100F0008F808080808F000203F21BA
:100453000101010000E01008080810E0000F182453
:100463002438504F0008F8888888887000203F207F
:1004730000030C302000708808080838000038207A
:100483002121221C00180808F80808180000002081
:100493003F2000000008F808000008F808001F20AB
:1004A3002020201F000878880000C83808000007B3
:1004B300380E010000F80800F80008F800033C07B4
:1004C30000073C0300081868808068180820302C57
:1004D30003032C30200838C800C838080000002067
:1004E3003F2000000010080808C8380800203826FC
:1004F3002120201800000000FE020202000000007C
:100503007F40404000000C30C000000000000000AD
:10051300010638C00000020202FE00000000404055
:10052300407F0000000000040202020400000000FB
:100533000000000000000000000000000080808038
:100543008080808080000202040000000000000020
:10055300000000000000008080808000000019245B
:100563002222223F2008F8008080000000003F1173
:100573002020110E000000008080800000000E117A
:100583002020201100000000808088F800000E1158
:100593002020103F200000808080800000001F2268
:1005A3002222221300008080F088888818002020EF
:1005B3003F202000000000808080808000006B943A
:1005C300949493600008F8008080800000203F210D
:1005D3000000203F200080989800000000002020A9
:1005E3003F20200000000000809898000000C08099
:1005F30080807F000008F8000080808000203F2476
:10060300022D302000000808F80000000000202020
:100613003F202000008080808080808000203F2059
:10062300003F20003F8080008080800000203F2129
:100633000000203F200000808080800000001F20F9
:100643002020201F00808000808000000080FFA108
:100653002020110E000000008080808000000E1119
:100663002020A0FF80808080008080800020203FA9
:10067300212000010000008080808080000033245E
:100683002424241900008080E08080000000000002
:100693001F202000008080000000808000001F20B9
:1006A3002020103F20808080000080808000010E89
:1006B300300806010080800080008080800F300CAD
:1006C300030C300F00008080008080800000203108
:1006D3002E0E312000808080000080808080818EFB
:1006E3007018060100008080808080800000213027
:1006F3002C2221300000000000807C020200000058
:1007030000003F404000000000FF00000000000028
:1007130000FF0000000002027C8000000000404057
:100723003F00000000000601010202040400000073
:100733000000000000580500000000000000000059
:1007430000000000000000000000000000000000A6
:10075300000000000000005B051060028C0000FE3A
:100763009292929292FE00000004047E01407E4227
:10077300427E427E42427E40005E051060028C0053
:10078300FE929292929292FE00000004047E014433
:1007930048507F40407F504844400061050000FCC2
:1007A300242424FC252624FC242424040040308F04
:1007B30080844C55252525554C8080800064051088
:1007C30010D0FF905020504C434C50204040000428
:1007D3000300FF00414458414E60584740400067C2
:1007E300051060028C00FE02F202FE00F800FF001A
:1007F3000004047E018047300F10270047807F00EC
:10080300006A05404042CC00504EC8487FC8484863
:100813004000000040201F20504C4340404F5050A8
:100823005C40006D051010FF100082864A52A252F0
:100833004A8680800042827F010010121212FF124A
:1008430012121000007005101010FF105044546570
:10085300C64464544440000444827F0182824A5661
:100863002322524E820200730500FC0000FF004069
:1008730020D8171010F0101000000F0402FF0080A2
:10088300402116081621408000490180543A25640E
:100893004320483A256425250044485420455252B4
:1008A30025642050302564256300534D4B25642077
:1008B30044524B256420504952256400524C59251B
:1008C3006420425A2564202573004155544F004D3E
:1008D300414E5500536D6172744369747954657266
:1008E3006D20763200524620494E495420464149F4
:1008F3004C454400010A00000030313233343536B0
:1009030037383941424344454600286E756C6C20A4
:10091300706F696E74657229003F3F3F000000806D
:100923007F0000803FF9021550B743BA5100002001
:100933004100E7DB2E0000A040100000000800008B
:10094300001200FED933001200FE8034001200FEB4
:10095300E134001200FEFE35001200FE873600125D
:1009630000FE2337001200FE3337001200FEDC378F
:10097300001200FE863E001200FEC73E001200FE7B
:100983006E3D001200FEA43D001200FEDC3E00128C
:1009930000FEE13E001200FE842A001200FE4D2BF1
:1009A300001200FE5B2B001200FE802B001200FEE3
:1009B300A72B001200FECE2B001200FE022C001209
:1009C30000FE332C001200FE922C001200FE272D95
:1009D300001200FEE32E001200FE153E001200FE80
:1009E300273E001200FE403E001200FEF43C0012BF
:1009F30000FE1B3D001200FE473D001200FEEF39D2
:100A0300001200FE213A001200FE313A001200FEED
:100A1300473A001200FE5E3A001200FE753A0012D9
:100A230000FEA13A001200FEC53A001200FED63ABB
:100A3300001200FEDF3A001200FEE83A001200FE48
:100A4300FD3A001200FE123B001200FE313B001281
:100A530000FE443B001200FE473B001200FEF0374D
:100A6300001200FEF837001200FE0738001200FEE5
:100A73001238001200FE2238001200FE5538001210
:100A830000FEB638001200FE9F2F001200FEC02F9A
:100A9300001200FED22F001200FEE42F001200FE0F
:100AA300EC2F001200FE0C30001200FE2430001266
:100AB30000FE4E30001200FEE830001200FE483106
:100AC300001200FEC231001200FECF3D001200FEF4
:100AD300593E001200FE543C001200FE7E3C001200
:100AE30000FEA93E001200FE351A001200FE531F3D
:100AF30000E4936670130874019366700C08740223
:100B030093667005087403936622C008C3E096F5E4
:100B13000808A3E096420808A3E096420808A3E069
:100B2300964208A2D265D033E5087001D3D00822DB
:100B3300C3E4939608740193960874029396087419
:100B430003939622080808E630E711121383120B69
:100B53005F080808C64480C618181822181818E930
:100B6300799EC608CAC608CBC608CCC6C37020790E
:100B730096CACBCC7019798ECBCC70137986CC7096
:100B83000EF9802ACA33CACB33CBCC33CC331930DA
:100B9300E7F2CCCBCA3350147004EA30E00DE4CA58
:100BA3003ACACB3BCBCC3CCC500209C3E913C6CCED
:100BB300182313C6CB18C6CA18C6F922120BFF2076
:100BC300F01430E72B74FFFCFBFA747F8022E4FC03
:100BD300FBFA7480801AB48008BC00F2BB00EF807B
:100BE3000F50EBF9E4C39AFAE49BFBE49CFCE49911
:100BF300C6CC18C6CB18C6CA18C6F922E4C9C6089B
:100C0300CAC608CBC6D3330308CCC63392F0C39409
:100C13007F402E94184019C9B90704CACBCC22507F
:100C230025C309CA33CACB33CBCC33CC33D9F42253
:100C3300F4600DC9CCC313CB13CBCA13CAD9F6CCFA
:100C430022E4FCFBFA2214FCFBFA22E6C333184627
:100C53001846184622E7C33319471947194722187C
:100C63001818E6084608700AE608C3337005E63329
:100C7300F4220822191919E7094709700AE709C379
:100C8300337005E733F4220922E6084608C3134606
:100C930008336002E633F422E7094709C31347091F
:100CA300336002E733F422120C8C6025120C9B6034
:100CB30020120C4E7003020C58080808E7667010E7
:100CC3001819E766700A1819E76670041819E766B9
:100CD30022F422120C8C601C120C9B6017120C4E17
:100CE3007007120C587001D322C0D0120C58700632
:100CF300D0D0B322C32233D0D0501430E0F6C3E7B0
:100D0300960809E7960809E7960809E796B32220AB
:100D1300E0D5E6970809E6970809E6970809E697F4
:100D2300B322120C8C601B120C9B6016120C4E70BB
:100D330007120C58600CB322C0D0120C587005D0A7
:100D4300D022C32233D0D0501330E0EBC3E7960850
:100D530009E7960809E7960809E7962220E0E4E602
:100D6300970809E6970809E6970809E6972200120B
:100D73000C8C604F120C9B6012E7548066F6120CC9
:100D8300627011120C58703B090909F4F618F61831
:100D9300F618F622120C777015120C4E080808602C
:100DA300EAE6447FF618768018E4F618F622120C69
:100DB3004E6016120C587012E4F608F608F608E6B0
:100DC3005480F609090918181822EAC0E0EBC0E0BC
:100DD300ECC0E0EDC0E0E687F0A4FBACF008E687EA
:100DE300F0A42CFCE435F0FA1809E687F0A42C4BA8
:100DF30060027401CA35F0FCE433FB09E687F0D2E4
:100E0300F7A42CCB35F0FC1908E687F0A42BCC35DE
:100E1300F0FBE433FD0819E687F0D2E7A42C4ACBB4
:100E230035F0CD3400FC09E687F0D2E7A42DCC35AC
:100E3300F0FDE433FA0918E687F0D2F7A42CCD3598
:100E4300F0CA3400FC08E687F0D2E7D2F7A42ACC34
:100E530035F07A7E20E70B0ACB33CBCD33CDCC33C1
:100E6300CC33CB3350147004ED30E00ED2F1E4CD2B
:100E73003DCDCC3CCC3B5005DA05C2F1EB547FC6EB
:100E83003308E63392F0FBE73309E733C39A502D77
:100E93002B70190C0D4C4D70151806E608C33370F2
:100EA3000D20F10AA2F013F6E418800B4024E4F6B7
:100EB30030F002768018F618F618F68024D33B1427
:100EC300501074FFA2F013F6187680E418F618F6A3
:100ED300800FA2F013F618E63303F618ECF618EDBC
:100EE300F6D0E0FDD0E0FCD0E0FBD0E0FA22120C1B
:100EF3009B6046120C8C603DE9687008F618F61882
:100F0300F618F622748067F7120F25090909748011
:100F130067F722120C8C601D120C9B7005191919AE
:100F2300801A120C62701F120C77C37003E66733CA
:100F330019191940071818182208080874FFF61819
:100F4300F618F618F622120C776017120C58702157
:100F530092F0120C4E7019501720F014080808096B
:100F63000909E7F61819E7F61819E7F61819E7F665
:100F730022120C4E60E6E869701F0808E62480F62A
:100F830008E436F618547FB47F0CE654806007F605
:100F9300E418F618F622181822E9C6CC08C6CD08BC
:100FA300C6CE08C6CFC0E0E8C0E0EAC0E0EBC0E0D0
:100FB30009E9F809E7FA09E7FBE6F918E6F8C3ECEB
:100FC30098ED99EE9AEBC2E7F5F0EFC2E795F05092
:100FD3000E600CEBCFFBEACEFAE9CDF9E8CCF8EAE8
:100FE300A2E7D2E7FAEB33FB13F5F0EEA2E7D2E781
:100FF300FEEF33FFC5F013A2E730E601B313C5F0EC
:10100300C3C0E0C0F07F00C39BFB605B9418600C1F
:10101300401AD0E023F9D0E0F80210F48AF0E9484E
:101023006003D2F0E4AFF0FAF9F8803BEB30E40D63
:1010330089F0EA6003D2F0E4AFF0F9CAF8EB30E3E9
:101043000D88F0EF6002D2F0AFF0E4CAC9F8EB54B8
:10105300076014FBC3EA13FAE913F9E813F8EF1373
:101063005002D2E0FFDBEDD0E0C0E030E739C3E46B
:101073009FFFF5F0EC98FC42F0ED99FD42F0EE9AFB
:10108300FE42F0D0E0F9D0E0F8E5F0607AE923F928
:10109300EE20E742D8028067C3EF33FFEC33FCED69
:1010A30033FDEE33FE80EAEC28FCED39FDEE3AFE2B
:1010B300D0E023F9D0E0F84002801BC3EE13FEED2D
:1010C30013FDEC13FCEF135002D2E0FF08B8000647
:1010D3007F7F74FF802EEF3350178CF020F0026077
:1010E300100CBC000C0DBD00080EBE000408E86027
:1010F300DFE933E813FFEE2313FE4F4D4C8008E97D
:101103005480FFE4FEFDFCEE33EF33F47004FCFD8A
:101113007E80D0E0FBD0E0FAD0E0F8D0E0CFC61874
:10112300CEC618CDC618CCC6F922120C8C70041882
:10113300181822120C9B700D74FFF61819F6181963
:10114300F61819F622E7548066F6120C4E700F1249
:101153000C5870F014F608F608F608F680D1120C55
:1011630058700CF608F608768008E6447F80EC1287
:101173000C7A700C120C6560BFE65480F6E480BBF9
:10118300120C65700519191980A5E869700C763F72
:1011930018768018F618F6E8F922E6CDC0E018ECC8
:1011A300C0E0E633CD33CDD313F6E719FCE71919C5
:1011B30033CC33C3947F400ECD9D502408E6548036
:1011C300F6E418F6800FF4043D14501408E6447F47
:1011D300F6187680E418F618F6D0E0FCD0E0FD228D
:1011E300CCD313CCFD18E4C6CBC0E018E4C6CAC008
:1011F300E00808ED08C633E613F618E433C675F0C5
:1012030003C3CA97CA09CB97CB199C40047D0880B6
:101213002EBD00030212D616B6FF050606081618E1
:10122300C3CA33CACB33CB33CA27CA09CB37CB198B
:101233003CC37D08803E187D0820E75CC633C6CAE0
:1012430033CACB33CB33DDF1D5F0EB30E77BCA9731
:10125300CA09CB974ACB199C406F4B7025E620E017
:10126300218066187D08C3CA97CA09CB97CB199CFE
:10127300D3C633C6CA33CACB33CB3350C9DDE7D564
:10128300F0E1D3E4C636C608C636C608C636C60875
:10129300C636C61818188031C3CA97CA09CB97CB6C
:1012A300199CB34097C633C6CA33CACB33CB33DD9D
:1012B30034D5F02EC6A2E0C640C8CA27CA09CB3728
:1012C300194A70BECB3CB480B90808E63308E6334C
:1012D300601F181818D0E0FAD0E0FBD0E0FCD0E093
:1012E300FD22187D08CA27CA09CB37CB193CD38006
:1012F3008013F618E4B67F11F618B6FF0EF618C67B
:101303000470D20808768080CAF618F618F680C5ED
:10131300E4CFC0E0E4CEC0E0E4CDC0E0E4CCC0E084
:1013230075F020C3E633F608E633F608E633F6082D
:10133300E633F6181818EC33FCED33FDEE33FEEF0D
:1013430033FFC3EC9709ED9709EE9709EF97191946
:1013530019400FFFEC97FC09ED97FD09EE97FE1975
:101363001906D5F0BEECF709EDF709EEF709EFF72B
:10137300191919D0E0FCD0E0FDD0E0FED0E0FF2247
:10138300181818E4C396F608E496F608E496F608E7
:10139300E496F622E0F608A3E0F608A3E0F608A335
:1013A300E0F622E6F008A3E6F008A3E6F008A3E6D9
:1013B300F022E0FAA3E0FBA3E0FCA3E0FD22EAF0C5
:1013C300A3EBF0A3ECF0A3EDF022CAC0E0E6F0A398
:1013D30008DAFAD0E0FA22CAC0E0E0A3C582CCC59D
:1013E30082C583CDC583F0A3C582CCC582C583CD19
:1013F300C583DAE6D0E0CA22C3E498F8E499F91287
:10140300143C8026C3E49AFAE49BFBE920E7E91243
:10141300143CE498F8E499F922C3E498F8E499F9C0
:1014230012143CE498F8E499F9C3E49AFAE49BFBB8
:1014330022EB20E7CFE920E7E0B90010BB0008E882
:101443008AF084F8AAF022E4FBC8FA22EB70227B2C
:1014530010C833C8C933C9335007C39AC3DBF280FA
:10146300069A50012ADBEAC833F4C8C933F4C9FA2F
:101473002275F008E4C833C8C933C933C99AC99B74
:101483005004C92AC93BD5F0ECFBC833F4C8E4C9FE
:10149300FA22700422600D18C6C333C608C633C6C9
:1014A300D5E0F41822251010AF08F51040021511ED
:1014B3008008F51040021511D2AF22C0D0251010BC
:1014C300AF08F510500205118008F5105002051100
:1014D300D2AFD0D0222510F58210AF08F51040020C
:1014E30015118008F51040021511D2AF8511832222
:1014F3002510F582E43511F58322E4732510C582A6
:10150300C0E0E51134FFC583C0E0E510C395822434
:10151300F810AF08858311858210800885831185B3
:101523008210D2AFCEF0A3E520F0A37808E608F04E
:10153300A3DEFAEFF0A3E58124FAF8E608F0A3E6C8
:1015430008F0A3E608F0A30808E608F0A3E608F00D
:10155300A315811581D0E0FED0E0F8158115811522
:1015630081E8C0E0EEC0E022851183851082E0A30C
:10157300FEE0A3F5207808E0A3F608DFFAE0A3FF76
:10158300E0A3C0E0E0A3C0E0E0A3C0E0E0A3C0E0CC
:10159300E0A3C0E010AF0885821085831180088521
:1015A3008210858311D2AFD083D0820200FBC0D0DA
:1015B3002510C582C0E0E51134FFC583C0E0E51006
:1015C300C3958224F310AF088583118582108008A8
:1015D300858311858210D2AFC8F0A3E9F0A3EAF0A6
:1015E300A3EBF0A37908E709F0A3D8FAECF0A3ED95
:1015F300F0A3EEF0A3EFF0A3D0E0F0A3D0E0F0A3CC
:10160300D0E0F0A3E520F0A3E5F0F0A32285118359
:10161300851082E0C0E0A3E0F9A3E0FAA3E0FBA316
:101623007808E0F608A3DFFAE0FCA3E0FDA3E0FE00
:10163300A3E0FFA3E0C0E0A3E0C0E0A3E0F5D0A3F4
:10164300E0F520A3E0A3F5F010AF088583118582B0
:10165300108008858311858210D2AFD082D083D0C9
:10166300E0F8D0E032740280027401C0E0F40412A6
:1016730014D8D0E01213CD2274028000CCC0E0ED68
:10168300C0E0E510C39CCCAD1150011D10AF068C1A
:10169300108D1180068C108D11D2AF1213DAD0E0A9
:1016A300FDD0E0FC22D083D082ECC0E0EDC0E0EEC0
:1016B300C0E0EFC0E0E493A3FCE493A3FDE493A3B1
:1016C300FEE493A3FFEF4E4D4C6015121724EC2458
:1016D300FFFCED34FFFDEE34FFFEEF34FFFF80E54A
:1016E300E493A3FCE493A3FDE493A3FEE493A3FF99
:1016F300EF4E4D4C6015121761EC24FFFCED34FFE7
:10170300FDEE34FFFEEF34FFFF80E5D0E0FFD0E0D5
:10171300FED0E0FDD0E0FCE493A3C0E0E493C0E09E
:1017230022C0E0C0F088F0120B33A8F04007120A81
:10173300F4A8F0701AA3A3A3A3120B33A8F0A3A3D6
:10174300A3A34013D0F0D0E0D0E0D0E002170EA363
:10175300A3A3A3A3A3A3A3A3A3D0F0D0E022C0E099
:10176300C0F088F0120AF4A8F0A3A3A3A3700BD0CF
:10177300F0D0E0D0E0D0E002170EA3A3D0F0D0E089
:1017830022C0E074F11215B1C2C5E589607E7E0006
:101793008074750801750900EE7808121495E50840
:1017A300AF08E5895F605EEEF87900E875F002A4A2
:1017B300C8AAF075F000A42AFA75F002E9A42AF980
:1017C30074FD28F582740339F583E0F8A3E0F9E8A2
:1017D30049602EEEF87900E875F002A4C8AAF07506
:1017E300F000A42AFA75F002E9A42AF974FD28F599
:1017F30082740339F583E0F8A3E0F5838882121439
:10180300FDEFF452890EEEC3940840867F02021660
:1018130010C0E074F11215B1C2EBE58A607E7E0060
:101823008074750801750900EE7808121495E508AF
:10183300AF08E58A5F605EEEF87900E875F002A410
:10184300C8AAF075F000A42AFA75F002E9A42AF9EF
:10185300740D28F582740439F583E0F8A3E0F9E800
:1018630049602EEEF87900E875F002A4C8AAF07575
:10187300F000A42AFA75F002E9A42AF9740D28F5F8
:1018830082740439F583E0F8A3E0F58388821214A7
:10189300FDEFF4528A0EEEC3940840867F020216CF
:1018A30010C0E074F11215B1C2E8E58B607E7E00D2
:1018B3008074750801750900EE7808121495E5081F
:1018C300AF08E58B5F605EEEF87900E875F002A47F
:1018D300C8AAF075F000A42AFA75F002E9A42AF95F
:1018E300741D28F582740439F583E0F8A3E0F9E860
:1018F30049602EEEF87900E875F002A4C8AAF075E5
:10190300F000A42AFA75F002E9A42AF9741D28F557
:1019130082740439F583E0F8A3E0F5838882121416
:10192300FDEFF4528B0EEEC3940540867F02021640
:1019330010C0E074F21215B1A2AFE433FEC2AFE5FA
:10194300E9A2E65020900427E0F8A3E0F9E8496013
:101953000E900427E0F8A3E0F58388821214FD7546
:101963009B0053E9BFEEA2E092AF7F01021610C0C5
:10197300E0C0D0E8C0E0E9C0E0C082C083E5C1C0F8
:10198300E09004AAE0F87900742928F582740439F8
:10199300F583D0E0F09004A9E0F89004AAE0687021
:1019A30006E5959004ABF09004AAE024019004AA04
:1019B300F0C3948040069004AA7400F0D083D082D0
:1019C300D0E0F9D0E0F8D0D0D0E032C0E0C0D0E829
:1019D300C0E0C008C009C082C08390052CE0F89025
:1019E300052DE068700B539AFB90052E7401F0806F
:1019F30031C2E990052CE0F5087401250890052C07
:101A0300F075090074AC2508F58274043509F58373
:101A1300E0F5C190052CE0C39480400690052C743A
:101A230000F0D083D082D009D008D0E0F8D0D0D055
:101A3300E03274F01214FF74FD1214A8740212142D
:101A4300F3E9F08A088B098C0A8D0B74151214F3D1
:101A5300E0FEA3E0FF851082851183E4F0A3F08EFE
:101A6300828F83A3AA82AB83900D4E780C121397B7
:101A73007808790C120CAA70188E828F83746912FD
:101A83001F14746EF0A37466F0A30A0AAB83021EDC
:101A9300AF78087908120CAA60118E828F83746E56
:101AA300121F147461F0A3746E80DD900D52780CD4
:101AB3001213977808790C120CD65003021B5F900F
:101AC3000550780C1213977808790C120CAA60034E
:101AD300021BB374171214F3E07003021BF5851095
:101AE30082851183C082C08374131214F3122952A6
:101AF300D083D082121EED502C851082851183C3B2
:101B0300E094FCA3E094FFA2D265D03340177402A3
:101B13001214F3E4122A26F974131214F3C3E0988F
:101B2300F0A3E099F074131214F3121F0A7418123D
:101B330014F3E07003021BF274171214F3E4021B94
:101B4300F4900D56780C1213977808790C12112D16
:101B5300851082851183E0240A122A63900D5A7836
:101B63000C1213977808790C120CD640D4900D5EA2
:101B7300780C1213977808790C120CD64003021ACA
:101B8300D6900D5E780C1213977808790C12112DEC
:101B9300122A5A80D8900D56780C12139778087928
:101BA3000C120D71851082851183E024F6121F0D2E
:101BB300900D62780C1213977808790C120D25405A
:101BC300D4900D52780C1213977808790C120D25C6
:101BD3004003021AD6900D5E780C12139778087999
:101BE3000C120D71851082851183121F0A80D27425
:101BF30001F074021214F3E060077A007B00021D07
:101C030001121EF9507D8E828F837430F0EAFEEB51
:101C1300FF74131214F3E0FCA3E0FDEC4D700874A1
:101C2300181214F3E0600B8E828F83742EF0A30ED0
:101C3300AF837A007B0080118E828F837430121FF2
:101C43003574131214F3121F0AEA24FF1AEB34FF3C
:101C5300FB851082851183121EE1500B741312143D
:101C6300F31229564970D185108285118374FFC3FD
:101C73009CF874FF9DF9121EED5003021DCF7A01EB
:101C8300021BFF851082851183122952C3E498FA3F
:101C9300E499FB806985080C85090D850A0E850B7F
:101CA3000F780C120BBFAC0CE50D3395E0F50EF578
:101CB3000F780C120B477808790C120EF1900D5E19
:101CC300780C1213977808790C120D71EC121F2FF0
:101CD300EAF8EBF9E824010AE93400FBE849701E4D
:101CE30074131214F312295649700874181214F35A
:101CF300E0600B8E828F83742EF0A30EAF83741378
:101D03001214F3121EE1508D900D66780C12139786
:101D13007808790C120CD64003021DCF7C01EE2407
:101D2300FFF8EF34FFF974151214F3E0F508A3E09C
:101D3300F50988828983E0642E6010E02CF0643A10
:101D430070077430F07C0180027C00E8FAE9FBEA5A
:101D530024FF18EB34FFF9C3E5089AE5099B40D249
:101D6300ECA2E0506774021214F3E06036EEF8EF71
:101D7300800A121ECCE824FF18E934FFF9C3E508F2
:101D830098E509995018121EB9E0642E70E4E8240E
:101D9300FEF582E934FFF583121EC6F980D7122AB5
:101DA3005A801E8E828F83A3AE82AF83EEF8EF80BC
:101DB30006121EB9121EC6F9C3E50898E509994033
:101DC300F074151214F31229717431F0741712148C
:101DD300F3E07005801A1EAF83EE24FFF582EF3423
:101DE300FFF583E0643060EEE0642E70031EAF8382
:101DF30074021214F3E07003021EAB121F31A3A985
:101E030083121EF98E828F835014742DF00EE9FF16
:101E130085108285118312299A121F228006742B42
:101E2300F00EE9FF7C007D00EE240AFEEF3400FF94
:101E3300EC24010CED3400FD121ED3121434EA120B
:101E43001F2F121ED3121434121F3C4970E2C3EC2D
:101E53009402ED12290340D8ECFAEDFBC3E49CF89D
:101E6300E49DF9EE28F582EF39F583E0C0E0C3E4A1
:101E73009AF8E49BF9EE28F8EF39F9E82CF8E93DF4
:101E8300F9E824F5F582E934FFF583D0E0F0EC249A
:101E9300FF1CED34FFFDC3EC9401ED12290350BC8C
:101EA300EE24F6FEEF34FFFFEEFAEFFB7403121499
:101EB300BE7F0802156BE824FFFAE934FFFB8A8230
:101EC3008B8322121ECC18EB22E088828983F022B6
:101ED3008510828511831229A77A0A7B0022C3E029
:101EE3009AA3E09BA2D265D03322C3E098A3E099E2
:101EF300A2D265D03322851082851183C3A3E094D7
:101F030000A2D265D03322E024FFF0A3E034FFF037
:101F130022F0EAFEEBFF8E828F8322A3E03400F9E6
:101F2300851082851183E8F0A3E9F02224308E82A4
:101F33008F83F0A3AE82AF83228510828511831233
:101F43001F4622E8F0A3E9F0851082851183E02281
:101F530074F01214FF74B01214A8851082851183D3
:101F6300122A0C74181214F3ECF0A3EDF0740F1290
:101F730014F3E4F0A3802274601214F31229427460
:101F8300041214F3E0F974181214F31229711214E1
:101F9300FD740F1214F312290BF0122985FA122A79
:101FA300451214F3EAF074256A6010E070C9740FE7
:101FB3001214F31229427450021EB11229856425AA
:101FC3007019851082851183E0240108121F1E7485
:101FD300601214F3122942792580AB740E1214F3A4
:101FE300E4F0740D1214F3E4F0740C1214F3E4F03F
:101FF30074051214F3E4F0741E1214F3A882A98377
:1020030074021214F3801574051214F3E07007744C
:10201300051214F3EAF0851082851183121F421210
:1020230029391229CCFA24E060DD24FD601724F855
:1020330060DD24FE600624FD600F8011740C121411
:10204300F3E00480D0740D80F5740E80F11229CC76
:10205300642A705B74621214F31229D7FB8A828B91
:1020630083E0FCA3E0FD740A1214F3ECF0A3EDF09B
:10207300EA24020A0AEB3400FB74621214F3122AF4
:1020830004740A1214F3121EFF501F740A1214F37D
:10209300122942C3E49AFAE49BFB740A1214F31262
:1020A3002A0C740C1214F3E004F0121F23804A74F8
:1020B3000A1214F3E4F0A3802D740A1214F3122904
:1020C3005675F00AA4F8AAF075F00AE9A42AF9E50E
:1020D3000828F8E439F9E824D0F8E934FFF9740A58
:1020E3001214F3122A6A122A26F5838882E0F5086D
:1020F30074D02508C3940A40C0740C1214F3E06032
:1021030007740E1214F3E4F0122985642E6003029F
:10211300219E851082851183E0240108A3E0340009
:10212300F9121F3C122976E0642A702C746212148F
:10213300F312298BF8A3E0F988828983E0FEA3E0F8
:10214300FFE824020808E93400F974621214F31258
:1021530029BF122A6AF080477E007F00851082859E
:10216300118312299474D02508C3940A5031EE7553
:10217300F00AA4FEA8F075F00AEFA428FFE5082EE4
:10218300F8E43FF9E824D0FEE934FFFF85108285A7
:102193001183E02401F8121F1E80C17EFF7FFF7AA6
:1021A300008510828511831229348510828511835D
:1021B300E0FBA3E0F5838B82E024B4600824E460B1
:1021C3000524FC70040A121F23122985FB122A45D9
:1021D3001214F3EBF070030227A924BB7003022649
:1021E3006F24FE700302265124EF700302239B2405
:1021F300F570030222A0147003022440147003023A
:10220300266F14700302266D14700302265124FEF8
:10221300700302244024FB602414700302238B14F4
:10222300700302239B24FD70030222D924FE700352
:1022330002239B24FD700302239B0227B5746212C1
:1022430014F31229FE1214F3121F29EAA2E0740FE9
:1022530050331214F3E0FCA3E0FD3395E0FE740663
:102263001214F31229DFECF0A3EDF0A3EEF0A3F0C8
:1022730074621214F31229E61214F31229BFE8F060
:10228300A3E9021F9C1214F312295274061214F3C9
:102293001229D7F5838A82E8F0A3E980D274621207
:1022A30014F31229DFE0C0E0741E1214F3D0E0F03F
:1022B30074621214F31229E61214F31229BF121FC7
:1022C30029741F1214F3A882A98374121214F3E859
:1022D300F0A3E90227CC74621214F31229FE12143C
:1022E300F3121F2974061214F31229FE1214F3E0D9
:1022F3002402FAA3E03400FB74621214F3122A04DA
:1023030074021214F3121F29E849700C7402121498
:10231300F3743BF0A3740DF012290150047E107F77
:102323002774081214F3E4F0A3800874081214F35A
:1023330012290BF074021214F31229528882898332
:10234300A3AA82AB8374021214F3122A0C88828923
:1023530083E0600A74081214F312295B40CD7402FF
:102363001214F312292274121214F3121F2974087F
:102373001214F312299AF974121214F3E028F8A331
:10238300E039F974020222CF740D1214F3E06008ED
:10239300EE4F70047E017F0074621214F31229FE63
:1023A3001214F3122A521214F3E064707038740694
:1023B3001214F31229F41214F3122A2D1214F3E057
:1023C30024021229B61214F31229BF121F29900DE9
:1023D3006A1213B5741A1214F31213C1740512148A
:1023E300F3E4F00224D0EAA2E07406501B1214F3C3
:1023F3001229711213B574141214F31213C1740653
:102403001214F3E0240480121214F31229F41214A8
:10241300F3122A2D1214F3E024021229B61214F334
:102423001229BF122A521214F3E0646F7005900D43
:102433006E809EE064757096900D2680947462128F
:1024430014F31229FE1214F3121F29EAA2E07406F0
:1024530050161214F3122971780812139774061286
:1024630014F3E02404F8801B1214F3122994A3E05C
:10247300F5093395E0F50AF50B74061214F3E0241D
:102483000208081229B71214F3122A3A1214F37825
:10249300081213A69005507808120B0D40217405FD
:1024A3001214F3742DF074141214F37808121397A2
:1024B300780812138674141214F378081213A69072
:1024C3000D261213B5741A1214F31213C1744F129A
:1024D30014F3A882A98374021214F3121F2974122D
:1024E3001214F3122A3D1214F37808121397E50815
:1024F3004509450A450B600974111214F3740180F0
:102503000674111214F3E4F0EE4F7008E0A2E040F9
:10251300030225C474021214F312296B1214F3126A
:102523002A3D1214F3780C121397741A1214F378C9
:1025330008121397780C7908121313742A2508F5D7
:1025430082740D3509F583E0C0E074021214F312AE
:102553002971D0E0F074141214F3780C12139774E9
:102563001A1214F37808121397780C7908121313BC
:1025730074141214F3780C1213A674141214F3784F
:1025830008121397E5084509450A450B7086122979
:1025930001502E740E1214F3E0602674051214F326
:1025A300E06004D2F08002C2F0740A1214F312291C
:1025B30014800E74021214F3122A1E1214F3122939
:1025C3007E74021214F3122922744F1214F3C08280
:1025D300C08374021214F3122942D083D082E5829D
:1025E300C39AFAE5839BFBC3EA9EEB12296440C3BB
:1025F300740D1214F3E070030227CD74111214F357
:10260300E0A2E040030227CD74041214F3E06478DF
:102613006005E06458701E121ECCE824FF18E934EC
:10262300FFF974021214F3122A1E1214F312297101
:1026330074300227CCE0646F60030227CD7402126A
:1026430014F31229D2643070030227CD80D47408A6
:102653001214F37401F0A3E4F074041214F3E024ED
:10266300FEF0EE4F700F7E018012E4F07408121436
:10267300F3E4F0A3F012290150047E067F00746294
:102683001214F31229FE1214F3121F2974061214E2
:10269300F3122971780C12139774061214F3E024C1
:1026A300041229B61214F3122A3A1214F3780C12F4
:1026B30013A69005507808121397780C7908120D19
:1026C30025502274051214F3742DF074141214F3AC
:1026D3007808121397E50BB2E7F50B74141214F391
:1026E30078081213A6740A1214F3122952741E12D4
:1026F30014F3E58228F8E58339F974021214F3120E
:102703001F29740D1214F3E0F508780812166C747F
:10271300091214F3E0F508780812166C7404121405
:10272300F312167B8E088F097808121668740A1242
:1027330014F3E0F9741A1214F31213B5120AE874BD
:10274300061214BE74121214F3122A0C740E12140D
:10275300F3E0607674051214F3E06004D2F08002B3
:10276300C2F0740A1214F312291474121214F3C06F
:1027730082C08374021214F3122952D083D082E0F0
:10278300C398F8A3E099F9C3E89EE9122964503A83
:1027930074021214F312296B1214F3122A1E121468
:1027A300F312297E80C485108285118312292B128E
:1027B3001F2274021214F3744AF0A3740DF07412FE
:1027C3001214F3744DF0A3740DF074121214F3C0C9
:1027D30082C08374021214F3122952D083D082E090
:1027E300C398FEA3E099FF740A1214F312295B50F5
:1027F3000A74081214F3E4F0A3803074051214F37E
:10280300E06004D2F08002C2F0740A1214F3E0C351
:102813009EF8A3E09FF9A2F0E433FAE89AF8E9946A
:1028230000F974081214F3E8F0A3E9F0740C12141D
:10283300F3E0702B801974601214F31229481214F8
:10284300F31229711214FD740F1214F3122A607417
:10285300081214F3122A121214F3121EFF50D77423
:10286300051214F3E0605074601214F312294274D9
:10287300051214F3E0F974181214F31229711214E7
:10288300FD802C74601214F312294274021214F3A3
:1028930012298BF974181214F31229711214FD748E
:1028A300021214F312293474021214F3121F29743E
:1028B3000F1214F3122A60EE24FF1EEF34FFFFC33E
:1028C30012290350BE740C1214F3E07003021F9D0F
:1028D30074081214F3122A121214F3121EFF500377
:1028E300021F9D74601214F31229481214F3122963
:1028F300711214FD740F1214F3122A6080D2C3EF05
:102903009400A2D265D03322E02401F0A3E0340086
:1029130022A2F0E433F8E098FEA3E09400FF221231
:1029230029262212292BF922E024FFF8A3E034FF01
:1029330022E0122939222401F8A3E03400F922E02D
:10294300FAA3E0FB22E0FAA3E0FB79207418221239
:1029530029A7221229A7E822C3E09EA3E012296433
:10296300229FA2D265D03322122926740222122971
:102973007522E0F8A3E0F58388822212297574306A
:10298300F02285108285118312298F221229ADE04E
:102993002212298FF508221229A7C3E498F8E49993
:1029A300221229ADE0F8A3E0F922E0F8A3E0F583D1
:1029B300888222F8A3E03400F97462221229C32228
:1029C300E0FAA3E0F5838A822285108285118312BF
:1029D30029C3E0221229C3E0FAA3E02212298F12AD
:1029E30029762212298F2402F8A3E03400F97462B5
:1029F300221229A4E8FAE9FB7414221229A474060A
:102A030022E0FCA3E0F5838C82EAF0A3EBF022E062
:102A130024FFF0A3E034FFF0740822E8F0A3E9F008
:102A2300740222121F4AF8A3E022EAF0A3EBF0A3F8
:102A3300E4F0A3F07406221229C3E8F0A3E9F074CA
:102A43001422851082851183E0240108122A78E874
:102A5300F0A3E9F0740422851082851183E0240138
:102A6300F0A3E03400F022121F462401F8122A7862
:102A7300E8F0A3E922A3E03400F9851082851183ED
:102A83002274F71214FFEAFCEBFD7E0A7F00780044
:102A930079008008E82401F8E93400F9C3E89EE9E5
:102AA3009FA2D265D0334003022B44E8FAE9FBEA44
:102AB30075F022A4CA85F00875F000A42508F5086E
:102AC30075F022EBA42508FB74662AF582740B3B90
:102AD300F583E0FAA3E0F5838A82E0FA8C828D83A2
:102AE300E06A70B0E8FAE9FBEA75F022A4CA85F05F
:102AF3000875F000A42508F50875F022EBA4250855
:102B0300FB74662AF582740B3BF583E0FAA3E0F5C8
:102B1300838A82A3E0FA8C828D83A3E06A60030236
:102B23002A97E875F022A4C8AAF075F000A42AFA3F
:102B330075F022E9A42AF9746828FA740B39FB802A
:102B4300047A687B0B7F0102156BC082C083120974
:102B5300D4D083D0820200FB801C78087907E8FC7C
:102B6300E9FDEC24FFF8ED34FFF9EC4D70F0EA24B5
:102B7300FFFAEB34FFFBEA4B70E00200FB780874CA
:102B830000D28078008009D293D292E9C333F90846
:102B9300E8C39408500BC29274805970EAC29380C0
:102BA300E80200FB78087400C28078008009D293A1
:102BB300D292E9C333F908E8C39408500BC2927464
:102BC300805970EAC29380E80200FB74F71214FF85
:102BD300E9FEEAFFEEC394805020EFC39408501A35
:102BE30074B02FF91209B0740F5EF91209B0EEC474
:102BF300540F54074410F91209B07F0102156B7486
:102C0300F71214FFE9FF7E00800FEFF91209AA05FE
:102C130008E508C3948040F20EEEC39408500CEE0E
:102C2300FA79001209B675080080E67F0102156B78
:102C330074F11214FFE9FF8A0EEFFE800F79001280
:102C430009AA0508E508C3948040F20E8E087509A9
:102C5300008F0C750D00850E0A750B00E50C250A17
:102C6300F8E50D350BF9C3E50898E50999A2D26596
:102C7300D033501674B02EF91209B079011209B08D
:102C830079101209B075080080BA7F0702156B74BA
:102C9300F21214FF74EF1214A88A0C8B0D89097FAA
:102CA300007E007F0075F00274FF2509A4FEAA0CC4
:102CB300AB0D120AE2EAF508E508C3941140037567
:102CC3000810750A11750B00780A1216687C007DCE
:102CD3000074021214F3AA82AB83120AD074021294
:102CE30014BE85080A750B00780A121668AC0CAD81
:102CF3000D74021214F3AA82AB83120ACA7402126D
:102D030014BE7A02EEF91209C2851082851183ACD2
:102D130082AD83EEFAEFF91209CE74111214BE7F5D
:102D23000602156B74F01214FF74FE1214A88510BA
:102D330082851183ECF0A3EDF0E9FEEAFF750D0047
:102D4300750900750800750E00750F00750C00807D
:102D530030850C0A750B00E50E250AF8E50F350BD7
:102D6300F9E82410F582E93400F583E0F91209AAA1
:102D7300050CE50CC3941040D874102EFE0508050D
:102D830008E508A8087900851082851183E028FAF0
:102D9300A3E0398A82F583E07003022ED9EEC3944F
:102DA3007940037E000FEFFAEEF91209B6E508A8A1
:102DB300087900851082851183E028FAA3E0398A17
:102DC30082F583E0C394804054E508A80879008520
:102DD3001082851183E028FAA3E039FB1209988A4F
:102DE3000A8B0B850A0E850B0F750C008019850C59
:102DF3000A750B00E50E250AF582E50F350BF58301
:102E0300E0F91209AA050CE50CC3941040E0740123
:102E13002FFAEEF91209B6750C00022D75E508A814
:102E2300087900851082851183E028FAA3E0398AA6
:102E330082F583E024E0F50D750900803AE50DA8DD
:102E43000D7900E875F010A4C8AAF075F000A42A63
:102E5300FA75F010E9A42AF985090A750B00E8252B
:102E63000AF8E9350BF9747628F582740539F58388
:102E7300E0F91209AA0509E509C3940840BF7401E2
:102E83002FFAEEF91209B6750900803AE50DA80D7F
:102E93007900E875F010A4C8AAF075F000A42AFA26
:102EA30075F010E9A42AF985090A750B00E8250ACB
:102EB300F8E9350BF9747E28F582740539F583E05A
:102EC300F91209AA0509E509C3940840BF74082E3D
:102ED300FE0508022D8474021214BE7F0802156BCE
:102EE300C082C08353F3FE43FD0153F47343FE8C4E
:102EF300D292C2977A327B001209A4D29779AE128A
:102F030009B079001209B079101209B07940120999
:102F1300B079811209B079CF1209B079A11209B041
:102F230079C81209B079A61209B079A81209B07943
:102F33003F1209B079D31209B079001209B079D5DB
:102F43001209B079801209B079D91209B079F11256
:102F530009B079DA1209B079121209B079DB1209D2
:102F6300B079401209B079201209B079021209B080
:102F7300798D1209B079141209B079A41209B079C4
:102F8300A61209B079AF1209B079001209BC7A0010
:102F930079001209B6D083D0820200FBC082C083BD
:102FA30053F30E43FD2153FD6F53F4CF53FECFC2B2
:102FB3008579011209E6D083D0820200FBA29540F5
:102FC30004D2F08002C2F0A2F0E433F90200FBA2C3
:102FD300944004D2F08002C2F0A2F0E433F902007C
:102FE300FBA284E433F90200FBC082C083E96004DE
:102FF300740180027400900540F0900540E0A2E067
:103003009285D083D0820200FBC082C083E9600432
:10301300740180027400900541F0D083D0820200D5
:10302300FB74F71214FFE9FE60047401800274005C
:10303300900542F0900542E0600779011209E080B3
:103043000579011209E67F0102156B74F61214FF6C
:10305300120962E970030230E3E4F508F509780820
:103063001216687C047D007A3C7B051209687402A1
:103073001214BEE96404706890053CE06443706018
:1030830090053DE06401701290053EE06004740118
:1030930080027400900D25F08046900D25E070129B
:1030A30090053DE06402700A90053EE0F9120AA023
:1030B300802E900D25E0701290053DE06403700AA8
:1030C30090053EE0F9120AA68016900D25E07010D7
:1030D30090053DE06404700890053EE0F9120AACE7
:1030E3007F0202156B74F71214FFE9FEEAFF8B08E7
:1030F300E50860089005437496F0800D900543E061
:103103006007900543E024FFF0EE600C7901120A9A
:10311300A67901120AAC8010900D25E0600A7900AF
:10312300120AA67900120AAC900D25E06012EF6036
:103133000A900543E06004790180027900120AA035
:103143007F0102156B74F71214FFE9FEEAFF8B0887
:103153009005337453F0900530E0900534F09005FA
:103163002FE0900535F0EE900536F0EF900537F03F
:10317300E508900538F0900D25E0900539F09005AD
:1031830040E090053AF0900541E060067A017B004B
:1031930080047A007B00900542E0600678027900A3
:1031A300800478007900EA4890053BF079097C3384
:1031B3007D057A007B2012095CE97F0102156B749F
:1031C300F41214FF74EC1214A88908EAFEEBFF90C2
:1031D3000CBBE0703390052FE0F50A750B00780AFD
:1031E300121668900530E0F50A750B00780A12167E
:1031F300687CBD7D0C74041214F3AA82AB83120A9B
:10320300DC74041214BE8057900532E06008750A1E
:1032130055750B008006750A4E750B00900CBCE0CB
:10322300648070067A077B0080047A067B00780A44
:103233001216688A0A8B0B780A121668900CBBE088
:10324300F50A750B00780A1216687CCA7D0C7406A1
:103253001214F3AA82AB83120ADC74061214BE7929
:1032630002851082851183AA82AB831209C88F0A53
:10327300750B00780A1216688E0A750B00780A120D
:10328300166885080A750B00780A1216687CDB7DC0
:103293000C74061214F3AA82AB83120ADC740612AE
:1032A30014BE7903851082851183AA82AB83120928
:1032B300C8900D25E06008750AFB750B0C80067538
:1032C3000A00750B0D780A121668900541E0F50A9D
:1032D300750B00780A121668900540E0F50A750B25
:1032E30000780A1216687CED7D0C74061214F3AA9A
:1032F30082AB83120ADC74061214BE790485108231
:10330300851183AA82AB831209C874141214BE7F79
:103313000402156B74FA1214A8750900750A1412C5
:103323000974120A8879001209BC79017A057B0DA8
:103333001209C874021214F37434F0A37412F074F3
:10334300041214F3740BF074051214F37401F08572
:1033530010828511837400F0A37410F085108285A8
:103363001183AA82AB83120956E96401700B7902B7
:103373007A167B0D1209C880FE12096E120A8EE9B5
:10338300F508120A94E9FF120A9AE9FE120AB2EE4C
:10339300FBEFFAA908120AB87401250AF8880AE8AB
:1033A300C3941E4006750A00120A8274012509F8A7
:1033B3008809E8C3940A4015750900EEFBEFFAA9E2
:1033C30008120ABEEEFBEFFAA908120AC47A647B5C
:1033D300001209F880A674F71214FFE9FEEAF8EB6D
:1033E300F9E8FAE9FB740B2E8A828B83F0900308C9
:1033F300E0F8A3E0F5838882A3A3A3A3A3E0600678
:1034030078617988800478417988E88A828B83A3FC
:10341300F0E4E9F88A828B83A3A3F0900301E08AA6
:10342300828B83A3A3A3F0900308E0F8A3E0F583C2
:103433008882A3A3E0F8A3E0F98A828B83A3A3A3E2
:10344300A3E8F0A3E9F08A828B83A3A3A3A3A3A396
:10345300ECF0A3EDF0900308E0F8A3E0F583888295
:10346300E0F8A3E0F98A828B83A3A3A3A3A3A3A376
:10347300A3E8F0A3E9F0790A7F0102156B74F21255
:1034830014FFECFEEDFF8908A908EAFCEBFD7A0ABC
:103493007B03120944E9FB7A0080348A0A750B0026
:1034A300EE250AF582EF350BF583E0C0E08B0A7554
:1034B3000B008A0C750D00E50A250CF8E50B350D9C
:1034C300F9740A28F582740339F583D0E0F00AEA27
:1034D300C3950840C6EB2508F97F0602156B74F700
:1034E3001214FF7E7D7F03120A3A12098C7901EED2
:1034F300FAEFFB120A228E828F83E0C2E7F08E82FC
:103503008F83E0640570528E828F83E0F97A7E7B2D
:1035130003120A228E828F83A3E0A2E55004D2F025
:103523008002C2F0A2F0E43390054CF07881790375
:1035330088828983A3E0A2E740030235F38E828F5A
:1035430083A3A3A3E0F8900301E06860030235F3CB
:103553009003027401F00235F38E828F83E024F529
:10356300900549F08E828F83E0F97A7E7B03120AFD
:10357300228E828F83A3E0A2E55004D2F08002C2A0
:10358300F0A2F0E43390054CF08E828F83A3A3A3C3
:10359300A3A3A3A3A3E0F8A3E0F9900545E8F0A350
:1035A300E9F090054A7487F0A37403F0900549E0AD
:1035B300F83395E0F990054AE028F8A3E039F98853
:1035C300828983E090054DF088828983A3E0A2E796
:1035D30050128E828F83A3E054DF644170069005FE
:1035E3004E7401F08E828F83A3A3A3E0900544F071
:1035F300120992120A407F0102156B74F71214FF2D
:10360300EAFEEBFF1209FEE9640170047901806FA1
:10361300120992900308EEF0A3EFF090054A7400AC
:10362300F0A37400F09003037401F090055012139B
:10363300B59003041213C1900308E0F8A3E0F583E7
:103643008882A3A3A3A3E0F9120A0A900308E0F86F
:10365300A3E0F5838882E0FAA3E0FB120A1090034B
:1036630008E0F8A3E0F5838882A3A3E0FAA3E0FBD4
:10367300120A167A507B09120A4612098C79007FC6
:103683000102156B74F41214FFEAFEEBFF8C0A8D32
:103693000B8908900303E07003120A2EE508C39414
:1036A3006750058508098003750967850908120AAB
:1036B3004C120A3AA908AC0AAD0BEEFAEFFB120959
:1036C3004AE9F97A0A7B03120A1C120A40120A28F1
:1036D300E960027E01900308E0F8A3E0F5838882A5
:1036E300A3A3A3A3A3E0601C9003027400F07A4A8F
:1036F3007B021209F2900302E060047400800274FA
:1037030001FE80027E00900303E07003120A34EE90
:103713007007900301E02401F0EEF97F0402156BBA
:10372300C082C08390054EE0F9D083D0820200FBB3
:1037330074F21214FF8A0A8B0BECFEEDFF740E1267
:1037430014F3E0F508A3E0F509120992900549E0A6
:10375300F83395E0F9C3E89EE99F500D900549E0E1
:10376300F50C3395E0F50D80048E0C8F0D780C125B
:10377300166890054AE0FCA3E0FDAA0AAB0B120A07
:10378300CA74021214BEE50845096026120A04E948
:10379300F50A90054DE0F83395E0F9750B00E8C3A1
:1037A300950AF8E9950BF9850882850983E8F0A362
:1037B300E9F090054E7400F012098C900549E0F889
:1037C3003395E0F9C3E89EE99F5007900549E0F976
:1037D3008002EEF97F0602156BC082C0839003035B
:1037E3007401F0120A2ED083D0820200FBA287E478
:1037F30033F90200FB53F37F53FD7F538F7F53F75E
:10380300DF0200FB53F37F43FD80C2870200FBC04E
:1038130082C083D287120A64D083D0820200FB74F1
:10382300F71214FF89087E007F00120A5EE965081B
:103833007019EE2401F8EF3400F9E8FEE9FFC3E85C
:1038430094A0E9940F40E37900800279017F01029B
:10385300156B74F61214FFEAFEEBFF750800750989
:103863000080020509E509C3940850407900120A53
:1038730076E9700B8E828F837400F07900802F7A43
:10388300237B001209F2E508C333F508120A5EE947
:103893006007D3E50892E0F5087901120A76E9702A
:1038A300C28E828F837400F079008002A9087F02A0
:1038B30002156B74F41214FF74FF1214A8900CBC5D
:1038C3007480F0120A64120A5EE9900532F0120A5B
:1038D3006A7A147B001209F8120A707A1E7B0012AE
:1038E30009F2A2AFE433F50AC2AF7901120A76E90D
:1038F300851082851183F0851082851183E0600D28
:103903007900120A76E9851082851183F085108289
:10391300851183E0600D7901120A76E985108285AD
:103923001183F0851082851183E0604E85108285B6
:103933001183AA82AB83120A7CE9FE85108285116A
:1039430083AA82AB83120A7CE9F50B851082851169
:1039530083AA82AB83120A7CE9FF851082851183D7
:10396300AA82AB83120A7CE9F5088510828511834C
:10397300AA82AB83120A7CE9F509E50AA2E092AFB9
:10398300120A6AD287851082851183E0701A900C1F
:10399300BB7401F090052F7400F09005307400F0B3
:1039A3009005317400F0803AEE250B2F2508650948
:1039B300601A900CBB7402F090052F7400F0900510
:1039C300307400F09005317400F08016EE90052FEE
:1039D300F0EF900530F0E508900531F0900CBB74E2
:1039E30000F074011214BE7F0402156BC082C08301
:1039F300906189E04460F09061FA7409F09061B2DB
:103A03007415F09061AE7400F090619074F5F0124B
:103A13000A52120A407900D083D0820200FBC0828E
:103A2300C083900CBAE0F9D083D0820200FBC0823D
:103A3300C08375F005E9A424D490618FF0D083D0BE
:103A4300820200FBC082C083EA906174F0E4EBFA67
:103A5300906175F0D083D0820200FBC082C083EAFC
:103A6300906172F0E4EBFA906173F0D083D082023C
:103A730000FB74F61214FF75E1EE7591FD7800807A
:103A8300138808750900EA2508F582EB3509F583E3
:103A9300E0F5D908E8C39940E87F0202156BC082BC
:103AA300C0838011E5D98A828B83F08A828B83A3BA
:103AB300AA82AB8319E9C3940150E9D083D082026F
:103AC30000FB75E1E9E591A2E150FA7591FD7900FA
:103AD3000200FB75E1EC75E1E30200FB75E1EF75B4
:103AE300E1EC0200FBC082C0839061A3E0C2E6F078
:103AF300539AFED083D0820200FBC082C0839061C0
:103B0300A3E0D2E6F0439A01D083D0820200FBC047
:103B130082C083A2AFE433F8C2AF900427EAF0A3D4
:103B2300EBF0E8A2E092AFD083D0820200FBC08228
:103B3300C083906193E0542270F8D083D082020056
:103B4300FB0200FB74F41214FF8A088B098C0A8DA4
:103B53000B53F1FE43F30C53F2F375868075C48067
:103B630078081216A8000000000C000000B0040042
:103B730000BA3B60090000C23BC0120000CA3B8090
:103B8300250000D23B40380000DA3B004B0000E246
:103B93003B80700000EA3B00960000F23B00E1002E
:103BA30000FA3B002C0100023C00C201000A3C0069
:103BB300840300123C1A3C75C23B75C505805E75D3
:103BC300C23B75C506805675C23B75C507804E75E9
:103BD300C23B75C508804675C2D875C508803E7559
:103BE300C23B75C509803675C2D875C509802E7567
:103BF300C23B75C50A802675C2D875C50A801E7575
:103C0300C23B75C50B801675C2D875C50B800E7582
:103C1300C2D875C50C800675C23B75C50A75C4024A
:103C2300438640D2AA75C1009004A97400F09004A1
:103C3300AA7400F090052C7400F090052D7400F028
:103C43009004AB7400F090052E7400F07F0402150D
:103C53006BC082C0838A828B83123CEBE9F08A8239
:103C63008B83E02401FCA3E03400FD8A828B83EC88
:103C7300F0A3EDF0D083D0820200FB74F61214FFA0
:103C830074FC1214A874021214F3EAF0A3EBF0EC20
:103C9300FAEDFB740E1214F3A882A98385108285B2
:103CA3001183E8F0A3E9F0851082851183858208EA
:103CB300858309780812166874041214F385820840
:103CC30085830978081216687CD67D0A120AEE7479
:103CD300041214BE74021214F3123CEBE4F07404E5
:103CE3001214BE7F0202156BE0F8A3E0F58388820D
:103CF30022C082C0837900120986E9600F7901121C
:103D030009807900120986E9600280FE79001209B0
:103D130080D083D0820200FBEBC313FBEA13FAEAE1
:103D2300F8EBF9E824FFFAE934FFFBE849601200F5
:103D33000000000000000000000000000000008000
:103D4300DE0200FB74F71214FFEAFEEBFFEEF8EF5E
:103D5300F9E824FFFEE934FFFFE84960097AE87BCC
:103D6300031209F280E77F0102156BE5C65480F860
:103D730053BEFBE59DA2E550FAE59DA2E240F400A7
:103D83007401697007744948F5C68005E9700288B3
:103D9300C6E5C6F8E59EFAE86A70F943BE04020078
:103DA300FBE9F8E59EA2E640047901801CE8700572
:103DB30053C67F8008740168700343C680E5C6F963
:103DC300E59EFAE96A70F979000200FB74F61214B1
:103DD300FF740A1214F3E0FEA3E0FFEAF8EBF980A4
:103DE300188C828D83E088828983F0A3A882A983BB
:103DF3008C828D83A3AC82AD838E088F09E5082462
:103E0300FF1EE50934FFFFE508450970D47F020270
:103E1300156B43FE01D29043FE02D29143FE10D2B2
:103E2300940200FBE914600814600914600A800A14
:103E3300C2908006C2918002C2940200FBE9146022
:103E43000814600914600A800AD2908006D2918017
:103E530002D2940200FB74F71214FF74091214F3D4
:103E6300E0F8A3E0F98A828B838003ECF0A3E8FEF9
:103E7300E9FFEE24FF18EF34FFF9EE4F70ED7F01F9
:103E830002156BC082C0831209EC1209DA12099E73
:103E930012097A9005541213B5120A5812098CD0DC
:103EA30083D0820200FBC082C0838A828B8380011D
:103EB300A3E070FCE582C39AFAE5839BFBD083D031
:103EC300820200FB53F3FD53FDFD438F0253F5FEC6
:103ED30053FFFE43F7010200FBD2AF0200FBC2AF68
:033EE3000200FBDF
:04000005000000E314
:00000001FF
